{
	"Twiiter.sol": {
		"Twitter": {
			"abi": [
				{
					"inputs": [
						{
							"internalType": "string",
							"name": "tweet",
							"type": "string"
						}
					],
					"name": "createTweet",
					"outputs": [
						{
							"components": [
								{
									"internalType": "address",
									"name": "author",
									"type": "address"
								},
								{
									"internalType": "string",
									"name": "content",
									"type": "string"
								},
								{
									"internalType": "uint256",
									"name": "timestamp",
									"type": "uint256"
								},
								{
									"internalType": "uint8",
									"name": "likes",
									"type": "uint8"
								}
							],
							"internalType": "struct Twitter.Tweets",
							"name": "",
							"type": "tuple"
						}
					],
					"stateMutability": "nonpayable",
					"type": "function"
				},
				{
					"inputs": [
						{
							"internalType": "address",
							"name": "owner",
							"type": "address"
						},
						{
							"internalType": "uint8",
							"name": "id",
							"type": "uint8"
						}
					],
					"name": "getTweetbyId",
					"outputs": [
						{
							"components": [
								{
									"internalType": "address",
									"name": "author",
									"type": "address"
								},
								{
									"internalType": "string",
									"name": "content",
									"type": "string"
								},
								{
									"internalType": "uint256",
									"name": "timestamp",
									"type": "uint256"
								},
								{
									"internalType": "uint8",
									"name": "likes",
									"type": "uint8"
								}
							],
							"internalType": "struct Twitter.Tweets",
							"name": "",
							"type": "tuple"
						}
					],
					"stateMutability": "view",
					"type": "function"
				},
				{
					"inputs": [
						{
							"internalType": "address",
							"name": "owner",
							"type": "address"
						}
					],
					"name": "getTweets",
					"outputs": [
						{
							"components": [
								{
									"internalType": "address",
									"name": "author",
									"type": "address"
								},
								{
									"internalType": "string",
									"name": "content",
									"type": "string"
								},
								{
									"internalType": "uint256",
									"name": "timestamp",
									"type": "uint256"
								},
								{
									"internalType": "uint8",
									"name": "likes",
									"type": "uint8"
								}
							],
							"internalType": "struct Twitter.Tweets[]",
							"name": "",
							"type": "tuple[]"
						}
					],
					"stateMutability": "view",
					"type": "function"
				},
				{
					"inputs": [
						{
							"internalType": "address",
							"name": "",
							"type": "address"
						},
						{
							"internalType": "uint256",
							"name": "",
							"type": "uint256"
						}
					],
					"name": "tweets",
					"outputs": [
						{
							"internalType": "address",
							"name": "author",
							"type": "address"
						},
						{
							"internalType": "string",
							"name": "content",
							"type": "string"
						},
						{
							"internalType": "uint256",
							"name": "timestamp",
							"type": "uint256"
						},
						{
							"internalType": "uint8",
							"name": "likes",
							"type": "uint8"
						}
					],
					"stateMutability": "view",
					"type": "function"
				}
			],
			"devdoc": {
				"kind": "dev",
				"methods": {},
				"version": 1
			},
			"evm": {
				"assembly": "    /* \"Twiiter.sol\":60:739  contract Twitter{... */\n  mstore(0x40, 0x80)\n  callvalue\n  dup1\n  iszero\n  tag_1\n  jumpi\n  0x00\n  dup1\n  revert\ntag_1:\n  pop\n  dataSize(sub_0)\n  dup1\n  dataOffset(sub_0)\n  0x00\n  codecopy\n  0x00\n  return\nstop\n\nsub_0: assembly {\n        /* \"Twiiter.sol\":60:739  contract Twitter{... */\n      mstore(0x40, 0x80)\n      callvalue\n      dup1\n      iszero\n      tag_1\n      jumpi\n      0x00\n      dup1\n      revert\n    tag_1:\n      pop\n      jumpi(tag_2, lt(calldatasize, 0x04))\n      shr(0xe0, calldataload(0x00))\n      dup1\n      0x05a1b4a9\n      eq\n      tag_3\n      jumpi\n      dup1\n      0x50ed2759\n      eq\n      tag_4\n      jumpi\n      dup1\n      0x7c9cd2bc\n      eq\n      tag_5\n      jumpi\n      dup1\n      0x9e92b093\n      eq\n      tag_6\n      jumpi\n    tag_2:\n      0x00\n      dup1\n      revert\n        /* \"Twiiter.sol\":212:252  mapping(address=>Tweets[]) public tweets */\n    tag_3:\n      tag_7\n      0x04\n      dup1\n      calldatasize\n      sub\n      dup2\n      add\n      swap1\n      tag_8\n      swap2\n      swap1\n      tag_9\n      jump\t// in\n    tag_8:\n      tag_10\n      jump\t// in\n    tag_7:\n      mload(0x40)\n      tag_11\n      swap5\n      swap4\n      swap3\n      swap2\n      swap1\n      tag_12\n      jump\t// in\n    tag_11:\n      mload(0x40)\n      dup1\n      swap2\n      sub\n      swap1\n      return\n        /* \"Twiiter.sol\":520:634  function getTweetbyId(address owner,uint8 id)public view returns(Tweets memory){... */\n    tag_4:\n      tag_13\n      0x04\n      dup1\n      calldatasize\n      sub\n      dup2\n      add\n      swap1\n      tag_14\n      swap2\n      swap1\n      tag_15\n      jump\t// in\n    tag_14:\n      tag_16\n      jump\t// in\n    tag_13:\n      mload(0x40)\n      tag_17\n      swap2\n      swap1\n      tag_18\n      jump\t// in\n    tag_17:\n      mload(0x40)\n      dup1\n      swap2\n      sub\n      swap1\n      return\n        /* \"Twiiter.sol\":257:516  function createTweet(string memory tweet)public returns(Tweets memory){... */\n    tag_5:\n      tag_19\n      0x04\n      dup1\n      calldatasize\n      sub\n      dup2\n      add\n      swap1\n      tag_20\n      swap2\n      swap1\n      tag_21\n      jump\t// in\n    tag_20:\n      tag_22\n      jump\t// in\n    tag_19:\n      mload(0x40)\n      tag_23\n      swap2\n      swap1\n      tag_18\n      jump\t// in\n    tag_23:\n      mload(0x40)\n      dup1\n      swap2\n      sub\n      swap1\n      return\n        /* \"Twiiter.sol\":636:736  function getTweets(address owner)public view returns(Tweets[] memory){... */\n    tag_6:\n      tag_24\n      0x04\n      dup1\n      calldatasize\n      sub\n      dup2\n      add\n      swap1\n      tag_25\n      swap2\n      swap1\n      tag_26\n      jump\t// in\n    tag_25:\n      tag_27\n      jump\t// in\n    tag_24:\n      mload(0x40)\n      tag_28\n      swap2\n      swap1\n      tag_29\n      jump\t// in\n    tag_28:\n      mload(0x40)\n      dup1\n      swap2\n      sub\n      swap1\n      return\n        /* \"Twiiter.sol\":212:252  mapping(address=>Tweets[]) public tweets */\n    tag_10:\n      mstore(0x20, 0x00)\n      dup2\n      0x00\n      mstore\n      keccak256(0x00, 0x40)\n      dup2\n      dup2\n      sload\n      dup2\n      lt\n      tag_30\n      jumpi\n      0x00\n      dup1\n      revert\n    tag_30:\n      swap1\n      0x00\n      mstore\n      keccak256(0x00, 0x20)\n      swap1\n      0x04\n      mul\n      add\n      0x00\n      swap2\n      pop\n      swap2\n      pop\n      pop\n      dup1\n      0x00\n      add\n      0x00\n      swap1\n      sload\n      swap1\n      0x0100\n      exp\n      swap1\n      div\n      0xffffffffffffffffffffffffffffffffffffffff\n      and\n      swap1\n      dup1\n      0x01\n      add\n      dup1\n      sload\n      tag_32\n      swap1\n      tag_33\n      jump\t// in\n    tag_32:\n      dup1\n      0x1f\n      add\n      0x20\n      dup1\n      swap2\n      div\n      mul\n      0x20\n      add\n      mload(0x40)\n      swap1\n      dup2\n      add\n      0x40\n      mstore\n      dup1\n      swap3\n      swap2\n      swap1\n      dup2\n      dup2\n      mstore\n      0x20\n      add\n      dup3\n      dup1\n      sload\n      tag_34\n      swap1\n      tag_33\n      jump\t// in\n    tag_34:\n      dup1\n      iszero\n      tag_35\n      jumpi\n      dup1\n      0x1f\n      lt\n      tag_36\n      jumpi\n      0x0100\n      dup1\n      dup4\n      sload\n      div\n      mul\n      dup4\n      mstore\n      swap2\n      0x20\n      add\n      swap2\n      jump(tag_35)\n    tag_36:\n      dup3\n      add\n      swap2\n      swap1\n      0x00\n      mstore\n      keccak256(0x00, 0x20)\n      swap1\n    tag_37:\n      dup2\n      sload\n      dup2\n      mstore\n      swap1\n      0x01\n      add\n      swap1\n      0x20\n      add\n      dup1\n      dup4\n      gt\n      tag_37\n      jumpi\n      dup3\n      swap1\n      sub\n      0x1f\n      and\n      dup3\n      add\n      swap2\n    tag_35:\n      pop\n      pop\n      pop\n      pop\n      pop\n      swap1\n      dup1\n      0x02\n      add\n      sload\n      swap1\n      dup1\n      0x03\n      add\n      0x00\n      swap1\n      sload\n      swap1\n      0x0100\n      exp\n      swap1\n      div\n      0xff\n      and\n      swap1\n      pop\n      dup5\n      jump\t// out\n        /* \"Twiiter.sol\":520:634  function getTweetbyId(address owner,uint8 id)public view returns(Tweets memory){... */\n    tag_16:\n        /* \"Twiiter.sol\":585:598  Tweets memory */\n      tag_38\n      tag_39\n      jump\t// in\n    tag_38:\n        /* \"Twiiter.sol\":613:619  tweets */\n      0x00\n        /* \"Twiiter.sol\":613:626  tweets[owner] */\n      dup1\n        /* \"Twiiter.sol\":620:625  owner */\n      dup5\n        /* \"Twiiter.sol\":613:626  tweets[owner] */\n      0xffffffffffffffffffffffffffffffffffffffff\n      and\n      0xffffffffffffffffffffffffffffffffffffffff\n      and\n      dup2\n      mstore\n      0x20\n      add\n      swap1\n      dup2\n      mstore\n      0x20\n      add\n      0x00\n      keccak256\n        /* \"Twiiter.sol\":627:629  id */\n      dup3\n        /* \"Twiiter.sol\":613:630  tweets[owner][id] */\n      0xff\n      and\n      dup2\n      sload\n      dup2\n      lt\n      tag_41\n      jumpi\n      tag_42\n      tag_43\n      jump\t// in\n    tag_42:\n    tag_41:\n      swap1\n      0x00\n      mstore\n      keccak256(0x00, 0x20)\n      swap1\n      0x04\n      mul\n      add\n        /* \"Twiiter.sol\":606:630  return tweets[owner][id] */\n      mload(0x40)\n      dup1\n      0x80\n      add\n      0x40\n      mstore\n      swap1\n      dup2\n      0x00\n      dup3\n      add\n      0x00\n      swap1\n      sload\n      swap1\n      0x0100\n      exp\n      swap1\n      div\n      0xffffffffffffffffffffffffffffffffffffffff\n      and\n      0xffffffffffffffffffffffffffffffffffffffff\n      and\n      0xffffffffffffffffffffffffffffffffffffffff\n      and\n      dup2\n      mstore\n      0x20\n      add\n      0x01\n      dup3\n      add\n      dup1\n      sload\n      tag_45\n      swap1\n      tag_33\n      jump\t// in\n    tag_45:\n      dup1\n      0x1f\n      add\n      0x20\n      dup1\n      swap2\n      div\n      mul\n      0x20\n      add\n      mload(0x40)\n      swap1\n      dup2\n      add\n      0x40\n      mstore\n      dup1\n      swap3\n      swap2\n      swap1\n      dup2\n      dup2\n      mstore\n      0x20\n      add\n      dup3\n      dup1\n      sload\n      tag_46\n      swap1\n      tag_33\n      jump\t// in\n    tag_46:\n      dup1\n      iszero\n      tag_47\n      jumpi\n      dup1\n      0x1f\n      lt\n      tag_48\n      jumpi\n      0x0100\n      dup1\n      dup4\n      sload\n      div\n      mul\n      dup4\n      mstore\n      swap2\n      0x20\n      add\n      swap2\n      jump(tag_47)\n    tag_48:\n      dup3\n      add\n      swap2\n      swap1\n      0x00\n      mstore\n      keccak256(0x00, 0x20)\n      swap1\n    tag_49:\n      dup2\n      sload\n      dup2\n      mstore\n      swap1\n      0x01\n      add\n      swap1\n      0x20\n      add\n      dup1\n      dup4\n      gt\n      tag_49\n      jumpi\n      dup3\n      swap1\n      sub\n      0x1f\n      and\n      dup3\n      add\n      swap2\n    tag_47:\n      pop\n      pop\n      pop\n      pop\n      pop\n      dup2\n      mstore\n      0x20\n      add\n      0x02\n      dup3\n      add\n      sload\n      dup2\n      mstore\n      0x20\n      add\n      0x03\n      dup3\n      add\n      0x00\n      swap1\n      sload\n      swap1\n      0x0100\n      exp\n      swap1\n      div\n      0xff\n      and\n      0xff\n      and\n      0xff\n      and\n      dup2\n      mstore\n      pop\n      pop\n      swap1\n      pop\n        /* \"Twiiter.sol\":520:634  function getTweetbyId(address owner,uint8 id)public view returns(Tweets memory){... */\n      swap3\n      swap2\n      pop\n      pop\n      jump\t// out\n        /* \"Twiiter.sol\":257:516  function createTweet(string memory tweet)public returns(Tweets memory){... */\n    tag_22:\n        /* \"Twiiter.sol\":313:326  Tweets memory */\n      tag_50\n      tag_39\n      jump\t// in\n    tag_50:\n        /* \"Twiiter.sol\":330:352  Tweets memory newTweet */\n      0x00\n        /* \"Twiiter.sol\":353:454  Tweets({... */\n      mload(0x40)\n      dup1\n      0x80\n      add\n      0x40\n      mstore\n      dup1\n        /* \"Twiiter.sol\":374:384  msg.sender */\n      caller\n        /* \"Twiiter.sol\":353:454  Tweets({... */\n      0xffffffffffffffffffffffffffffffffffffffff\n      and\n      dup2\n      mstore\n      0x20\n      add\n        /* \"Twiiter.sol\":399:404  tweet */\n      dup5\n        /* \"Twiiter.sol\":353:454  Tweets({... */\n      dup2\n      mstore\n      0x20\n      add\n        /* \"Twiiter.sol\":421:436  block.timestamp */\n      timestamp\n        /* \"Twiiter.sol\":353:454  Tweets({... */\n      dup2\n      mstore\n      0x20\n      add\n        /* \"Twiiter.sol\":449:450  0 */\n      0x00\n        /* \"Twiiter.sol\":353:454  Tweets({... */\n      0xff\n      and\n      dup2\n      mstore\n      pop\n        /* \"Twiiter.sol\":330:454  Tweets memory newTweet=Tweets({... */\n      swap1\n      pop\n        /* \"Twiiter.sol\":459:465  tweets */\n      0x00\n        /* \"Twiiter.sol\":459:477  tweets[msg.sender] */\n      dup1\n        /* \"Twiiter.sol\":466:476  msg.sender */\n      caller\n        /* \"Twiiter.sol\":459:477  tweets[msg.sender] */\n      0xffffffffffffffffffffffffffffffffffffffff\n      and\n      0xffffffffffffffffffffffffffffffffffffffff\n      and\n      dup2\n      mstore\n      0x20\n      add\n      swap1\n      dup2\n      mstore\n      0x20\n      add\n      0x00\n      keccak256\n        /* \"Twiiter.sol\":483:491  newTweet */\n      dup2\n        /* \"Twiiter.sol\":459:492  tweets[msg.sender].push(newTweet) */\n      swap1\n      dup1\n      0x01\n      dup2\n      sload\n      add\n      dup1\n      dup3\n      sstore\n      dup1\n      swap2\n      pop\n      pop\n      0x01\n      swap1\n      sub\n      swap1\n      0x00\n      mstore\n      keccak256(0x00, 0x20)\n      swap1\n      0x04\n      mul\n      add\n      0x00\n      swap1\n      swap2\n      swap1\n      swap2\n      swap1\n      swap2\n      pop\n      0x00\n      dup3\n      add\n      mload\n      dup2\n      0x00\n      add\n      exp(0x0100, 0x00)\n      dup2\n      sload\n      dup2\n      0xffffffffffffffffffffffffffffffffffffffff\n      mul\n      not\n      and\n      swap1\n      dup4\n      0xffffffffffffffffffffffffffffffffffffffff\n      and\n      mul\n      or\n      swap1\n      sstore\n      pop\n      0x20\n      dup3\n      add\n      mload\n      dup2\n      0x01\n      add\n      swap1\n      dup2\n      tag_53\n      swap2\n      swap1\n      tag_54\n      jump\t// in\n    tag_53:\n      pop\n      0x40\n      dup3\n      add\n      mload\n      dup2\n      0x02\n      add\n      sstore\n      0x60\n      dup3\n      add\n      mload\n      dup2\n      0x03\n      add\n      exp(0x0100, 0x00)\n      dup2\n      sload\n      dup2\n      0xff\n      mul\n      not\n      and\n      swap1\n      dup4\n      0xff\n      and\n      mul\n      or\n      swap1\n      sstore\n      pop\n      pop\n      pop\n        /* \"Twiiter.sol\":502:510  newTweet */\n      dup1\n        /* \"Twiiter.sol\":495:510  return newTweet */\n      swap2\n      pop\n      pop\n        /* \"Twiiter.sol\":257:516  function createTweet(string memory tweet)public returns(Tweets memory){... */\n      swap2\n      swap1\n      pop\n      jump\t// out\n        /* \"Twiiter.sol\":636:736  function getTweets(address owner)public view returns(Tweets[] memory){... */\n    tag_27:\n        /* \"Twiiter.sol\":689:704  Tweets[] memory */\n      0x60\n        /* \"Twiiter.sol\":719:725  tweets */\n      0x00\n        /* \"Twiiter.sol\":719:732  tweets[owner] */\n      dup1\n        /* \"Twiiter.sol\":726:731  owner */\n      dup4\n        /* \"Twiiter.sol\":719:732  tweets[owner] */\n      0xffffffffffffffffffffffffffffffffffffffff\n      and\n      0xffffffffffffffffffffffffffffffffffffffff\n      and\n      dup2\n      mstore\n      0x20\n      add\n      swap1\n      dup2\n      mstore\n      0x20\n      add\n      0x00\n      keccak256\n        /* \"Twiiter.sol\":712:732  return tweets[owner] */\n      dup1\n      sload\n      dup1\n      0x20\n      mul\n      0x20\n      add\n      mload(0x40)\n      swap1\n      dup2\n      add\n      0x40\n      mstore\n      dup1\n      swap3\n      swap2\n      swap1\n      dup2\n      dup2\n      mstore\n      0x20\n      add\n      0x00\n      swap1\n    tag_56:\n      dup3\n      dup3\n      lt\n      iszero\n      tag_57\n      jumpi\n      dup4\n      dup3\n      swap1\n      0x00\n      mstore\n      keccak256(0x00, 0x20)\n      swap1\n      0x04\n      mul\n      add\n      mload(0x40)\n      dup1\n      0x80\n      add\n      0x40\n      mstore\n      swap1\n      dup2\n      0x00\n      dup3\n      add\n      0x00\n      swap1\n      sload\n      swap1\n      0x0100\n      exp\n      swap1\n      div\n      0xffffffffffffffffffffffffffffffffffffffff\n      and\n      0xffffffffffffffffffffffffffffffffffffffff\n      and\n      0xffffffffffffffffffffffffffffffffffffffff\n      and\n      dup2\n      mstore\n      0x20\n      add\n      0x01\n      dup3\n      add\n      dup1\n      sload\n      tag_59\n      swap1\n      tag_33\n      jump\t// in\n    tag_59:\n      dup1\n      0x1f\n      add\n      0x20\n      dup1\n      swap2\n      div\n      mul\n      0x20\n      add\n      mload(0x40)\n      swap1\n      dup2\n      add\n      0x40\n      mstore\n      dup1\n      swap3\n      swap2\n      swap1\n      dup2\n      dup2\n      mstore\n      0x20\n      add\n      dup3\n      dup1\n      sload\n      tag_60\n      swap1\n      tag_33\n      jump\t// in\n    tag_60:\n      dup1\n      iszero\n      tag_61\n      jumpi\n      dup1\n      0x1f\n      lt\n      tag_62\n      jumpi\n      0x0100\n      dup1\n      dup4\n      sload\n      div\n      mul\n      dup4\n      mstore\n      swap2\n      0x20\n      add\n      swap2\n      jump(tag_61)\n    tag_62:\n      dup3\n      add\n      swap2\n      swap1\n      0x00\n      mstore\n      keccak256(0x00, 0x20)\n      swap1\n    tag_63:\n      dup2\n      sload\n      dup2\n      mstore\n      swap1\n      0x01\n      add\n      swap1\n      0x20\n      add\n      dup1\n      dup4\n      gt\n      tag_63\n      jumpi\n      dup3\n      swap1\n      sub\n      0x1f\n      and\n      dup3\n      add\n      swap2\n    tag_61:\n      pop\n      pop\n      pop\n      pop\n      pop\n      dup2\n      mstore\n      0x20\n      add\n      0x02\n      dup3\n      add\n      sload\n      dup2\n      mstore\n      0x20\n      add\n      0x03\n      dup3\n      add\n      0x00\n      swap1\n      sload\n      swap1\n      0x0100\n      exp\n      swap1\n      div\n      0xff\n      and\n      0xff\n      and\n      0xff\n      and\n      dup2\n      mstore\n      pop\n      pop\n      dup2\n      mstore\n      0x20\n      add\n      swap1\n      0x01\n      add\n      swap1\n      jump(tag_56)\n    tag_57:\n      pop\n      pop\n      pop\n      pop\n      swap1\n      pop\n        /* \"Twiiter.sol\":636:736  function getTweets(address owner)public view returns(Tweets[] memory){... */\n      swap2\n      swap1\n      pop\n      jump\t// out\n    tag_39:\n      mload(0x40)\n      dup1\n      0x80\n      add\n      0x40\n      mstore\n      dup1\n      and(0xffffffffffffffffffffffffffffffffffffffff, 0x00)\n      dup2\n      mstore\n      0x20\n      add\n      0x60\n      dup2\n      mstore\n      0x20\n      add\n      0x00\n      dup2\n      mstore\n      0x20\n      add\n      and(0xff, 0x00)\n      dup2\n      mstore\n      pop\n      swap1\n      jump\t// out\n        /* \"#utility.yul\":7:82   */\n    tag_64:\n        /* \"#utility.yul\":40:46   */\n      0x00\n        /* \"#utility.yul\":73:75   */\n      0x40\n        /* \"#utility.yul\":67:76   */\n      mload\n        /* \"#utility.yul\":57:76   */\n      swap1\n      pop\n        /* \"#utility.yul\":7:82   */\n      swap1\n      jump\t// out\n        /* \"#utility.yul\":88:205   */\n    tag_65:\n        /* \"#utility.yul\":197:198   */\n      0x00\n        /* \"#utility.yul\":194:195   */\n      dup1\n        /* \"#utility.yul\":187:199   */\n      revert\n        /* \"#utility.yul\":211:328   */\n    tag_66:\n        /* \"#utility.yul\":320:321   */\n      0x00\n        /* \"#utility.yul\":317:318   */\n      dup1\n        /* \"#utility.yul\":310:322   */\n      revert\n        /* \"#utility.yul\":334:460   */\n    tag_67:\n        /* \"#utility.yul\":371:378   */\n      0x00\n        /* \"#utility.yul\":411:453   */\n      0xffffffffffffffffffffffffffffffffffffffff\n        /* \"#utility.yul\":404:409   */\n      dup3\n        /* \"#utility.yul\":400:454   */\n      and\n        /* \"#utility.yul\":389:454   */\n      swap1\n      pop\n        /* \"#utility.yul\":334:460   */\n      swap2\n      swap1\n      pop\n      jump\t// out\n        /* \"#utility.yul\":466:562   */\n    tag_68:\n        /* \"#utility.yul\":503:510   */\n      0x00\n        /* \"#utility.yul\":532:556   */\n      tag_129\n        /* \"#utility.yul\":550:555   */\n      dup3\n        /* \"#utility.yul\":532:556   */\n      tag_67\n      jump\t// in\n    tag_129:\n        /* \"#utility.yul\":521:556   */\n      swap1\n      pop\n        /* \"#utility.yul\":466:562   */\n      swap2\n      swap1\n      pop\n      jump\t// out\n        /* \"#utility.yul\":568:690   */\n    tag_69:\n        /* \"#utility.yul\":641:665   */\n      tag_131\n        /* \"#utility.yul\":659:664   */\n      dup2\n        /* \"#utility.yul\":641:665   */\n      tag_68\n      jump\t// in\n    tag_131:\n        /* \"#utility.yul\":634:639   */\n      dup2\n        /* \"#utility.yul\":631:666   */\n      eq\n        /* \"#utility.yul\":621:684   */\n      tag_132\n      jumpi\n        /* \"#utility.yul\":680:681   */\n      0x00\n        /* \"#utility.yul\":677:678   */\n      dup1\n        /* \"#utility.yul\":670:682   */\n      revert\n        /* \"#utility.yul\":621:684   */\n    tag_132:\n        /* \"#utility.yul\":568:690   */\n      pop\n      jump\t// out\n        /* \"#utility.yul\":696:835   */\n    tag_70:\n        /* \"#utility.yul\":742:747   */\n      0x00\n        /* \"#utility.yul\":780:786   */\n      dup2\n        /* \"#utility.yul\":767:787   */\n      calldataload\n        /* \"#utility.yul\":758:787   */\n      swap1\n      pop\n        /* \"#utility.yul\":796:829   */\n      tag_134\n        /* \"#utility.yul\":823:828   */\n      dup2\n        /* \"#utility.yul\":796:829   */\n      tag_69\n      jump\t// in\n    tag_134:\n        /* \"#utility.yul\":696:835   */\n      swap3\n      swap2\n      pop\n      pop\n      jump\t// out\n        /* \"#utility.yul\":841:918   */\n    tag_71:\n        /* \"#utility.yul\":878:885   */\n      0x00\n        /* \"#utility.yul\":907:912   */\n      dup2\n        /* \"#utility.yul\":896:912   */\n      swap1\n      pop\n        /* \"#utility.yul\":841:918   */\n      swap2\n      swap1\n      pop\n      jump\t// out\n        /* \"#utility.yul\":924:1046   */\n    tag_72:\n        /* \"#utility.yul\":997:1021   */\n      tag_137\n        /* \"#utility.yul\":1015:1020   */\n      dup2\n        /* \"#utility.yul\":997:1021   */\n      tag_71\n      jump\t// in\n    tag_137:\n        /* \"#utility.yul\":990:995   */\n      dup2\n        /* \"#utility.yul\":987:1022   */\n      eq\n        /* \"#utility.yul\":977:1040   */\n      tag_138\n      jumpi\n        /* \"#utility.yul\":1036:1037   */\n      0x00\n        /* \"#utility.yul\":1033:1034   */\n      dup1\n        /* \"#utility.yul\":1026:1038   */\n      revert\n        /* \"#utility.yul\":977:1040   */\n    tag_138:\n        /* \"#utility.yul\":924:1046   */\n      pop\n      jump\t// out\n        /* \"#utility.yul\":1052:1191   */\n    tag_73:\n        /* \"#utility.yul\":1098:1103   */\n      0x00\n        /* \"#utility.yul\":1136:1142   */\n      dup2\n        /* \"#utility.yul\":1123:1143   */\n      calldataload\n        /* \"#utility.yul\":1114:1143   */\n      swap1\n      pop\n        /* \"#utility.yul\":1152:1185   */\n      tag_140\n        /* \"#utility.yul\":1179:1184   */\n      dup2\n        /* \"#utility.yul\":1152:1185   */\n      tag_72\n      jump\t// in\n    tag_140:\n        /* \"#utility.yul\":1052:1191   */\n      swap3\n      swap2\n      pop\n      pop\n      jump\t// out\n        /* \"#utility.yul\":1197:1671   */\n    tag_9:\n        /* \"#utility.yul\":1265:1271   */\n      0x00\n        /* \"#utility.yul\":1273:1279   */\n      dup1\n        /* \"#utility.yul\":1322:1324   */\n      0x40\n        /* \"#utility.yul\":1310:1319   */\n      dup4\n        /* \"#utility.yul\":1301:1308   */\n      dup6\n        /* \"#utility.yul\":1297:1320   */\n      sub\n        /* \"#utility.yul\":1293:1325   */\n      slt\n        /* \"#utility.yul\":1290:1409   */\n      iszero\n      tag_142\n      jumpi\n        /* \"#utility.yul\":1328:1407   */\n      tag_143\n      tag_65\n      jump\t// in\n    tag_143:\n        /* \"#utility.yul\":1290:1409   */\n    tag_142:\n        /* \"#utility.yul\":1448:1449   */\n      0x00\n        /* \"#utility.yul\":1473:1526   */\n      tag_144\n        /* \"#utility.yul\":1518:1525   */\n      dup6\n        /* \"#utility.yul\":1509:1515   */\n      dup3\n        /* \"#utility.yul\":1498:1507   */\n      dup7\n        /* \"#utility.yul\":1494:1516   */\n      add\n        /* \"#utility.yul\":1473:1526   */\n      tag_70\n      jump\t// in\n    tag_144:\n        /* \"#utility.yul\":1463:1526   */\n      swap3\n      pop\n        /* \"#utility.yul\":1419:1536   */\n      pop\n        /* \"#utility.yul\":1575:1577   */\n      0x20\n        /* \"#utility.yul\":1601:1654   */\n      tag_145\n        /* \"#utility.yul\":1646:1653   */\n      dup6\n        /* \"#utility.yul\":1637:1643   */\n      dup3\n        /* \"#utility.yul\":1626:1635   */\n      dup7\n        /* \"#utility.yul\":1622:1644   */\n      add\n        /* \"#utility.yul\":1601:1654   */\n      tag_73\n      jump\t// in\n    tag_145:\n        /* \"#utility.yul\":1591:1654   */\n      swap2\n      pop\n        /* \"#utility.yul\":1546:1664   */\n      pop\n        /* \"#utility.yul\":1197:1671   */\n      swap3\n      pop\n      swap3\n      swap1\n      pop\n      jump\t// out\n        /* \"#utility.yul\":1677:1795   */\n    tag_74:\n        /* \"#utility.yul\":1764:1788   */\n      tag_147\n        /* \"#utility.yul\":1782:1787   */\n      dup2\n        /* \"#utility.yul\":1764:1788   */\n      tag_68\n      jump\t// in\n    tag_147:\n        /* \"#utility.yul\":1759:1762   */\n      dup3\n        /* \"#utility.yul\":1752:1789   */\n      mstore\n        /* \"#utility.yul\":1677:1795   */\n      pop\n      pop\n      jump\t// out\n        /* \"#utility.yul\":1801:1900   */\n    tag_75:\n        /* \"#utility.yul\":1853:1859   */\n      0x00\n        /* \"#utility.yul\":1887:1892   */\n      dup2\n        /* \"#utility.yul\":1881:1893   */\n      mload\n        /* \"#utility.yul\":1871:1893   */\n      swap1\n      pop\n        /* \"#utility.yul\":1801:1900   */\n      swap2\n      swap1\n      pop\n      jump\t// out\n        /* \"#utility.yul\":1906:2075   */\n    tag_76:\n        /* \"#utility.yul\":1990:2001   */\n      0x00\n        /* \"#utility.yul\":2024:2030   */\n      dup3\n        /* \"#utility.yul\":2019:2022   */\n      dup3\n        /* \"#utility.yul\":2012:2031   */\n      mstore\n        /* \"#utility.yul\":2064:2068   */\n      0x20\n        /* \"#utility.yul\":2059:2062   */\n      dup3\n        /* \"#utility.yul\":2055:2069   */\n      add\n        /* \"#utility.yul\":2040:2069   */\n      swap1\n      pop\n        /* \"#utility.yul\":1906:2075   */\n      swap3\n      swap2\n      pop\n      pop\n      jump\t// out\n        /* \"#utility.yul\":2081:2220   */\n    tag_77:\n        /* \"#utility.yul\":2170:2176   */\n      dup3\n        /* \"#utility.yul\":2165:2168   */\n      dup2\n        /* \"#utility.yul\":2160:2163   */\n      dup4\n        /* \"#utility.yul\":2154:2177   */\n      mcopy\n        /* \"#utility.yul\":2211:2212   */\n      0x00\n        /* \"#utility.yul\":2202:2208   */\n      dup4\n        /* \"#utility.yul\":2197:2200   */\n      dup4\n        /* \"#utility.yul\":2193:2209   */\n      add\n        /* \"#utility.yul\":2186:2213   */\n      mstore\n        /* \"#utility.yul\":2081:2220   */\n      pop\n      pop\n      pop\n      jump\t// out\n        /* \"#utility.yul\":2226:2328   */\n    tag_78:\n        /* \"#utility.yul\":2267:2273   */\n      0x00\n        /* \"#utility.yul\":2318:2320   */\n      0x1f\n        /* \"#utility.yul\":2314:2321   */\n      not\n        /* \"#utility.yul\":2309:2311   */\n      0x1f\n        /* \"#utility.yul\":2302:2307   */\n      dup4\n        /* \"#utility.yul\":2298:2312   */\n      add\n        /* \"#utility.yul\":2294:2322   */\n      and\n        /* \"#utility.yul\":2284:2322   */\n      swap1\n      pop\n        /* \"#utility.yul\":2226:2328   */\n      swap2\n      swap1\n      pop\n      jump\t// out\n        /* \"#utility.yul\":2334:2711   */\n    tag_79:\n        /* \"#utility.yul\":2422:2425   */\n      0x00\n        /* \"#utility.yul\":2450:2489   */\n      tag_153\n        /* \"#utility.yul\":2483:2488   */\n      dup3\n        /* \"#utility.yul\":2450:2489   */\n      tag_75\n      jump\t// in\n    tag_153:\n        /* \"#utility.yul\":2505:2576   */\n      tag_154\n        /* \"#utility.yul\":2569:2575   */\n      dup2\n        /* \"#utility.yul\":2564:2567   */\n      dup6\n        /* \"#utility.yul\":2505:2576   */\n      tag_76\n      jump\t// in\n    tag_154:\n        /* \"#utility.yul\":2498:2576   */\n      swap4\n      pop\n        /* \"#utility.yul\":2585:2650   */\n      tag_155\n        /* \"#utility.yul\":2643:2649   */\n      dup2\n        /* \"#utility.yul\":2638:2641   */\n      dup6\n        /* \"#utility.yul\":2631:2635   */\n      0x20\n        /* \"#utility.yul\":2624:2629   */\n      dup7\n        /* \"#utility.yul\":2620:2636   */\n      add\n        /* \"#utility.yul\":2585:2650   */\n      tag_77\n      jump\t// in\n    tag_155:\n        /* \"#utility.yul\":2675:2704   */\n      tag_156\n        /* \"#utility.yul\":2697:2703   */\n      dup2\n        /* \"#utility.yul\":2675:2704   */\n      tag_78\n      jump\t// in\n    tag_156:\n        /* \"#utility.yul\":2670:2673   */\n      dup5\n        /* \"#utility.yul\":2666:2705   */\n      add\n        /* \"#utility.yul\":2659:2705   */\n      swap2\n      pop\n        /* \"#utility.yul\":2426:2711   */\n      pop\n        /* \"#utility.yul\":2334:2711   */\n      swap3\n      swap2\n      pop\n      pop\n      jump\t// out\n        /* \"#utility.yul\":2717:2835   */\n    tag_80:\n        /* \"#utility.yul\":2804:2828   */\n      tag_158\n        /* \"#utility.yul\":2822:2827   */\n      dup2\n        /* \"#utility.yul\":2804:2828   */\n      tag_71\n      jump\t// in\n    tag_158:\n        /* \"#utility.yul\":2799:2802   */\n      dup3\n        /* \"#utility.yul\":2792:2829   */\n      mstore\n        /* \"#utility.yul\":2717:2835   */\n      pop\n      pop\n      jump\t// out\n        /* \"#utility.yul\":2841:2927   */\n    tag_81:\n        /* \"#utility.yul\":2876:2883   */\n      0x00\n        /* \"#utility.yul\":2916:2920   */\n      0xff\n        /* \"#utility.yul\":2909:2914   */\n      dup3\n        /* \"#utility.yul\":2905:2921   */\n      and\n        /* \"#utility.yul\":2894:2921   */\n      swap1\n      pop\n        /* \"#utility.yul\":2841:2927   */\n      swap2\n      swap1\n      pop\n      jump\t// out\n        /* \"#utility.yul\":2933:3045   */\n    tag_82:\n        /* \"#utility.yul\":3016:3038   */\n      tag_161\n        /* \"#utility.yul\":3032:3037   */\n      dup2\n        /* \"#utility.yul\":3016:3038   */\n      tag_81\n      jump\t// in\n    tag_161:\n        /* \"#utility.yul\":3011:3014   */\n      dup3\n        /* \"#utility.yul\":3004:3039   */\n      mstore\n        /* \"#utility.yul\":2933:3045   */\n      pop\n      pop\n      jump\t// out\n        /* \"#utility.yul\":3051:3687   */\n    tag_12:\n        /* \"#utility.yul\":3244:3248   */\n      0x00\n        /* \"#utility.yul\":3282:3285   */\n      0x80\n        /* \"#utility.yul\":3271:3280   */\n      dup3\n        /* \"#utility.yul\":3267:3286   */\n      add\n        /* \"#utility.yul\":3259:3286   */\n      swap1\n      pop\n        /* \"#utility.yul\":3296:3367   */\n      tag_163\n        /* \"#utility.yul\":3364:3365   */\n      0x00\n        /* \"#utility.yul\":3353:3362   */\n      dup4\n        /* \"#utility.yul\":3349:3366   */\n      add\n        /* \"#utility.yul\":3340:3346   */\n      dup8\n        /* \"#utility.yul\":3296:3367   */\n      tag_74\n      jump\t// in\n    tag_163:\n        /* \"#utility.yul\":3414:3423   */\n      dup2\n        /* \"#utility.yul\":3408:3412   */\n      dup2\n        /* \"#utility.yul\":3404:3424   */\n      sub\n        /* \"#utility.yul\":3399:3401   */\n      0x20\n        /* \"#utility.yul\":3388:3397   */\n      dup4\n        /* \"#utility.yul\":3384:3402   */\n      add\n        /* \"#utility.yul\":3377:3425   */\n      mstore\n        /* \"#utility.yul\":3442:3520   */\n      tag_164\n        /* \"#utility.yul\":3515:3519   */\n      dup2\n        /* \"#utility.yul\":3506:3512   */\n      dup7\n        /* \"#utility.yul\":3442:3520   */\n      tag_79\n      jump\t// in\n    tag_164:\n        /* \"#utility.yul\":3434:3520   */\n      swap1\n      pop\n        /* \"#utility.yul\":3530:3602   */\n      tag_165\n        /* \"#utility.yul\":3598:3600   */\n      0x40\n        /* \"#utility.yul\":3587:3596   */\n      dup4\n        /* \"#utility.yul\":3583:3601   */\n      add\n        /* \"#utility.yul\":3574:3580   */\n      dup6\n        /* \"#utility.yul\":3530:3602   */\n      tag_80\n      jump\t// in\n    tag_165:\n        /* \"#utility.yul\":3612:3680   */\n      tag_166\n        /* \"#utility.yul\":3676:3678   */\n      0x60\n        /* \"#utility.yul\":3665:3674   */\n      dup4\n        /* \"#utility.yul\":3661:3679   */\n      add\n        /* \"#utility.yul\":3652:3658   */\n      dup5\n        /* \"#utility.yul\":3612:3680   */\n      tag_82\n      jump\t// in\n    tag_166:\n        /* \"#utility.yul\":3051:3687   */\n      swap6\n      swap5\n      pop\n      pop\n      pop\n      pop\n      pop\n      jump\t// out\n        /* \"#utility.yul\":3693:3811   */\n    tag_83:\n        /* \"#utility.yul\":3764:3786   */\n      tag_168\n        /* \"#utility.yul\":3780:3785   */\n      dup2\n        /* \"#utility.yul\":3764:3786   */\n      tag_81\n      jump\t// in\n    tag_168:\n        /* \"#utility.yul\":3757:3762   */\n      dup2\n        /* \"#utility.yul\":3754:3787   */\n      eq\n        /* \"#utility.yul\":3744:3805   */\n      tag_169\n      jumpi\n        /* \"#utility.yul\":3801:3802   */\n      0x00\n        /* \"#utility.yul\":3798:3799   */\n      dup1\n        /* \"#utility.yul\":3791:3803   */\n      revert\n        /* \"#utility.yul\":3744:3805   */\n    tag_169:\n        /* \"#utility.yul\":3693:3811   */\n      pop\n      jump\t// out\n        /* \"#utility.yul\":3817:3952   */\n    tag_84:\n        /* \"#utility.yul\":3861:3866   */\n      0x00\n        /* \"#utility.yul\":3899:3905   */\n      dup2\n        /* \"#utility.yul\":3886:3906   */\n      calldataload\n        /* \"#utility.yul\":3877:3906   */\n      swap1\n      pop\n        /* \"#utility.yul\":3915:3946   */\n      tag_171\n        /* \"#utility.yul\":3940:3945   */\n      dup2\n        /* \"#utility.yul\":3915:3946   */\n      tag_83\n      jump\t// in\n    tag_171:\n        /* \"#utility.yul\":3817:3952   */\n      swap3\n      swap2\n      pop\n      pop\n      jump\t// out\n        /* \"#utility.yul\":3958:4428   */\n    tag_15:\n        /* \"#utility.yul\":4024:4030   */\n      0x00\n        /* \"#utility.yul\":4032:4038   */\n      dup1\n        /* \"#utility.yul\":4081:4083   */\n      0x40\n        /* \"#utility.yul\":4069:4078   */\n      dup4\n        /* \"#utility.yul\":4060:4067   */\n      dup6\n        /* \"#utility.yul\":4056:4079   */\n      sub\n        /* \"#utility.yul\":4052:4084   */\n      slt\n        /* \"#utility.yul\":4049:4168   */\n      iszero\n      tag_173\n      jumpi\n        /* \"#utility.yul\":4087:4166   */\n      tag_174\n      tag_65\n      jump\t// in\n    tag_174:\n        /* \"#utility.yul\":4049:4168   */\n    tag_173:\n        /* \"#utility.yul\":4207:4208   */\n      0x00\n        /* \"#utility.yul\":4232:4285   */\n      tag_175\n        /* \"#utility.yul\":4277:4284   */\n      dup6\n        /* \"#utility.yul\":4268:4274   */\n      dup3\n        /* \"#utility.yul\":4257:4266   */\n      dup7\n        /* \"#utility.yul\":4253:4275   */\n      add\n        /* \"#utility.yul\":4232:4285   */\n      tag_70\n      jump\t// in\n    tag_175:\n        /* \"#utility.yul\":4222:4285   */\n      swap3\n      pop\n        /* \"#utility.yul\":4178:4295   */\n      pop\n        /* \"#utility.yul\":4334:4336   */\n      0x20\n        /* \"#utility.yul\":4360:4411   */\n      tag_176\n        /* \"#utility.yul\":4403:4410   */\n      dup6\n        /* \"#utility.yul\":4394:4400   */\n      dup3\n        /* \"#utility.yul\":4383:4392   */\n      dup7\n        /* \"#utility.yul\":4379:4401   */\n      add\n        /* \"#utility.yul\":4360:4411   */\n      tag_84\n      jump\t// in\n    tag_176:\n        /* \"#utility.yul\":4350:4411   */\n      swap2\n      pop\n        /* \"#utility.yul\":4305:4421   */\n      pop\n        /* \"#utility.yul\":3958:4428   */\n      swap3\n      pop\n      swap3\n      swap1\n      pop\n      jump\t// out\n        /* \"#utility.yul\":4434:4542   */\n    tag_85:\n        /* \"#utility.yul\":4511:4535   */\n      tag_178\n        /* \"#utility.yul\":4529:4534   */\n      dup2\n        /* \"#utility.yul\":4511:4535   */\n      tag_68\n      jump\t// in\n    tag_178:\n        /* \"#utility.yul\":4506:4509   */\n      dup3\n        /* \"#utility.yul\":4499:4536   */\n      mstore\n        /* \"#utility.yul\":4434:4542   */\n      pop\n      pop\n      jump\t// out\n        /* \"#utility.yul\":4548:4707   */\n    tag_86:\n        /* \"#utility.yul\":4622:4633   */\n      0x00\n        /* \"#utility.yul\":4656:4662   */\n      dup3\n        /* \"#utility.yul\":4651:4654   */\n      dup3\n        /* \"#utility.yul\":4644:4663   */\n      mstore\n        /* \"#utility.yul\":4696:4700   */\n      0x20\n        /* \"#utility.yul\":4691:4694   */\n      dup3\n        /* \"#utility.yul\":4687:4701   */\n      add\n        /* \"#utility.yul\":4672:4701   */\n      swap1\n      pop\n        /* \"#utility.yul\":4548:4707   */\n      swap3\n      swap2\n      pop\n      pop\n      jump\t// out\n        /* \"#utility.yul\":4713:5070   */\n    tag_87:\n        /* \"#utility.yul\":4791:4794   */\n      0x00\n        /* \"#utility.yul\":4819:4858   */\n      tag_181\n        /* \"#utility.yul\":4852:4857   */\n      dup3\n        /* \"#utility.yul\":4819:4858   */\n      tag_75\n      jump\t// in\n    tag_181:\n        /* \"#utility.yul\":4874:4935   */\n      tag_182\n        /* \"#utility.yul\":4928:4934   */\n      dup2\n        /* \"#utility.yul\":4923:4926   */\n      dup6\n        /* \"#utility.yul\":4874:4935   */\n      tag_86\n      jump\t// in\n    tag_182:\n        /* \"#utility.yul\":4867:4935   */\n      swap4\n      pop\n        /* \"#utility.yul\":4944:5009   */\n      tag_183\n        /* \"#utility.yul\":5002:5008   */\n      dup2\n        /* \"#utility.yul\":4997:5000   */\n      dup6\n        /* \"#utility.yul\":4990:4994   */\n      0x20\n        /* \"#utility.yul\":4983:4988   */\n      dup7\n        /* \"#utility.yul\":4979:4995   */\n      add\n        /* \"#utility.yul\":4944:5009   */\n      tag_77\n      jump\t// in\n    tag_183:\n        /* \"#utility.yul\":5034:5063   */\n      tag_184\n        /* \"#utility.yul\":5056:5062   */\n      dup2\n        /* \"#utility.yul\":5034:5063   */\n      tag_78\n      jump\t// in\n    tag_184:\n        /* \"#utility.yul\":5029:5032   */\n      dup5\n        /* \"#utility.yul\":5025:5064   */\n      add\n        /* \"#utility.yul\":5018:5064   */\n      swap2\n      pop\n        /* \"#utility.yul\":4795:5070   */\n      pop\n        /* \"#utility.yul\":4713:5070   */\n      swap3\n      swap2\n      pop\n      pop\n      jump\t// out\n        /* \"#utility.yul\":5076:5184   */\n    tag_88:\n        /* \"#utility.yul\":5153:5177   */\n      tag_186\n        /* \"#utility.yul\":5171:5176   */\n      dup2\n        /* \"#utility.yul\":5153:5177   */\n      tag_71\n      jump\t// in\n    tag_186:\n        /* \"#utility.yul\":5148:5151   */\n      dup3\n        /* \"#utility.yul\":5141:5178   */\n      mstore\n        /* \"#utility.yul\":5076:5184   */\n      pop\n      pop\n      jump\t// out\n        /* \"#utility.yul\":5190:5292   */\n    tag_89:\n        /* \"#utility.yul\":5263:5285   */\n      tag_188\n        /* \"#utility.yul\":5279:5284   */\n      dup2\n        /* \"#utility.yul\":5263:5285   */\n      tag_81\n      jump\t// in\n    tag_188:\n        /* \"#utility.yul\":5258:5261   */\n      dup3\n        /* \"#utility.yul\":5251:5286   */\n      mstore\n        /* \"#utility.yul\":5190:5292   */\n      pop\n      pop\n      jump\t// out\n        /* \"#utility.yul\":5352:6307   */\n    tag_90:\n        /* \"#utility.yul\":5465:5468   */\n      0x00\n        /* \"#utility.yul\":5501:5505   */\n      0x80\n        /* \"#utility.yul\":5496:5499   */\n      dup4\n        /* \"#utility.yul\":5492:5506   */\n      add\n        /* \"#utility.yul\":5590:5594   */\n      0x00\n        /* \"#utility.yul\":5583:5588   */\n      dup4\n        /* \"#utility.yul\":5579:5595   */\n      add\n        /* \"#utility.yul\":5573:5596   */\n      mload\n        /* \"#utility.yul\":5609:5672   */\n      tag_190\n        /* \"#utility.yul\":5666:5670   */\n      0x00\n        /* \"#utility.yul\":5661:5664   */\n      dup7\n        /* \"#utility.yul\":5657:5671   */\n      add\n        /* \"#utility.yul\":5643:5655   */\n      dup3\n        /* \"#utility.yul\":5609:5672   */\n      tag_85\n      jump\t// in\n    tag_190:\n        /* \"#utility.yul\":5516:5682   */\n      pop\n        /* \"#utility.yul\":5767:5771   */\n      0x20\n        /* \"#utility.yul\":5760:5765   */\n      dup4\n        /* \"#utility.yul\":5756:5772   */\n      add\n        /* \"#utility.yul\":5750:5773   */\n      mload\n        /* \"#utility.yul\":5820:5823   */\n      dup5\n        /* \"#utility.yul\":5814:5818   */\n      dup3\n        /* \"#utility.yul\":5810:5824   */\n      sub\n        /* \"#utility.yul\":5803:5807   */\n      0x20\n        /* \"#utility.yul\":5798:5801   */\n      dup7\n        /* \"#utility.yul\":5794:5808   */\n      add\n        /* \"#utility.yul\":5787:5825   */\n      mstore\n        /* \"#utility.yul\":5846:5919   */\n      tag_191\n        /* \"#utility.yul\":5914:5918   */\n      dup3\n        /* \"#utility.yul\":5900:5912   */\n      dup3\n        /* \"#utility.yul\":5846:5919   */\n      tag_87\n      jump\t// in\n    tag_191:\n        /* \"#utility.yul\":5838:5919   */\n      swap2\n      pop\n        /* \"#utility.yul\":5692:5930   */\n      pop\n        /* \"#utility.yul\":6017:6021   */\n      0x40\n        /* \"#utility.yul\":6010:6015   */\n      dup4\n        /* \"#utility.yul\":6006:6022   */\n      add\n        /* \"#utility.yul\":6000:6023   */\n      mload\n        /* \"#utility.yul\":6036:6099   */\n      tag_192\n        /* \"#utility.yul\":6093:6097   */\n      0x40\n        /* \"#utility.yul\":6088:6091   */\n      dup7\n        /* \"#utility.yul\":6084:6098   */\n      add\n        /* \"#utility.yul\":6070:6082   */\n      dup3\n        /* \"#utility.yul\":6036:6099   */\n      tag_88\n      jump\t// in\n    tag_192:\n        /* \"#utility.yul\":5940:6109   */\n      pop\n        /* \"#utility.yul\":6192:6196   */\n      0x60\n        /* \"#utility.yul\":6185:6190   */\n      dup4\n        /* \"#utility.yul\":6181:6197   */\n      add\n        /* \"#utility.yul\":6175:6198   */\n      mload\n        /* \"#utility.yul\":6211:6270   */\n      tag_193\n        /* \"#utility.yul\":6264:6268   */\n      0x60\n        /* \"#utility.yul\":6259:6262   */\n      dup7\n        /* \"#utility.yul\":6255:6269   */\n      add\n        /* \"#utility.yul\":6241:6253   */\n      dup3\n        /* \"#utility.yul\":6211:6270   */\n      tag_89\n      jump\t// in\n    tag_193:\n        /* \"#utility.yul\":6119:6280   */\n      pop\n        /* \"#utility.yul\":6297:6301   */\n      dup1\n        /* \"#utility.yul\":6290:6301   */\n      swap2\n      pop\n        /* \"#utility.yul\":5470:6307   */\n      pop\n        /* \"#utility.yul\":5352:6307   */\n      swap3\n      swap2\n      pop\n      pop\n      jump\t// out\n        /* \"#utility.yul\":6313:6674   */\n    tag_18:\n        /* \"#utility.yul\":6450:6454   */\n      0x00\n        /* \"#utility.yul\":6488:6490   */\n      0x20\n        /* \"#utility.yul\":6477:6486   */\n      dup3\n        /* \"#utility.yul\":6473:6491   */\n      add\n        /* \"#utility.yul\":6465:6491   */\n      swap1\n      pop\n        /* \"#utility.yul\":6537:6546   */\n      dup2\n        /* \"#utility.yul\":6531:6535   */\n      dup2\n        /* \"#utility.yul\":6527:6547   */\n      sub\n        /* \"#utility.yul\":6523:6524   */\n      0x00\n        /* \"#utility.yul\":6512:6521   */\n      dup4\n        /* \"#utility.yul\":6508:6525   */\n      add\n        /* \"#utility.yul\":6501:6548   */\n      mstore\n        /* \"#utility.yul\":6565:6667   */\n      tag_195\n        /* \"#utility.yul\":6662:6666   */\n      dup2\n        /* \"#utility.yul\":6653:6659   */\n      dup5\n        /* \"#utility.yul\":6565:6667   */\n      tag_90\n      jump\t// in\n    tag_195:\n        /* \"#utility.yul\":6557:6667   */\n      swap1\n      pop\n        /* \"#utility.yul\":6313:6674   */\n      swap3\n      swap2\n      pop\n      pop\n      jump\t// out\n        /* \"#utility.yul\":6680:6797   */\n    tag_91:\n        /* \"#utility.yul\":6789:6790   */\n      0x00\n        /* \"#utility.yul\":6786:6787   */\n      dup1\n        /* \"#utility.yul\":6779:6791   */\n      revert\n        /* \"#utility.yul\":6803:6920   */\n    tag_92:\n        /* \"#utility.yul\":6912:6913   */\n      0x00\n        /* \"#utility.yul\":6909:6910   */\n      dup1\n        /* \"#utility.yul\":6902:6914   */\n      revert\n        /* \"#utility.yul\":6926:7106   */\n    tag_93:\n        /* \"#utility.yul\":6974:7051   */\n      0x4e487b7100000000000000000000000000000000000000000000000000000000\n        /* \"#utility.yul\":6971:6972   */\n      0x00\n        /* \"#utility.yul\":6964:7052   */\n      mstore\n        /* \"#utility.yul\":7071:7075   */\n      0x41\n        /* \"#utility.yul\":7068:7069   */\n      0x04\n        /* \"#utility.yul\":7061:7076   */\n      mstore\n        /* \"#utility.yul\":7095:7099   */\n      0x24\n        /* \"#utility.yul\":7092:7093   */\n      0x00\n        /* \"#utility.yul\":7085:7100   */\n      revert\n        /* \"#utility.yul\":7112:7393   */\n    tag_94:\n        /* \"#utility.yul\":7195:7222   */\n      tag_200\n        /* \"#utility.yul\":7217:7221   */\n      dup3\n        /* \"#utility.yul\":7195:7222   */\n      tag_78\n      jump\t// in\n    tag_200:\n        /* \"#utility.yul\":7187:7193   */\n      dup2\n        /* \"#utility.yul\":7183:7223   */\n      add\n        /* \"#utility.yul\":7325:7331   */\n      dup2\n        /* \"#utility.yul\":7313:7323   */\n      dup2\n        /* \"#utility.yul\":7310:7332   */\n      lt\n        /* \"#utility.yul\":7289:7307   */\n      0xffffffffffffffff\n        /* \"#utility.yul\":7277:7287   */\n      dup3\n        /* \"#utility.yul\":7274:7308   */\n      gt\n        /* \"#utility.yul\":7271:7333   */\n      or\n        /* \"#utility.yul\":7268:7356   */\n      iszero\n      tag_201\n      jumpi\n        /* \"#utility.yul\":7336:7354   */\n      tag_202\n      tag_93\n      jump\t// in\n    tag_202:\n        /* \"#utility.yul\":7268:7356   */\n    tag_201:\n        /* \"#utility.yul\":7376:7386   */\n      dup1\n        /* \"#utility.yul\":7372:7374   */\n      0x40\n        /* \"#utility.yul\":7365:7387   */\n      mstore\n        /* \"#utility.yul\":7155:7393   */\n      pop\n        /* \"#utility.yul\":7112:7393   */\n      pop\n      pop\n      jump\t// out\n        /* \"#utility.yul\":7399:7528   */\n    tag_95:\n        /* \"#utility.yul\":7433:7439   */\n      0x00\n        /* \"#utility.yul\":7460:7480   */\n      tag_204\n      tag_64\n      jump\t// in\n    tag_204:\n        /* \"#utility.yul\":7450:7480   */\n      swap1\n      pop\n        /* \"#utility.yul\":7489:7522   */\n      tag_205\n        /* \"#utility.yul\":7517:7521   */\n      dup3\n        /* \"#utility.yul\":7509:7515   */\n      dup3\n        /* \"#utility.yul\":7489:7522   */\n      tag_94\n      jump\t// in\n    tag_205:\n        /* \"#utility.yul\":7399:7528   */\n      swap2\n      swap1\n      pop\n      jump\t// out\n        /* \"#utility.yul\":7534:7842   */\n    tag_96:\n        /* \"#utility.yul\":7596:7600   */\n      0x00\n        /* \"#utility.yul\":7686:7704   */\n      0xffffffffffffffff\n        /* \"#utility.yul\":7678:7684   */\n      dup3\n        /* \"#utility.yul\":7675:7705   */\n      gt\n        /* \"#utility.yul\":7672:7728   */\n      iszero\n      tag_207\n      jumpi\n        /* \"#utility.yul\":7708:7726   */\n      tag_208\n      tag_93\n      jump\t// in\n    tag_208:\n        /* \"#utility.yul\":7672:7728   */\n    tag_207:\n        /* \"#utility.yul\":7746:7775   */\n      tag_209\n        /* \"#utility.yul\":7768:7774   */\n      dup3\n        /* \"#utility.yul\":7746:7775   */\n      tag_78\n      jump\t// in\n    tag_209:\n        /* \"#utility.yul\":7738:7775   */\n      swap1\n      pop\n        /* \"#utility.yul\":7830:7834   */\n      0x20\n        /* \"#utility.yul\":7824:7828   */\n      dup2\n        /* \"#utility.yul\":7820:7835   */\n      add\n        /* \"#utility.yul\":7812:7835   */\n      swap1\n      pop\n        /* \"#utility.yul\":7534:7842   */\n      swap2\n      swap1\n      pop\n      jump\t// out\n        /* \"#utility.yul\":7848:7996   */\n    tag_97:\n        /* \"#utility.yul\":7946:7952   */\n      dup3\n        /* \"#utility.yul\":7941:7944   */\n      dup2\n        /* \"#utility.yul\":7936:7939   */\n      dup4\n        /* \"#utility.yul\":7923:7953   */\n      calldatacopy\n        /* \"#utility.yul\":7987:7988   */\n      0x00\n        /* \"#utility.yul\":7978:7984   */\n      dup4\n        /* \"#utility.yul\":7973:7976   */\n      dup4\n        /* \"#utility.yul\":7969:7985   */\n      add\n        /* \"#utility.yul\":7962:7989   */\n      mstore\n        /* \"#utility.yul\":7848:7996   */\n      pop\n      pop\n      pop\n      jump\t// out\n        /* \"#utility.yul\":8002:8427   */\n    tag_98:\n        /* \"#utility.yul\":8080:8085   */\n      0x00\n        /* \"#utility.yul\":8105:8171   */\n      tag_212\n        /* \"#utility.yul\":8121:8170   */\n      tag_213\n        /* \"#utility.yul\":8163:8169   */\n      dup5\n        /* \"#utility.yul\":8121:8170   */\n      tag_96\n      jump\t// in\n    tag_213:\n        /* \"#utility.yul\":8105:8171   */\n      tag_95\n      jump\t// in\n    tag_212:\n        /* \"#utility.yul\":8096:8171   */\n      swap1\n      pop\n        /* \"#utility.yul\":8194:8200   */\n      dup3\n        /* \"#utility.yul\":8187:8192   */\n      dup2\n        /* \"#utility.yul\":8180:8201   */\n      mstore\n        /* \"#utility.yul\":8232:8236   */\n      0x20\n        /* \"#utility.yul\":8225:8230   */\n      dup2\n        /* \"#utility.yul\":8221:8237   */\n      add\n        /* \"#utility.yul\":8270:8273   */\n      dup5\n        /* \"#utility.yul\":8261:8267   */\n      dup5\n        /* \"#utility.yul\":8256:8259   */\n      dup5\n        /* \"#utility.yul\":8252:8268   */\n      add\n        /* \"#utility.yul\":8249:8274   */\n      gt\n        /* \"#utility.yul\":8246:8358   */\n      iszero\n      tag_214\n      jumpi\n        /* \"#utility.yul\":8277:8356   */\n      tag_215\n      tag_92\n      jump\t// in\n    tag_215:\n        /* \"#utility.yul\":8246:8358   */\n    tag_214:\n        /* \"#utility.yul\":8367:8421   */\n      tag_216\n        /* \"#utility.yul\":8414:8420   */\n      dup5\n        /* \"#utility.yul\":8409:8412   */\n      dup3\n        /* \"#utility.yul\":8404:8407   */\n      dup6\n        /* \"#utility.yul\":8367:8421   */\n      tag_97\n      jump\t// in\n    tag_216:\n        /* \"#utility.yul\":8086:8427   */\n      pop\n        /* \"#utility.yul\":8002:8427   */\n      swap4\n      swap3\n      pop\n      pop\n      pop\n      jump\t// out\n        /* \"#utility.yul\":8447:8787   */\n    tag_99:\n        /* \"#utility.yul\":8503:8508   */\n      0x00\n        /* \"#utility.yul\":8552:8555   */\n      dup3\n        /* \"#utility.yul\":8545:8549   */\n      0x1f\n        /* \"#utility.yul\":8537:8543   */\n      dup4\n        /* \"#utility.yul\":8533:8550   */\n      add\n        /* \"#utility.yul\":8529:8556   */\n      slt\n        /* \"#utility.yul\":8519:8641   */\n      tag_218\n      jumpi\n        /* \"#utility.yul\":8560:8639   */\n      tag_219\n      tag_91\n      jump\t// in\n    tag_219:\n        /* \"#utility.yul\":8519:8641   */\n    tag_218:\n        /* \"#utility.yul\":8677:8683   */\n      dup2\n        /* \"#utility.yul\":8664:8684   */\n      calldataload\n        /* \"#utility.yul\":8702:8781   */\n      tag_220\n        /* \"#utility.yul\":8777:8780   */\n      dup5\n        /* \"#utility.yul\":8769:8775   */\n      dup3\n        /* \"#utility.yul\":8762:8766   */\n      0x20\n        /* \"#utility.yul\":8754:8760   */\n      dup7\n        /* \"#utility.yul\":8750:8767   */\n      add\n        /* \"#utility.yul\":8702:8781   */\n      tag_98\n      jump\t// in\n    tag_220:\n        /* \"#utility.yul\":8693:8781   */\n      swap2\n      pop\n        /* \"#utility.yul\":8509:8787   */\n      pop\n        /* \"#utility.yul\":8447:8787   */\n      swap3\n      swap2\n      pop\n      pop\n      jump\t// out\n        /* \"#utility.yul\":8793:9302   */\n    tag_21:\n        /* \"#utility.yul\":8862:8868   */\n      0x00\n        /* \"#utility.yul\":8911:8913   */\n      0x20\n        /* \"#utility.yul\":8899:8908   */\n      dup3\n        /* \"#utility.yul\":8890:8897   */\n      dup5\n        /* \"#utility.yul\":8886:8909   */\n      sub\n        /* \"#utility.yul\":8882:8914   */\n      slt\n        /* \"#utility.yul\":8879:8998   */\n      iszero\n      tag_222\n      jumpi\n        /* \"#utility.yul\":8917:8996   */\n      tag_223\n      tag_65\n      jump\t// in\n    tag_223:\n        /* \"#utility.yul\":8879:8998   */\n    tag_222:\n        /* \"#utility.yul\":9065:9066   */\n      0x00\n        /* \"#utility.yul\":9054:9063   */\n      dup3\n        /* \"#utility.yul\":9050:9067   */\n      add\n        /* \"#utility.yul\":9037:9068   */\n      calldataload\n        /* \"#utility.yul\":9095:9113   */\n      0xffffffffffffffff\n        /* \"#utility.yul\":9087:9093   */\n      dup2\n        /* \"#utility.yul\":9084:9114   */\n      gt\n        /* \"#utility.yul\":9081:9198   */\n      iszero\n      tag_224\n      jumpi\n        /* \"#utility.yul\":9117:9196   */\n      tag_225\n      tag_66\n      jump\t// in\n    tag_225:\n        /* \"#utility.yul\":9081:9198   */\n    tag_224:\n        /* \"#utility.yul\":9222:9285   */\n      tag_226\n        /* \"#utility.yul\":9277:9284   */\n      dup5\n        /* \"#utility.yul\":9268:9274   */\n      dup3\n        /* \"#utility.yul\":9257:9266   */\n      dup6\n        /* \"#utility.yul\":9253:9275   */\n      add\n        /* \"#utility.yul\":9222:9285   */\n      tag_99\n      jump\t// in\n    tag_226:\n        /* \"#utility.yul\":9212:9285   */\n      swap2\n      pop\n        /* \"#utility.yul\":9008:9295   */\n      pop\n        /* \"#utility.yul\":8793:9302   */\n      swap3\n      swap2\n      pop\n      pop\n      jump\t// out\n        /* \"#utility.yul\":9308:9637   */\n    tag_26:\n        /* \"#utility.yul\":9367:9373   */\n      0x00\n        /* \"#utility.yul\":9416:9418   */\n      0x20\n        /* \"#utility.yul\":9404:9413   */\n      dup3\n        /* \"#utility.yul\":9395:9402   */\n      dup5\n        /* \"#utility.yul\":9391:9414   */\n      sub\n        /* \"#utility.yul\":9387:9419   */\n      slt\n        /* \"#utility.yul\":9384:9503   */\n      iszero\n      tag_228\n      jumpi\n        /* \"#utility.yul\":9422:9501   */\n      tag_229\n      tag_65\n      jump\t// in\n    tag_229:\n        /* \"#utility.yul\":9384:9503   */\n    tag_228:\n        /* \"#utility.yul\":9542:9543   */\n      0x00\n        /* \"#utility.yul\":9567:9620   */\n      tag_230\n        /* \"#utility.yul\":9612:9619   */\n      dup5\n        /* \"#utility.yul\":9603:9609   */\n      dup3\n        /* \"#utility.yul\":9592:9601   */\n      dup6\n        /* \"#utility.yul\":9588:9610   */\n      add\n        /* \"#utility.yul\":9567:9620   */\n      tag_70\n      jump\t// in\n    tag_230:\n        /* \"#utility.yul\":9557:9620   */\n      swap2\n      pop\n        /* \"#utility.yul\":9513:9630   */\n      pop\n        /* \"#utility.yul\":9308:9637   */\n      swap3\n      swap2\n      pop\n      pop\n      jump\t// out\n        /* \"#utility.yul\":9643:9779   */\n    tag_100:\n        /* \"#utility.yul\":9732:9738   */\n      0x00\n        /* \"#utility.yul\":9766:9771   */\n      dup2\n        /* \"#utility.yul\":9760:9772   */\n      mload\n        /* \"#utility.yul\":9750:9772   */\n      swap1\n      pop\n        /* \"#utility.yul\":9643:9779   */\n      swap2\n      swap1\n      pop\n      jump\t// out\n        /* \"#utility.yul\":9785:9991   */\n    tag_101:\n        /* \"#utility.yul\":9906:9917   */\n      0x00\n        /* \"#utility.yul\":9940:9946   */\n      dup3\n        /* \"#utility.yul\":9935:9938   */\n      dup3\n        /* \"#utility.yul\":9928:9947   */\n      mstore\n        /* \"#utility.yul\":9980:9984   */\n      0x20\n        /* \"#utility.yul\":9975:9978   */\n      dup3\n        /* \"#utility.yul\":9971:9985   */\n      add\n        /* \"#utility.yul\":9956:9985   */\n      swap1\n      pop\n        /* \"#utility.yul\":9785:9991   */\n      swap3\n      swap2\n      pop\n      pop\n      jump\t// out\n        /* \"#utility.yul\":9997:10151   */\n    tag_102:\n        /* \"#utility.yul\":10086:10090   */\n      0x00\n        /* \"#utility.yul\":10109:10112   */\n      dup2\n        /* \"#utility.yul\":10101:10112   */\n      swap1\n      pop\n        /* \"#utility.yul\":10139:10143   */\n      0x20\n        /* \"#utility.yul\":10134:10137   */\n      dup3\n        /* \"#utility.yul\":10130:10144   */\n      add\n        /* \"#utility.yul\":10122:10144   */\n      swap1\n      pop\n        /* \"#utility.yul\":9997:10151   */\n      swap2\n      swap1\n      pop\n      jump\t// out\n        /* \"#utility.yul\":10211:11156   */\n    tag_103:\n        /* \"#utility.yul\":10314:10317   */\n      0x00\n        /* \"#utility.yul\":10350:10354   */\n      0x80\n        /* \"#utility.yul\":10345:10348   */\n      dup4\n        /* \"#utility.yul\":10341:10355   */\n      add\n        /* \"#utility.yul\":10439:10443   */\n      0x00\n        /* \"#utility.yul\":10432:10437   */\n      dup4\n        /* \"#utility.yul\":10428:10444   */\n      add\n        /* \"#utility.yul\":10422:10445   */\n      mload\n        /* \"#utility.yul\":10458:10521   */\n      tag_235\n        /* \"#utility.yul\":10515:10519   */\n      0x00\n        /* \"#utility.yul\":10510:10513   */\n      dup7\n        /* \"#utility.yul\":10506:10520   */\n      add\n        /* \"#utility.yul\":10492:10504   */\n      dup3\n        /* \"#utility.yul\":10458:10521   */\n      tag_85\n      jump\t// in\n    tag_235:\n        /* \"#utility.yul\":10365:10531   */\n      pop\n        /* \"#utility.yul\":10616:10620   */\n      0x20\n        /* \"#utility.yul\":10609:10614   */\n      dup4\n        /* \"#utility.yul\":10605:10621   */\n      add\n        /* \"#utility.yul\":10599:10622   */\n      mload\n        /* \"#utility.yul\":10669:10672   */\n      dup5\n        /* \"#utility.yul\":10663:10667   */\n      dup3\n        /* \"#utility.yul\":10659:10673   */\n      sub\n        /* \"#utility.yul\":10652:10656   */\n      0x20\n        /* \"#utility.yul\":10647:10650   */\n      dup7\n        /* \"#utility.yul\":10643:10657   */\n      add\n        /* \"#utility.yul\":10636:10674   */\n      mstore\n        /* \"#utility.yul\":10695:10768   */\n      tag_236\n        /* \"#utility.yul\":10763:10767   */\n      dup3\n        /* \"#utility.yul\":10749:10761   */\n      dup3\n        /* \"#utility.yul\":10695:10768   */\n      tag_87\n      jump\t// in\n    tag_236:\n        /* \"#utility.yul\":10687:10768   */\n      swap2\n      pop\n        /* \"#utility.yul\":10541:10779   */\n      pop\n        /* \"#utility.yul\":10866:10870   */\n      0x40\n        /* \"#utility.yul\":10859:10864   */\n      dup4\n        /* \"#utility.yul\":10855:10871   */\n      add\n        /* \"#utility.yul\":10849:10872   */\n      mload\n        /* \"#utility.yul\":10885:10948   */\n      tag_237\n        /* \"#utility.yul\":10942:10946   */\n      0x40\n        /* \"#utility.yul\":10937:10940   */\n      dup7\n        /* \"#utility.yul\":10933:10947   */\n      add\n        /* \"#utility.yul\":10919:10931   */\n      dup3\n        /* \"#utility.yul\":10885:10948   */\n      tag_88\n      jump\t// in\n    tag_237:\n        /* \"#utility.yul\":10789:10958   */\n      pop\n        /* \"#utility.yul\":11041:11045   */\n      0x60\n        /* \"#utility.yul\":11034:11039   */\n      dup4\n        /* \"#utility.yul\":11030:11046   */\n      add\n        /* \"#utility.yul\":11024:11047   */\n      mload\n        /* \"#utility.yul\":11060:11119   */\n      tag_238\n        /* \"#utility.yul\":11113:11117   */\n      0x60\n        /* \"#utility.yul\":11108:11111   */\n      dup7\n        /* \"#utility.yul\":11104:11118   */\n      add\n        /* \"#utility.yul\":11090:11102   */\n      dup3\n        /* \"#utility.yul\":11060:11119   */\n      tag_89\n      jump\t// in\n    tag_238:\n        /* \"#utility.yul\":10968:11129   */\n      pop\n        /* \"#utility.yul\":11146:11150   */\n      dup1\n        /* \"#utility.yul\":11139:11150   */\n      swap2\n      pop\n        /* \"#utility.yul\":10319:11156   */\n      pop\n        /* \"#utility.yul\":10211:11156   */\n      swap3\n      swap2\n      pop\n      pop\n      jump\t// out\n        /* \"#utility.yul\":11162:11406   */\n    tag_104:\n        /* \"#utility.yul\":11275:11285   */\n      0x00\n        /* \"#utility.yul\":11310:11400   */\n      tag_240\n        /* \"#utility.yul\":11396:11399   */\n      dup4\n        /* \"#utility.yul\":11388:11394   */\n      dup4\n        /* \"#utility.yul\":11310:11400   */\n      tag_103\n      jump\t// in\n    tag_240:\n        /* \"#utility.yul\":11296:11400   */\n      swap1\n      pop\n        /* \"#utility.yul\":11162:11406   */\n      swap3\n      swap2\n      pop\n      pop\n      jump\t// out\n        /* \"#utility.yul\":11412:11547   */\n    tag_105:\n        /* \"#utility.yul\":11504:11508   */\n      0x00\n        /* \"#utility.yul\":11536:11540   */\n      0x20\n        /* \"#utility.yul\":11531:11534   */\n      dup3\n        /* \"#utility.yul\":11527:11541   */\n      add\n        /* \"#utility.yul\":11519:11541   */\n      swap1\n      pop\n        /* \"#utility.yul\":11412:11547   */\n      swap2\n      swap1\n      pop\n      jump\t// out\n        /* \"#utility.yul\":11611:12698   */\n    tag_106:\n        /* \"#utility.yul\":11774:11777   */\n      0x00\n        /* \"#utility.yul\":11803:11879   */\n      tag_243\n        /* \"#utility.yul\":11873:11878   */\n      dup3\n        /* \"#utility.yul\":11803:11879   */\n      tag_100\n      jump\t// in\n    tag_243:\n        /* \"#utility.yul\":11895:12003   */\n      tag_244\n        /* \"#utility.yul\":11996:12002   */\n      dup2\n        /* \"#utility.yul\":11991:11994   */\n      dup6\n        /* \"#utility.yul\":11895:12003   */\n      tag_101\n      jump\t// in\n    tag_244:\n        /* \"#utility.yul\":11888:12003   */\n      swap4\n      pop\n        /* \"#utility.yul\":12029:12032   */\n      dup4\n        /* \"#utility.yul\":12074:12078   */\n      0x20\n        /* \"#utility.yul\":12066:12072   */\n      dup3\n        /* \"#utility.yul\":12062:12079   */\n      mul\n        /* \"#utility.yul\":12057:12060   */\n      dup6\n        /* \"#utility.yul\":12053:12080   */\n      add\n        /* \"#utility.yul\":12104:12182   */\n      tag_245\n        /* \"#utility.yul\":12176:12181   */\n      dup6\n        /* \"#utility.yul\":12104:12182   */\n      tag_102\n      jump\t// in\n    tag_245:\n        /* \"#utility.yul\":12205:12212   */\n      dup1\n        /* \"#utility.yul\":12236:12237   */\n      0x00\n        /* \"#utility.yul\":12221:12653   */\n    tag_246:\n        /* \"#utility.yul\":12246:12252   */\n      dup6\n        /* \"#utility.yul\":12243:12244   */\n      dup2\n        /* \"#utility.yul\":12240:12253   */\n      lt\n        /* \"#utility.yul\":12221:12653   */\n      iszero\n      tag_248\n      jumpi\n        /* \"#utility.yul\":12317:12326   */\n      dup5\n        /* \"#utility.yul\":12311:12315   */\n      dup5\n        /* \"#utility.yul\":12307:12327   */\n      sub\n        /* \"#utility.yul\":12302:12305   */\n      dup10\n        /* \"#utility.yul\":12295:12328   */\n      mstore\n        /* \"#utility.yul\":12368:12374   */\n      dup2\n        /* \"#utility.yul\":12362:12375   */\n      mload\n        /* \"#utility.yul\":12396:12504   */\n      tag_249\n        /* \"#utility.yul\":12499:12503   */\n      dup6\n        /* \"#utility.yul\":12484:12497   */\n      dup3\n        /* \"#utility.yul\":12396:12504   */\n      tag_104\n      jump\t// in\n    tag_249:\n        /* \"#utility.yul\":12388:12504   */\n      swap5\n      pop\n        /* \"#utility.yul\":12527:12609   */\n      tag_250\n        /* \"#utility.yul\":12602:12608   */\n      dup4\n        /* \"#utility.yul\":12527:12609   */\n      tag_105\n      jump\t// in\n    tag_250:\n        /* \"#utility.yul\":12517:12609   */\n      swap3\n      pop\n        /* \"#utility.yul\":12638:12642   */\n      0x20\n        /* \"#utility.yul\":12633:12636   */\n      dup11\n        /* \"#utility.yul\":12629:12643   */\n      add\n        /* \"#utility.yul\":12622:12643   */\n      swap10\n      pop\n        /* \"#utility.yul\":12281:12653   */\n      pop\n        /* \"#utility.yul\":12268:12269   */\n      0x01\n        /* \"#utility.yul\":12265:12266   */\n      dup2\n        /* \"#utility.yul\":12261:12270   */\n      add\n        /* \"#utility.yul\":12256:12270   */\n      swap1\n      pop\n        /* \"#utility.yul\":12221:12653   */\n      jump(tag_246)\n    tag_248:\n        /* \"#utility.yul\":12225:12239   */\n      pop\n        /* \"#utility.yul\":12669:12673   */\n      dup3\n        /* \"#utility.yul\":12662:12673   */\n      swap8\n      pop\n        /* \"#utility.yul\":12689:12692   */\n      dup8\n        /* \"#utility.yul\":12682:12692   */\n      swap6\n      pop\n        /* \"#utility.yul\":11779:12698   */\n      pop\n      pop\n      pop\n      pop\n      pop\n        /* \"#utility.yul\":11611:12698   */\n      swap3\n      swap2\n      pop\n      pop\n      jump\t// out\n        /* \"#utility.yul\":12704:13165   */\n    tag_29:\n        /* \"#utility.yul\":12891:12895   */\n      0x00\n        /* \"#utility.yul\":12929:12931   */\n      0x20\n        /* \"#utility.yul\":12918:12927   */\n      dup3\n        /* \"#utility.yul\":12914:12932   */\n      add\n        /* \"#utility.yul\":12906:12932   */\n      swap1\n      pop\n        /* \"#utility.yul\":12978:12987   */\n      dup2\n        /* \"#utility.yul\":12972:12976   */\n      dup2\n        /* \"#utility.yul\":12968:12988   */\n      sub\n        /* \"#utility.yul\":12964:12965   */\n      0x00\n        /* \"#utility.yul\":12953:12962   */\n      dup4\n        /* \"#utility.yul\":12949:12966   */\n      add\n        /* \"#utility.yul\":12942:12989   */\n      mstore\n        /* \"#utility.yul\":13006:13158   */\n      tag_252\n        /* \"#utility.yul\":13153:13157   */\n      dup2\n        /* \"#utility.yul\":13144:13150   */\n      dup5\n        /* \"#utility.yul\":13006:13158   */\n      tag_106\n      jump\t// in\n    tag_252:\n        /* \"#utility.yul\":12998:13158   */\n      swap1\n      pop\n        /* \"#utility.yul\":12704:13165   */\n      swap3\n      swap2\n      pop\n      pop\n      jump\t// out\n        /* \"#utility.yul\":13171:13351   */\n    tag_107:\n        /* \"#utility.yul\":13219:13296   */\n      0x4e487b7100000000000000000000000000000000000000000000000000000000\n        /* \"#utility.yul\":13216:13217   */\n      0x00\n        /* \"#utility.yul\":13209:13297   */\n      mstore\n        /* \"#utility.yul\":13316:13320   */\n      0x22\n        /* \"#utility.yul\":13313:13314   */\n      0x04\n        /* \"#utility.yul\":13306:13321   */\n      mstore\n        /* \"#utility.yul\":13340:13344   */\n      0x24\n        /* \"#utility.yul\":13337:13338   */\n      0x00\n        /* \"#utility.yul\":13330:13345   */\n      revert\n        /* \"#utility.yul\":13357:13677   */\n    tag_33:\n        /* \"#utility.yul\":13401:13407   */\n      0x00\n        /* \"#utility.yul\":13438:13439   */\n      0x02\n        /* \"#utility.yul\":13432:13436   */\n      dup3\n        /* \"#utility.yul\":13428:13440   */\n      div\n        /* \"#utility.yul\":13418:13440   */\n      swap1\n      pop\n        /* \"#utility.yul\":13485:13486   */\n      0x01\n        /* \"#utility.yul\":13479:13483   */\n      dup3\n        /* \"#utility.yul\":13475:13487   */\n      and\n        /* \"#utility.yul\":13506:13524   */\n      dup1\n        /* \"#utility.yul\":13496:13577   */\n      tag_255\n      jumpi\n        /* \"#utility.yul\":13562:13566   */\n      0x7f\n        /* \"#utility.yul\":13554:13560   */\n      dup3\n        /* \"#utility.yul\":13550:13567   */\n      and\n        /* \"#utility.yul\":13540:13567   */\n      swap2\n      pop\n        /* \"#utility.yul\":13496:13577   */\n    tag_255:\n        /* \"#utility.yul\":13624:13626   */\n      0x20\n        /* \"#utility.yul\":13616:13622   */\n      dup3\n        /* \"#utility.yul\":13613:13627   */\n      lt\n        /* \"#utility.yul\":13593:13611   */\n      dup2\n        /* \"#utility.yul\":13590:13628   */\n      sub\n        /* \"#utility.yul\":13587:13671   */\n      tag_256\n      jumpi\n        /* \"#utility.yul\":13643:13661   */\n      tag_257\n      tag_107\n      jump\t// in\n    tag_257:\n        /* \"#utility.yul\":13587:13671   */\n    tag_256:\n        /* \"#utility.yul\":13408:13677   */\n      pop\n        /* \"#utility.yul\":13357:13677   */\n      swap2\n      swap1\n      pop\n      jump\t// out\n        /* \"#utility.yul\":13683:13863   */\n    tag_43:\n        /* \"#utility.yul\":13731:13808   */\n      0x4e487b7100000000000000000000000000000000000000000000000000000000\n        /* \"#utility.yul\":13728:13729   */\n      0x00\n        /* \"#utility.yul\":13721:13809   */\n      mstore\n        /* \"#utility.yul\":13828:13832   */\n      0x32\n        /* \"#utility.yul\":13825:13826   */\n      0x04\n        /* \"#utility.yul\":13818:13833   */\n      mstore\n        /* \"#utility.yul\":13852:13856   */\n      0x24\n        /* \"#utility.yul\":13849:13850   */\n      0x00\n        /* \"#utility.yul\":13842:13857   */\n      revert\n        /* \"#utility.yul\":13869:14010   */\n    tag_108:\n        /* \"#utility.yul\":13918:13922   */\n      0x00\n        /* \"#utility.yul\":13941:13944   */\n      dup2\n        /* \"#utility.yul\":13933:13944   */\n      swap1\n      pop\n        /* \"#utility.yul\":13964:13967   */\n      dup2\n        /* \"#utility.yul\":13961:13962   */\n      0x00\n        /* \"#utility.yul\":13954:13968   */\n      mstore\n        /* \"#utility.yul\":13998:14002   */\n      0x20\n        /* \"#utility.yul\":13995:13996   */\n      0x00\n        /* \"#utility.yul\":13985:14003   */\n      keccak256\n        /* \"#utility.yul\":13977:14003   */\n      swap1\n      pop\n        /* \"#utility.yul\":13869:14010   */\n      swap2\n      swap1\n      pop\n      jump\t// out\n        /* \"#utility.yul\":14016:14109   */\n    tag_109:\n        /* \"#utility.yul\":14053:14059   */\n      0x00\n        /* \"#utility.yul\":14100:14102   */\n      0x20\n        /* \"#utility.yul\":14095:14097   */\n      0x1f\n        /* \"#utility.yul\":14088:14093   */\n      dup4\n        /* \"#utility.yul\":14084:14098   */\n      add\n        /* \"#utility.yul\":14080:14103   */\n      div\n        /* \"#utility.yul\":14070:14103   */\n      swap1\n      pop\n        /* \"#utility.yul\":14016:14109   */\n      swap2\n      swap1\n      pop\n      jump\t// out\n        /* \"#utility.yul\":14115:14222   */\n    tag_110:\n        /* \"#utility.yul\":14159:14167   */\n      0x00\n        /* \"#utility.yul\":14209:14214   */\n      dup3\n        /* \"#utility.yul\":14203:14207   */\n      dup3\n        /* \"#utility.yul\":14199:14215   */\n      shl\n        /* \"#utility.yul\":14178:14215   */\n      swap1\n      pop\n        /* \"#utility.yul\":14115:14222   */\n      swap3\n      swap2\n      pop\n      pop\n      jump\t// out\n        /* \"#utility.yul\":14228:14621   */\n    tag_111:\n        /* \"#utility.yul\":14297:14303   */\n      0x00\n        /* \"#utility.yul\":14347:14348   */\n      0x08\n        /* \"#utility.yul\":14335:14345   */\n      dup4\n        /* \"#utility.yul\":14331:14349   */\n      mul\n        /* \"#utility.yul\":14370:14467   */\n      tag_263\n        /* \"#utility.yul\":14400:14466   */\n      0xffffffffffffffffffffffffffffffffffffffffffffffffffffffffffffffff\n        /* \"#utility.yul\":14389:14398   */\n      dup3\n        /* \"#utility.yul\":14370:14467   */\n      tag_110\n      jump\t// in\n    tag_263:\n        /* \"#utility.yul\":14488:14527   */\n      tag_264\n        /* \"#utility.yul\":14518:14526   */\n      dup7\n        /* \"#utility.yul\":14507:14516   */\n      dup4\n        /* \"#utility.yul\":14488:14527   */\n      tag_110\n      jump\t// in\n    tag_264:\n        /* \"#utility.yul\":14476:14527   */\n      swap6\n      pop\n        /* \"#utility.yul\":14560:14564   */\n      dup1\n        /* \"#utility.yul\":14556:14565   */\n      not\n        /* \"#utility.yul\":14549:14554   */\n      dup5\n        /* \"#utility.yul\":14545:14566   */\n      and\n        /* \"#utility.yul\":14536:14566   */\n      swap4\n      pop\n        /* \"#utility.yul\":14609:14613   */\n      dup1\n        /* \"#utility.yul\":14599:14607   */\n      dup7\n        /* \"#utility.yul\":14595:14614   */\n      and\n        /* \"#utility.yul\":14588:14593   */\n      dup5\n        /* \"#utility.yul\":14585:14615   */\n      or\n        /* \"#utility.yul\":14575:14615   */\n      swap3\n      pop\n        /* \"#utility.yul\":14304:14621   */\n      pop\n      pop\n        /* \"#utility.yul\":14228:14621   */\n      swap4\n      swap3\n      pop\n      pop\n      pop\n      jump\t// out\n        /* \"#utility.yul\":14627:14687   */\n    tag_112:\n        /* \"#utility.yul\":14655:14658   */\n      0x00\n        /* \"#utility.yul\":14676:14681   */\n      dup2\n        /* \"#utility.yul\":14669:14681   */\n      swap1\n      pop\n        /* \"#utility.yul\":14627:14687   */\n      swap2\n      swap1\n      pop\n      jump\t// out\n        /* \"#utility.yul\":14693:14835   */\n    tag_113:\n        /* \"#utility.yul\":14743:14752   */\n      0x00\n        /* \"#utility.yul\":14776:14829   */\n      tag_267\n        /* \"#utility.yul\":14794:14828   */\n      tag_268\n        /* \"#utility.yul\":14803:14827   */\n      tag_269\n        /* \"#utility.yul\":14821:14826   */\n      dup5\n        /* \"#utility.yul\":14803:14827   */\n      tag_71\n      jump\t// in\n    tag_269:\n        /* \"#utility.yul\":14794:14828   */\n      tag_112\n      jump\t// in\n    tag_268:\n        /* \"#utility.yul\":14776:14829   */\n      tag_71\n      jump\t// in\n    tag_267:\n        /* \"#utility.yul\":14763:14829   */\n      swap1\n      pop\n        /* \"#utility.yul\":14693:14835   */\n      swap2\n      swap1\n      pop\n      jump\t// out\n        /* \"#utility.yul\":14841:14916   */\n    tag_114:\n        /* \"#utility.yul\":14884:14887   */\n      0x00\n        /* \"#utility.yul\":14905:14910   */\n      dup2\n        /* \"#utility.yul\":14898:14910   */\n      swap1\n      pop\n        /* \"#utility.yul\":14841:14916   */\n      swap2\n      swap1\n      pop\n      jump\t// out\n        /* \"#utility.yul\":14922:15191   */\n    tag_115:\n        /* \"#utility.yul\":15032:15071   */\n      tag_272\n        /* \"#utility.yul\":15063:15070   */\n      dup4\n        /* \"#utility.yul\":15032:15071   */\n      tag_113\n      jump\t// in\n    tag_272:\n        /* \"#utility.yul\":15093:15184   */\n      tag_273\n        /* \"#utility.yul\":15142:15183   */\n      tag_274\n        /* \"#utility.yul\":15166:15182   */\n      dup3\n        /* \"#utility.yul\":15142:15183   */\n      tag_114\n      jump\t// in\n    tag_274:\n        /* \"#utility.yul\":15134:15140   */\n      dup5\n        /* \"#utility.yul\":15127:15131   */\n      dup5\n        /* \"#utility.yul\":15121:15132   */\n      sload\n        /* \"#utility.yul\":15093:15184   */\n      tag_111\n      jump\t// in\n    tag_273:\n        /* \"#utility.yul\":15087:15091   */\n      dup3\n        /* \"#utility.yul\":15080:15185   */\n      sstore\n        /* \"#utility.yul\":14998:15191   */\n      pop\n        /* \"#utility.yul\":14922:15191   */\n      pop\n      pop\n      pop\n      jump\t// out\n        /* \"#utility.yul\":15197:15270   */\n    tag_116:\n        /* \"#utility.yul\":15242:15245   */\n      0x00\n        /* \"#utility.yul\":15197:15270   */\n      swap1\n      jump\t// out\n        /* \"#utility.yul\":15276:15465   */\n    tag_117:\n        /* \"#utility.yul\":15353:15385   */\n      tag_277\n      tag_116\n      jump\t// in\n    tag_277:\n        /* \"#utility.yul\":15394:15459   */\n      tag_278\n        /* \"#utility.yul\":15452:15458   */\n      dup2\n        /* \"#utility.yul\":15444:15450   */\n      dup5\n        /* \"#utility.yul\":15438:15442   */\n      dup5\n        /* \"#utility.yul\":15394:15459   */\n      tag_115\n      jump\t// in\n    tag_278:\n        /* \"#utility.yul\":15329:15465   */\n      pop\n        /* \"#utility.yul\":15276:15465   */\n      pop\n      pop\n      jump\t// out\n        /* \"#utility.yul\":15471:15657   */\n    tag_118:\n        /* \"#utility.yul\":15531:15651   */\n    tag_280:\n        /* \"#utility.yul\":15548:15551   */\n      dup2\n        /* \"#utility.yul\":15541:15546   */\n      dup2\n        /* \"#utility.yul\":15538:15552   */\n      lt\n        /* \"#utility.yul\":15531:15651   */\n      iszero\n      tag_282\n      jumpi\n        /* \"#utility.yul\":15602:15641   */\n      tag_283\n        /* \"#utility.yul\":15639:15640   */\n      0x00\n        /* \"#utility.yul\":15632:15637   */\n      dup3\n        /* \"#utility.yul\":15602:15641   */\n      tag_117\n      jump\t// in\n    tag_283:\n        /* \"#utility.yul\":15575:15576   */\n      0x01\n        /* \"#utility.yul\":15568:15573   */\n      dup2\n        /* \"#utility.yul\":15564:15577   */\n      add\n        /* \"#utility.yul\":15555:15577   */\n      swap1\n      pop\n        /* \"#utility.yul\":15531:15651   */\n      jump(tag_280)\n    tag_282:\n        /* \"#utility.yul\":15471:15657   */\n      pop\n      pop\n      jump\t// out\n        /* \"#utility.yul\":15663:16206   */\n    tag_119:\n        /* \"#utility.yul\":15764:15766   */\n      0x1f\n        /* \"#utility.yul\":15759:15762   */\n      dup3\n        /* \"#utility.yul\":15756:15767   */\n      gt\n        /* \"#utility.yul\":15753:16199   */\n      iszero\n      tag_285\n      jumpi\n        /* \"#utility.yul\":15798:15836   */\n      tag_286\n        /* \"#utility.yul\":15830:15835   */\n      dup2\n        /* \"#utility.yul\":15798:15836   */\n      tag_108\n      jump\t// in\n    tag_286:\n        /* \"#utility.yul\":15882:15911   */\n      tag_287\n        /* \"#utility.yul\":15900:15910   */\n      dup5\n        /* \"#utility.yul\":15882:15911   */\n      tag_109\n      jump\t// in\n    tag_287:\n        /* \"#utility.yul\":15872:15880   */\n      dup2\n        /* \"#utility.yul\":15868:15912   */\n      add\n        /* \"#utility.yul\":16065:16067   */\n      0x20\n        /* \"#utility.yul\":16053:16063   */\n      dup6\n        /* \"#utility.yul\":16050:16068   */\n      lt\n        /* \"#utility.yul\":16047:16096   */\n      iszero\n      tag_288\n      jumpi\n        /* \"#utility.yul\":16086:16094   */\n      dup2\n        /* \"#utility.yul\":16071:16094   */\n      swap1\n      pop\n        /* \"#utility.yul\":16047:16096   */\n    tag_288:\n        /* \"#utility.yul\":16109:16189   */\n      tag_289\n        /* \"#utility.yul\":16165:16187   */\n      tag_290\n        /* \"#utility.yul\":16183:16186   */\n      dup6\n        /* \"#utility.yul\":16165:16187   */\n      tag_109\n      jump\t// in\n    tag_290:\n        /* \"#utility.yul\":16155:16163   */\n      dup4\n        /* \"#utility.yul\":16151:16188   */\n      add\n        /* \"#utility.yul\":16138:16149   */\n      dup3\n        /* \"#utility.yul\":16109:16189   */\n      tag_118\n      jump\t// in\n    tag_289:\n        /* \"#utility.yul\":15768:16199   */\n      pop\n      pop\n        /* \"#utility.yul\":15753:16199   */\n    tag_285:\n        /* \"#utility.yul\":15663:16206   */\n      pop\n      pop\n      pop\n      jump\t// out\n        /* \"#utility.yul\":16212:16329   */\n    tag_120:\n        /* \"#utility.yul\":16266:16274   */\n      0x00\n        /* \"#utility.yul\":16316:16321   */\n      dup3\n        /* \"#utility.yul\":16310:16314   */\n      dup3\n        /* \"#utility.yul\":16306:16322   */\n      shr\n        /* \"#utility.yul\":16285:16322   */\n      swap1\n      pop\n        /* \"#utility.yul\":16212:16329   */\n      swap3\n      swap2\n      pop\n      pop\n      jump\t// out\n        /* \"#utility.yul\":16335:16504   */\n    tag_121:\n        /* \"#utility.yul\":16379:16385   */\n      0x00\n        /* \"#utility.yul\":16412:16463   */\n      tag_293\n        /* \"#utility.yul\":16460:16461   */\n      0x00\n        /* \"#utility.yul\":16456:16462   */\n      not\n        /* \"#utility.yul\":16448:16453   */\n      dup5\n        /* \"#utility.yul\":16445:16446   */\n      0x08\n        /* \"#utility.yul\":16441:16454   */\n      mul\n        /* \"#utility.yul\":16412:16463   */\n      tag_120\n      jump\t// in\n    tag_293:\n        /* \"#utility.yul\":16408:16464   */\n      not\n        /* \"#utility.yul\":16493:16497   */\n      dup1\n        /* \"#utility.yul\":16487:16491   */\n      dup4\n        /* \"#utility.yul\":16483:16498   */\n      and\n        /* \"#utility.yul\":16473:16498   */\n      swap2\n      pop\n        /* \"#utility.yul\":16386:16504   */\n      pop\n        /* \"#utility.yul\":16335:16504   */\n      swap3\n      swap2\n      pop\n      pop\n      jump\t// out\n        /* \"#utility.yul\":16509:16804   */\n    tag_122:\n        /* \"#utility.yul\":16585:16589   */\n      0x00\n        /* \"#utility.yul\":16731:16760   */\n      tag_295\n        /* \"#utility.yul\":16756:16759   */\n      dup4\n        /* \"#utility.yul\":16750:16754   */\n      dup4\n        /* \"#utility.yul\":16731:16760   */\n      tag_121\n      jump\t// in\n    tag_295:\n        /* \"#utility.yul\":16723:16760   */\n      swap2\n      pop\n        /* \"#utility.yul\":16793:16796   */\n      dup3\n        /* \"#utility.yul\":16790:16791   */\n      0x02\n        /* \"#utility.yul\":16786:16797   */\n      mul\n        /* \"#utility.yul\":16780:16784   */\n      dup3\n        /* \"#utility.yul\":16777:16798   */\n      or\n        /* \"#utility.yul\":16769:16798   */\n      swap1\n      pop\n        /* \"#utility.yul\":16509:16804   */\n      swap3\n      swap2\n      pop\n      pop\n      jump\t// out\n        /* \"#utility.yul\":16809:18204   */\n    tag_54:\n        /* \"#utility.yul\":16926:16963   */\n      tag_297\n        /* \"#utility.yul\":16959:16962   */\n      dup3\n        /* \"#utility.yul\":16926:16963   */\n      tag_75\n      jump\t// in\n    tag_297:\n        /* \"#utility.yul\":17028:17046   */\n      0xffffffffffffffff\n        /* \"#utility.yul\":17020:17026   */\n      dup2\n        /* \"#utility.yul\":17017:17047   */\n      gt\n        /* \"#utility.yul\":17014:17070   */\n      iszero\n      tag_298\n      jumpi\n        /* \"#utility.yul\":17050:17068   */\n      tag_299\n      tag_93\n      jump\t// in\n    tag_299:\n        /* \"#utility.yul\":17014:17070   */\n    tag_298:\n        /* \"#utility.yul\":17094:17132   */\n      tag_300\n        /* \"#utility.yul\":17126:17130   */\n      dup3\n        /* \"#utility.yul\":17120:17131   */\n      sload\n        /* \"#utility.yul\":17094:17132   */\n      tag_33\n      jump\t// in\n    tag_300:\n        /* \"#utility.yul\":17179:17246   */\n      tag_301\n        /* \"#utility.yul\":17239:17245   */\n      dup3\n        /* \"#utility.yul\":17231:17237   */\n      dup3\n        /* \"#utility.yul\":17225:17229   */\n      dup6\n        /* \"#utility.yul\":17179:17246   */\n      tag_119\n      jump\t// in\n    tag_301:\n        /* \"#utility.yul\":17273:17274   */\n      0x00\n        /* \"#utility.yul\":17297:17301   */\n      0x20\n        /* \"#utility.yul\":17284:17301   */\n      swap1\n      pop\n        /* \"#utility.yul\":17329:17331   */\n      0x1f\n        /* \"#utility.yul\":17321:17327   */\n      dup4\n        /* \"#utility.yul\":17318:17332   */\n      gt\n        /* \"#utility.yul\":17346:17347   */\n      0x01\n        /* \"#utility.yul\":17341:17959   */\n      dup2\n      eq\n      tag_303\n      jumpi\n        /* \"#utility.yul\":18003:18004   */\n      0x00\n        /* \"#utility.yul\":18020:18026   */\n      dup5\n        /* \"#utility.yul\":18017:18094   */\n      iszero\n      tag_304\n      jumpi\n        /* \"#utility.yul\":18069:18078   */\n      dup3\n        /* \"#utility.yul\":18064:18067   */\n      dup8\n        /* \"#utility.yul\":18060:18079   */\n      add\n        /* \"#utility.yul\":18054:18080   */\n      mload\n        /* \"#utility.yul\":18045:18080   */\n      swap1\n      pop\n        /* \"#utility.yul\":18017:18094   */\n    tag_304:\n        /* \"#utility.yul\":18120:18187   */\n      tag_305\n        /* \"#utility.yul\":18180:18186   */\n      dup6\n        /* \"#utility.yul\":18173:18178   */\n      dup3\n        /* \"#utility.yul\":18120:18187   */\n      tag_122\n      jump\t// in\n    tag_305:\n        /* \"#utility.yul\":18114:18118   */\n      dup7\n        /* \"#utility.yul\":18107:18188   */\n      sstore\n        /* \"#utility.yul\":17976:18198   */\n      pop\n        /* \"#utility.yul\":17311:18198   */\n      jump(tag_302)\n        /* \"#utility.yul\":17341:17959   */\n    tag_303:\n        /* \"#utility.yul\":17393:17397   */\n      0x1f\n        /* \"#utility.yul\":17389:17398   */\n      not\n        /* \"#utility.yul\":17381:17387   */\n      dup5\n        /* \"#utility.yul\":17377:17399   */\n      and\n        /* \"#utility.yul\":17427:17464   */\n      tag_306\n        /* \"#utility.yul\":17459:17463   */\n      dup7\n        /* \"#utility.yul\":17427:17464   */\n      tag_108\n      jump\t// in\n    tag_306:\n        /* \"#utility.yul\":17486:17487   */\n      0x00\n        /* \"#utility.yul\":17500:17708   */\n    tag_307:\n        /* \"#utility.yul\":17514:17521   */\n      dup3\n        /* \"#utility.yul\":17511:17512   */\n      dup2\n        /* \"#utility.yul\":17508:17522   */\n      lt\n        /* \"#utility.yul\":17500:17708   */\n      iszero\n      tag_309\n      jumpi\n        /* \"#utility.yul\":17593:17602   */\n      dup5\n        /* \"#utility.yul\":17588:17591   */\n      dup10\n        /* \"#utility.yul\":17584:17603   */\n      add\n        /* \"#utility.yul\":17578:17604   */\n      mload\n        /* \"#utility.yul\":17570:17576   */\n      dup3\n        /* \"#utility.yul\":17563:17605   */\n      sstore\n        /* \"#utility.yul\":17644:17645   */\n      0x01\n        /* \"#utility.yul\":17636:17642   */\n      dup3\n        /* \"#utility.yul\":17632:17646   */\n      add\n        /* \"#utility.yul\":17622:17646   */\n      swap2\n      pop\n        /* \"#utility.yul\":17691:17693   */\n      0x20\n        /* \"#utility.yul\":17680:17689   */\n      dup6\n        /* \"#utility.yul\":17676:17694   */\n      add\n        /* \"#utility.yul\":17663:17694   */\n      swap5\n      pop\n        /* \"#utility.yul\":17537:17541   */\n      0x20\n        /* \"#utility.yul\":17534:17535   */\n      dup2\n        /* \"#utility.yul\":17530:17542   */\n      add\n        /* \"#utility.yul\":17525:17542   */\n      swap1\n      pop\n        /* \"#utility.yul\":17500:17708   */\n      jump(tag_307)\n    tag_309:\n        /* \"#utility.yul\":17736:17742   */\n      dup7\n        /* \"#utility.yul\":17727:17734   */\n      dup4\n        /* \"#utility.yul\":17724:17743   */\n      lt\n        /* \"#utility.yul\":17721:17900   */\n      iszero\n      tag_310\n      jumpi\n        /* \"#utility.yul\":17794:17803   */\n      dup5\n        /* \"#utility.yul\":17789:17792   */\n      dup10\n        /* \"#utility.yul\":17785:17804   */\n      add\n        /* \"#utility.yul\":17779:17805   */\n      mload\n        /* \"#utility.yul\":17837:17885   */\n      tag_311\n        /* \"#utility.yul\":17879:17883   */\n      0x1f\n        /* \"#utility.yul\":17871:17877   */\n      dup10\n        /* \"#utility.yul\":17867:17884   */\n      and\n        /* \"#utility.yul\":17856:17865   */\n      dup3\n        /* \"#utility.yul\":17837:17885   */\n      tag_121\n      jump\t// in\n    tag_311:\n        /* \"#utility.yul\":17829:17835   */\n      dup4\n        /* \"#utility.yul\":17822:17886   */\n      sstore\n        /* \"#utility.yul\":17744:17900   */\n      pop\n        /* \"#utility.yul\":17721:17900   */\n    tag_310:\n        /* \"#utility.yul\":17946:17947   */\n      0x01\n        /* \"#utility.yul\":17942:17943   */\n      0x02\n        /* \"#utility.yul\":17934:17940   */\n      dup9\n        /* \"#utility.yul\":17930:17944   */\n      mul\n        /* \"#utility.yul\":17926:17948   */\n      add\n        /* \"#utility.yul\":17920:17924   */\n      dup9\n        /* \"#utility.yul\":17913:17949   */\n      sstore\n        /* \"#utility.yul\":17348:17959   */\n      pop\n      pop\n      pop\n        /* \"#utility.yul\":17311:18198   */\n    tag_302:\n      pop\n        /* \"#utility.yul\":16901:18204   */\n      pop\n      pop\n      pop\n        /* \"#utility.yul\":16809:18204   */\n      pop\n      pop\n      jump\t// out\n\n    auxdata: 0xa264697066735822122028214be532ffafdc9d32b0625332bbfd82cddba0d1fdce627e2c2bedcf80ee9664736f6c634300081a0033\n}\n",
				"bytecode": {
					"linkReferences": {},
					"object": "6080604052348015600e575f80fd5b50610fd18061001c5f395ff3fe608060405234801561000f575f80fd5b506004361061004a575f3560e01c806305a1b4a91461004e57806350ed2759146100815780637c9cd2bc146100b15780639e92b093146100e1575b5f80fd5b6100686004803603810190610063919061073e565b610111565b6040516100789493929190610825565b60405180910390f35b61009b60048036038101906100969190610899565b610207565b6040516100a891906109ac565b60405180910390f35b6100cb60048036038101906100c69190610af8565b610389565b6040516100d891906109ac565b60405180910390f35b6100fb60048036038101906100f69190610b3f565b6104c0565b6040516101089190610c85565b60405180910390f35b5f602052815f5260405f208181548110610129575f80fd5b905f5260205f2090600402015f9150915050805f015f9054906101000a900473ffffffffffffffffffffffffffffffffffffffff169080600101805461016e90610cd2565b80601f016020809104026020016040519081016040528092919081815260200182805461019a90610cd2565b80156101e55780601f106101bc576101008083540402835291602001916101e5565b820191905f5260205f20905b8154815290600101906020018083116101c857829003601f168201915b505050505090806002015490806003015f9054906101000a900460ff16905084565b61020f610662565b5f808473ffffffffffffffffffffffffffffffffffffffff1673ffffffffffffffffffffffffffffffffffffffff1681526020019081526020015f208260ff16815481106102605761025f610d02565b5b905f5260205f2090600402016040518060800160405290815f82015f9054906101000a900473ffffffffffffffffffffffffffffffffffffffff1673ffffffffffffffffffffffffffffffffffffffff1673ffffffffffffffffffffffffffffffffffffffff1681526020016001820180546102db90610cd2565b80601f016020809104026020016040519081016040528092919081815260200182805461030790610cd2565b80156103525780601f1061032957610100808354040283529160200191610352565b820191905f5260205f20905b81548152906001019060200180831161033557829003601f168201915b5050505050815260200160028201548152602001600382015f9054906101000a900460ff1660ff1660ff1681525050905092915050565b610391610662565b5f60405180608001604052803373ffffffffffffffffffffffffffffffffffffffff1681526020018481526020014281526020015f60ff1681525090505f803373ffffffffffffffffffffffffffffffffffffffff1673ffffffffffffffffffffffffffffffffffffffff1681526020019081526020015f2081908060018154018082558091505060019003905f5260205f2090600402015f909190919091505f820151815f015f6101000a81548173ffffffffffffffffffffffffffffffffffffffff021916908373ffffffffffffffffffffffffffffffffffffffff160217905550602082015181600101908161048a9190610ecc565b50604082015181600201556060820151816003015f6101000a81548160ff021916908360ff160217905550505080915050919050565b60605f808373ffffffffffffffffffffffffffffffffffffffff1673ffffffffffffffffffffffffffffffffffffffff1681526020019081526020015f20805480602002602001604051908101604052809291908181526020015f905b82821015610657578382905f5260205f2090600402016040518060800160405290815f82015f9054906101000a900473ffffffffffffffffffffffffffffffffffffffff1673ffffffffffffffffffffffffffffffffffffffff1673ffffffffffffffffffffffffffffffffffffffff1681526020016001820180546105a290610cd2565b80601f01602080910402602001604051908101604052809291908181526020018280546105ce90610cd2565b80156106195780601f106105f057610100808354040283529160200191610619565b820191905f5260205f20905b8154815290600101906020018083116105fc57829003601f168201915b5050505050815260200160028201548152602001600382015f9054906101000a900460ff1660ff1660ff16815250508152602001906001019061051d565b505050509050919050565b60405180608001604052805f73ffffffffffffffffffffffffffffffffffffffff168152602001606081526020015f81526020015f60ff1681525090565b5f604051905090565b5f80fd5b5f80fd5b5f73ffffffffffffffffffffffffffffffffffffffff82169050919050565b5f6106da826106b1565b9050919050565b6106ea816106d0565b81146106f4575f80fd5b50565b5f81359050610705816106e1565b92915050565b5f819050919050565b61071d8161070b565b8114610727575f80fd5b50565b5f8135905061073881610714565b92915050565b5f8060408385031215610754576107536106a9565b5b5f610761858286016106f7565b92505060206107728582860161072a565b9150509250929050565b610785816106d0565b82525050565b5f81519050919050565b5f82825260208201905092915050565b8281835e5f83830152505050565b5f601f19601f8301169050919050565b5f6107cd8261078b565b6107d78185610795565b93506107e78185602086016107a5565b6107f0816107b3565b840191505092915050565b6108048161070b565b82525050565b5f60ff82169050919050565b61081f8161080a565b82525050565b5f6080820190506108385f83018761077c565b818103602083015261084a81866107c3565b905061085960408301856107fb565b6108666060830184610816565b95945050505050565b6108788161080a565b8114610882575f80fd5b50565b5f813590506108938161086f565b92915050565b5f80604083850312156108af576108ae6106a9565b5b5f6108bc858286016106f7565b92505060206108cd85828601610885565b9150509250929050565b6108e0816106d0565b82525050565b5f82825260208201905092915050565b5f6109008261078b565b61090a81856108e6565b935061091a8185602086016107a5565b610923816107b3565b840191505092915050565b6109378161070b565b82525050565b6109468161080a565b82525050565b5f608083015f8301516109615f8601826108d7565b506020830151848203602086015261097982826108f6565b915050604083015161098e604086018261092e565b5060608301516109a1606086018261093d565b508091505092915050565b5f6020820190508181035f8301526109c4818461094c565b905092915050565b5f80fd5b5f80fd5b7f4e487b71000000000000000000000000000000000000000000000000000000005f52604160045260245ffd5b610a0a826107b3565b810181811067ffffffffffffffff82111715610a2957610a286109d4565b5b80604052505050565b5f610a3b6106a0565b9050610a478282610a01565b919050565b5f67ffffffffffffffff821115610a6657610a656109d4565b5b610a6f826107b3565b9050602081019050919050565b828183375f83830152505050565b5f610a9c610a9784610a4c565b610a32565b905082815260208101848484011115610ab857610ab76109d0565b5b610ac3848285610a7c565b509392505050565b5f82601f830112610adf57610ade6109cc565b5b8135610aef848260208601610a8a565b91505092915050565b5f60208284031215610b0d57610b0c6106a9565b5b5f82013567ffffffffffffffff811115610b2a57610b296106ad565b5b610b3684828501610acb565b91505092915050565b5f60208284031215610b5457610b536106a9565b5b5f610b61848285016106f7565b91505092915050565b5f81519050919050565b5f82825260208201905092915050565b5f819050602082019050919050565b5f608083015f830151610ba85f8601826108d7565b5060208301518482036020860152610bc082826108f6565b9150506040830151610bd5604086018261092e565b506060830151610be8606086018261093d565b508091505092915050565b5f610bfe8383610b93565b905092915050565b5f602082019050919050565b5f610c1c82610b6a565b610c268185610b74565b935083602082028501610c3885610b84565b805f5b85811015610c735784840389528151610c548582610bf3565b9450610c5f83610c06565b925060208a01995050600181019050610c3b565b50829750879550505050505092915050565b5f6020820190508181035f830152610c9d8184610c12565b905092915050565b7f4e487b71000000000000000000000000000000000000000000000000000000005f52602260045260245ffd5b5f6002820490506001821680610ce957607f821691505b602082108103610cfc57610cfb610ca5565b5b50919050565b7f4e487b71000000000000000000000000000000000000000000000000000000005f52603260045260245ffd5b5f819050815f5260205f209050919050565b5f6020601f8301049050919050565b5f82821b905092915050565b5f60088302610d8b7fffffffffffffffffffffffffffffffffffffffffffffffffffffffffffffffff82610d50565b610d958683610d50565b95508019841693508086168417925050509392505050565b5f819050919050565b5f610dd0610dcb610dc68461070b565b610dad565b61070b565b9050919050565b5f819050919050565b610de983610db6565b610dfd610df582610dd7565b848454610d5c565b825550505050565b5f90565b610e11610e05565b610e1c818484610de0565b505050565b5b81811015610e3f57610e345f82610e09565b600181019050610e22565b5050565b601f821115610e8457610e5581610d2f565b610e5e84610d41565b81016020851015610e6d578190505b610e81610e7985610d41565b830182610e21565b50505b505050565b5f82821c905092915050565b5f610ea45f1984600802610e89565b1980831691505092915050565b5f610ebc8383610e95565b9150826002028217905092915050565b610ed58261078b565b67ffffffffffffffff811115610eee57610eed6109d4565b5b610ef88254610cd2565b610f03828285610e43565b5f60209050601f831160018114610f34575f8415610f22578287015190505b610f2c8582610eb1565b865550610f93565b601f198416610f4286610d2f565b5f5b82811015610f6957848901518255600182019150602085019450602081019050610f44565b86831015610f865784890151610f82601f891682610e95565b8355505b6001600288020188555050505b50505050505056fea264697066735822122028214be532ffafdc9d32b0625332bbfd82cddba0d1fdce627e2c2bedcf80ee9664736f6c634300081a0033",
					"opcodes": "PUSH1 0x80 PUSH1 0x40 MSTORE CALLVALUE DUP1 ISZERO PUSH1 0xE JUMPI PUSH0 DUP1 REVERT JUMPDEST POP PUSH2 0xFD1 DUP1 PUSH2 0x1C PUSH0 CODECOPY PUSH0 RETURN INVALID PUSH1 0x80 PUSH1 0x40 MSTORE CALLVALUE DUP1 ISZERO PUSH2 0xF JUMPI PUSH0 DUP1 REVERT JUMPDEST POP PUSH1 0x4 CALLDATASIZE LT PUSH2 0x4A JUMPI PUSH0 CALLDATALOAD PUSH1 0xE0 SHR DUP1 PUSH4 0x5A1B4A9 EQ PUSH2 0x4E JUMPI DUP1 PUSH4 0x50ED2759 EQ PUSH2 0x81 JUMPI DUP1 PUSH4 0x7C9CD2BC EQ PUSH2 0xB1 JUMPI DUP1 PUSH4 0x9E92B093 EQ PUSH2 0xE1 JUMPI JUMPDEST PUSH0 DUP1 REVERT JUMPDEST PUSH2 0x68 PUSH1 0x4 DUP1 CALLDATASIZE SUB DUP2 ADD SWAP1 PUSH2 0x63 SWAP2 SWAP1 PUSH2 0x73E JUMP JUMPDEST PUSH2 0x111 JUMP JUMPDEST PUSH1 0x40 MLOAD PUSH2 0x78 SWAP5 SWAP4 SWAP3 SWAP2 SWAP1 PUSH2 0x825 JUMP JUMPDEST PUSH1 0x40 MLOAD DUP1 SWAP2 SUB SWAP1 RETURN JUMPDEST PUSH2 0x9B PUSH1 0x4 DUP1 CALLDATASIZE SUB DUP2 ADD SWAP1 PUSH2 0x96 SWAP2 SWAP1 PUSH2 0x899 JUMP JUMPDEST PUSH2 0x207 JUMP JUMPDEST PUSH1 0x40 MLOAD PUSH2 0xA8 SWAP2 SWAP1 PUSH2 0x9AC JUMP JUMPDEST PUSH1 0x40 MLOAD DUP1 SWAP2 SUB SWAP1 RETURN JUMPDEST PUSH2 0xCB PUSH1 0x4 DUP1 CALLDATASIZE SUB DUP2 ADD SWAP1 PUSH2 0xC6 SWAP2 SWAP1 PUSH2 0xAF8 JUMP JUMPDEST PUSH2 0x389 JUMP JUMPDEST PUSH1 0x40 MLOAD PUSH2 0xD8 SWAP2 SWAP1 PUSH2 0x9AC JUMP JUMPDEST PUSH1 0x40 MLOAD DUP1 SWAP2 SUB SWAP1 RETURN JUMPDEST PUSH2 0xFB PUSH1 0x4 DUP1 CALLDATASIZE SUB DUP2 ADD SWAP1 PUSH2 0xF6 SWAP2 SWAP1 PUSH2 0xB3F JUMP JUMPDEST PUSH2 0x4C0 JUMP JUMPDEST PUSH1 0x40 MLOAD PUSH2 0x108 SWAP2 SWAP1 PUSH2 0xC85 JUMP JUMPDEST PUSH1 0x40 MLOAD DUP1 SWAP2 SUB SWAP1 RETURN JUMPDEST PUSH0 PUSH1 0x20 MSTORE DUP2 PUSH0 MSTORE PUSH1 0x40 PUSH0 KECCAK256 DUP2 DUP2 SLOAD DUP2 LT PUSH2 0x129 JUMPI PUSH0 DUP1 REVERT JUMPDEST SWAP1 PUSH0 MSTORE PUSH1 0x20 PUSH0 KECCAK256 SWAP1 PUSH1 0x4 MUL ADD PUSH0 SWAP2 POP SWAP2 POP POP DUP1 PUSH0 ADD PUSH0 SWAP1 SLOAD SWAP1 PUSH2 0x100 EXP SWAP1 DIV PUSH20 0xFFFFFFFFFFFFFFFFFFFFFFFFFFFFFFFFFFFFFFFF AND SWAP1 DUP1 PUSH1 0x1 ADD DUP1 SLOAD PUSH2 0x16E SWAP1 PUSH2 0xCD2 JUMP JUMPDEST DUP1 PUSH1 0x1F ADD PUSH1 0x20 DUP1 SWAP2 DIV MUL PUSH1 0x20 ADD PUSH1 0x40 MLOAD SWAP1 DUP2 ADD PUSH1 0x40 MSTORE DUP1 SWAP3 SWAP2 SWAP1 DUP2 DUP2 MSTORE PUSH1 0x20 ADD DUP3 DUP1 SLOAD PUSH2 0x19A SWAP1 PUSH2 0xCD2 JUMP JUMPDEST DUP1 ISZERO PUSH2 0x1E5 JUMPI DUP1 PUSH1 0x1F LT PUSH2 0x1BC JUMPI PUSH2 0x100 DUP1 DUP4 SLOAD DIV MUL DUP4 MSTORE SWAP2 PUSH1 0x20 ADD SWAP2 PUSH2 0x1E5 JUMP JUMPDEST DUP3 ADD SWAP2 SWAP1 PUSH0 MSTORE PUSH1 0x20 PUSH0 KECCAK256 SWAP1 JUMPDEST DUP2 SLOAD DUP2 MSTORE SWAP1 PUSH1 0x1 ADD SWAP1 PUSH1 0x20 ADD DUP1 DUP4 GT PUSH2 0x1C8 JUMPI DUP3 SWAP1 SUB PUSH1 0x1F AND DUP3 ADD SWAP2 JUMPDEST POP POP POP POP POP SWAP1 DUP1 PUSH1 0x2 ADD SLOAD SWAP1 DUP1 PUSH1 0x3 ADD PUSH0 SWAP1 SLOAD SWAP1 PUSH2 0x100 EXP SWAP1 DIV PUSH1 0xFF AND SWAP1 POP DUP5 JUMP JUMPDEST PUSH2 0x20F PUSH2 0x662 JUMP JUMPDEST PUSH0 DUP1 DUP5 PUSH20 0xFFFFFFFFFFFFFFFFFFFFFFFFFFFFFFFFFFFFFFFF AND PUSH20 0xFFFFFFFFFFFFFFFFFFFFFFFFFFFFFFFFFFFFFFFF AND DUP2 MSTORE PUSH1 0x20 ADD SWAP1 DUP2 MSTORE PUSH1 0x20 ADD PUSH0 KECCAK256 DUP3 PUSH1 0xFF AND DUP2 SLOAD DUP2 LT PUSH2 0x260 JUMPI PUSH2 0x25F PUSH2 0xD02 JUMP JUMPDEST JUMPDEST SWAP1 PUSH0 MSTORE PUSH1 0x20 PUSH0 KECCAK256 SWAP1 PUSH1 0x4 MUL ADD PUSH1 0x40 MLOAD DUP1 PUSH1 0x80 ADD PUSH1 0x40 MSTORE SWAP1 DUP2 PUSH0 DUP3 ADD PUSH0 SWAP1 SLOAD SWAP1 PUSH2 0x100 EXP SWAP1 DIV PUSH20 0xFFFFFFFFFFFFFFFFFFFFFFFFFFFFFFFFFFFFFFFF AND PUSH20 0xFFFFFFFFFFFFFFFFFFFFFFFFFFFFFFFFFFFFFFFF AND PUSH20 0xFFFFFFFFFFFFFFFFFFFFFFFFFFFFFFFFFFFFFFFF AND DUP2 MSTORE PUSH1 0x20 ADD PUSH1 0x1 DUP3 ADD DUP1 SLOAD PUSH2 0x2DB SWAP1 PUSH2 0xCD2 JUMP JUMPDEST DUP1 PUSH1 0x1F ADD PUSH1 0x20 DUP1 SWAP2 DIV MUL PUSH1 0x20 ADD PUSH1 0x40 MLOAD SWAP1 DUP2 ADD PUSH1 0x40 MSTORE DUP1 SWAP3 SWAP2 SWAP1 DUP2 DUP2 MSTORE PUSH1 0x20 ADD DUP3 DUP1 SLOAD PUSH2 0x307 SWAP1 PUSH2 0xCD2 JUMP JUMPDEST DUP1 ISZERO PUSH2 0x352 JUMPI DUP1 PUSH1 0x1F LT PUSH2 0x329 JUMPI PUSH2 0x100 DUP1 DUP4 SLOAD DIV MUL DUP4 MSTORE SWAP2 PUSH1 0x20 ADD SWAP2 PUSH2 0x352 JUMP JUMPDEST DUP3 ADD SWAP2 SWAP1 PUSH0 MSTORE PUSH1 0x20 PUSH0 KECCAK256 SWAP1 JUMPDEST DUP2 SLOAD DUP2 MSTORE SWAP1 PUSH1 0x1 ADD SWAP1 PUSH1 0x20 ADD DUP1 DUP4 GT PUSH2 0x335 JUMPI DUP3 SWAP1 SUB PUSH1 0x1F AND DUP3 ADD SWAP2 JUMPDEST POP POP POP POP POP DUP2 MSTORE PUSH1 0x20 ADD PUSH1 0x2 DUP3 ADD SLOAD DUP2 MSTORE PUSH1 0x20 ADD PUSH1 0x3 DUP3 ADD PUSH0 SWAP1 SLOAD SWAP1 PUSH2 0x100 EXP SWAP1 DIV PUSH1 0xFF AND PUSH1 0xFF AND PUSH1 0xFF AND DUP2 MSTORE POP POP SWAP1 POP SWAP3 SWAP2 POP POP JUMP JUMPDEST PUSH2 0x391 PUSH2 0x662 JUMP JUMPDEST PUSH0 PUSH1 0x40 MLOAD DUP1 PUSH1 0x80 ADD PUSH1 0x40 MSTORE DUP1 CALLER PUSH20 0xFFFFFFFFFFFFFFFFFFFFFFFFFFFFFFFFFFFFFFFF AND DUP2 MSTORE PUSH1 0x20 ADD DUP5 DUP2 MSTORE PUSH1 0x20 ADD TIMESTAMP DUP2 MSTORE PUSH1 0x20 ADD PUSH0 PUSH1 0xFF AND DUP2 MSTORE POP SWAP1 POP PUSH0 DUP1 CALLER PUSH20 0xFFFFFFFFFFFFFFFFFFFFFFFFFFFFFFFFFFFFFFFF AND PUSH20 0xFFFFFFFFFFFFFFFFFFFFFFFFFFFFFFFFFFFFFFFF AND DUP2 MSTORE PUSH1 0x20 ADD SWAP1 DUP2 MSTORE PUSH1 0x20 ADD PUSH0 KECCAK256 DUP2 SWAP1 DUP1 PUSH1 0x1 DUP2 SLOAD ADD DUP1 DUP3 SSTORE DUP1 SWAP2 POP POP PUSH1 0x1 SWAP1 SUB SWAP1 PUSH0 MSTORE PUSH1 0x20 PUSH0 KECCAK256 SWAP1 PUSH1 0x4 MUL ADD PUSH0 SWAP1 SWAP2 SWAP1 SWAP2 SWAP1 SWAP2 POP PUSH0 DUP3 ADD MLOAD DUP2 PUSH0 ADD PUSH0 PUSH2 0x100 EXP DUP2 SLOAD DUP2 PUSH20 0xFFFFFFFFFFFFFFFFFFFFFFFFFFFFFFFFFFFFFFFF MUL NOT AND SWAP1 DUP4 PUSH20 0xFFFFFFFFFFFFFFFFFFFFFFFFFFFFFFFFFFFFFFFF AND MUL OR SWAP1 SSTORE POP PUSH1 0x20 DUP3 ADD MLOAD DUP2 PUSH1 0x1 ADD SWAP1 DUP2 PUSH2 0x48A SWAP2 SWAP1 PUSH2 0xECC JUMP JUMPDEST POP PUSH1 0x40 DUP3 ADD MLOAD DUP2 PUSH1 0x2 ADD SSTORE PUSH1 0x60 DUP3 ADD MLOAD DUP2 PUSH1 0x3 ADD PUSH0 PUSH2 0x100 EXP DUP2 SLOAD DUP2 PUSH1 0xFF MUL NOT AND SWAP1 DUP4 PUSH1 0xFF AND MUL OR SWAP1 SSTORE POP POP POP DUP1 SWAP2 POP POP SWAP2 SWAP1 POP JUMP JUMPDEST PUSH1 0x60 PUSH0 DUP1 DUP4 PUSH20 0xFFFFFFFFFFFFFFFFFFFFFFFFFFFFFFFFFFFFFFFF AND PUSH20 0xFFFFFFFFFFFFFFFFFFFFFFFFFFFFFFFFFFFFFFFF AND DUP2 MSTORE PUSH1 0x20 ADD SWAP1 DUP2 MSTORE PUSH1 0x20 ADD PUSH0 KECCAK256 DUP1 SLOAD DUP1 PUSH1 0x20 MUL PUSH1 0x20 ADD PUSH1 0x40 MLOAD SWAP1 DUP2 ADD PUSH1 0x40 MSTORE DUP1 SWAP3 SWAP2 SWAP1 DUP2 DUP2 MSTORE PUSH1 0x20 ADD PUSH0 SWAP1 JUMPDEST DUP3 DUP3 LT ISZERO PUSH2 0x657 JUMPI DUP4 DUP3 SWAP1 PUSH0 MSTORE PUSH1 0x20 PUSH0 KECCAK256 SWAP1 PUSH1 0x4 MUL ADD PUSH1 0x40 MLOAD DUP1 PUSH1 0x80 ADD PUSH1 0x40 MSTORE SWAP1 DUP2 PUSH0 DUP3 ADD PUSH0 SWAP1 SLOAD SWAP1 PUSH2 0x100 EXP SWAP1 DIV PUSH20 0xFFFFFFFFFFFFFFFFFFFFFFFFFFFFFFFFFFFFFFFF AND PUSH20 0xFFFFFFFFFFFFFFFFFFFFFFFFFFFFFFFFFFFFFFFF AND PUSH20 0xFFFFFFFFFFFFFFFFFFFFFFFFFFFFFFFFFFFFFFFF AND DUP2 MSTORE PUSH1 0x20 ADD PUSH1 0x1 DUP3 ADD DUP1 SLOAD PUSH2 0x5A2 SWAP1 PUSH2 0xCD2 JUMP JUMPDEST DUP1 PUSH1 0x1F ADD PUSH1 0x20 DUP1 SWAP2 DIV MUL PUSH1 0x20 ADD PUSH1 0x40 MLOAD SWAP1 DUP2 ADD PUSH1 0x40 MSTORE DUP1 SWAP3 SWAP2 SWAP1 DUP2 DUP2 MSTORE PUSH1 0x20 ADD DUP3 DUP1 SLOAD PUSH2 0x5CE SWAP1 PUSH2 0xCD2 JUMP JUMPDEST DUP1 ISZERO PUSH2 0x619 JUMPI DUP1 PUSH1 0x1F LT PUSH2 0x5F0 JUMPI PUSH2 0x100 DUP1 DUP4 SLOAD DIV MUL DUP4 MSTORE SWAP2 PUSH1 0x20 ADD SWAP2 PUSH2 0x619 JUMP JUMPDEST DUP3 ADD SWAP2 SWAP1 PUSH0 MSTORE PUSH1 0x20 PUSH0 KECCAK256 SWAP1 JUMPDEST DUP2 SLOAD DUP2 MSTORE SWAP1 PUSH1 0x1 ADD SWAP1 PUSH1 0x20 ADD DUP1 DUP4 GT PUSH2 0x5FC JUMPI DUP3 SWAP1 SUB PUSH1 0x1F AND DUP3 ADD SWAP2 JUMPDEST POP POP POP POP POP DUP2 MSTORE PUSH1 0x20 ADD PUSH1 0x2 DUP3 ADD SLOAD DUP2 MSTORE PUSH1 0x20 ADD PUSH1 0x3 DUP3 ADD PUSH0 SWAP1 SLOAD SWAP1 PUSH2 0x100 EXP SWAP1 DIV PUSH1 0xFF AND PUSH1 0xFF AND PUSH1 0xFF AND DUP2 MSTORE POP POP DUP2 MSTORE PUSH1 0x20 ADD SWAP1 PUSH1 0x1 ADD SWAP1 PUSH2 0x51D JUMP JUMPDEST POP POP POP POP SWAP1 POP SWAP2 SWAP1 POP JUMP JUMPDEST PUSH1 0x40 MLOAD DUP1 PUSH1 0x80 ADD PUSH1 0x40 MSTORE DUP1 PUSH0 PUSH20 0xFFFFFFFFFFFFFFFFFFFFFFFFFFFFFFFFFFFFFFFF AND DUP2 MSTORE PUSH1 0x20 ADD PUSH1 0x60 DUP2 MSTORE PUSH1 0x20 ADD PUSH0 DUP2 MSTORE PUSH1 0x20 ADD PUSH0 PUSH1 0xFF AND DUP2 MSTORE POP SWAP1 JUMP JUMPDEST PUSH0 PUSH1 0x40 MLOAD SWAP1 POP SWAP1 JUMP JUMPDEST PUSH0 DUP1 REVERT JUMPDEST PUSH0 DUP1 REVERT JUMPDEST PUSH0 PUSH20 0xFFFFFFFFFFFFFFFFFFFFFFFFFFFFFFFFFFFFFFFF DUP3 AND SWAP1 POP SWAP2 SWAP1 POP JUMP JUMPDEST PUSH0 PUSH2 0x6DA DUP3 PUSH2 0x6B1 JUMP JUMPDEST SWAP1 POP SWAP2 SWAP1 POP JUMP JUMPDEST PUSH2 0x6EA DUP2 PUSH2 0x6D0 JUMP JUMPDEST DUP2 EQ PUSH2 0x6F4 JUMPI PUSH0 DUP1 REVERT JUMPDEST POP JUMP JUMPDEST PUSH0 DUP2 CALLDATALOAD SWAP1 POP PUSH2 0x705 DUP2 PUSH2 0x6E1 JUMP JUMPDEST SWAP3 SWAP2 POP POP JUMP JUMPDEST PUSH0 DUP2 SWAP1 POP SWAP2 SWAP1 POP JUMP JUMPDEST PUSH2 0x71D DUP2 PUSH2 0x70B JUMP JUMPDEST DUP2 EQ PUSH2 0x727 JUMPI PUSH0 DUP1 REVERT JUMPDEST POP JUMP JUMPDEST PUSH0 DUP2 CALLDATALOAD SWAP1 POP PUSH2 0x738 DUP2 PUSH2 0x714 JUMP JUMPDEST SWAP3 SWAP2 POP POP JUMP JUMPDEST PUSH0 DUP1 PUSH1 0x40 DUP4 DUP6 SUB SLT ISZERO PUSH2 0x754 JUMPI PUSH2 0x753 PUSH2 0x6A9 JUMP JUMPDEST JUMPDEST PUSH0 PUSH2 0x761 DUP6 DUP3 DUP7 ADD PUSH2 0x6F7 JUMP JUMPDEST SWAP3 POP POP PUSH1 0x20 PUSH2 0x772 DUP6 DUP3 DUP7 ADD PUSH2 0x72A JUMP JUMPDEST SWAP2 POP POP SWAP3 POP SWAP3 SWAP1 POP JUMP JUMPDEST PUSH2 0x785 DUP2 PUSH2 0x6D0 JUMP JUMPDEST DUP3 MSTORE POP POP JUMP JUMPDEST PUSH0 DUP2 MLOAD SWAP1 POP SWAP2 SWAP1 POP JUMP JUMPDEST PUSH0 DUP3 DUP3 MSTORE PUSH1 0x20 DUP3 ADD SWAP1 POP SWAP3 SWAP2 POP POP JUMP JUMPDEST DUP3 DUP2 DUP4 MCOPY PUSH0 DUP4 DUP4 ADD MSTORE POP POP POP JUMP JUMPDEST PUSH0 PUSH1 0x1F NOT PUSH1 0x1F DUP4 ADD AND SWAP1 POP SWAP2 SWAP1 POP JUMP JUMPDEST PUSH0 PUSH2 0x7CD DUP3 PUSH2 0x78B JUMP JUMPDEST PUSH2 0x7D7 DUP2 DUP6 PUSH2 0x795 JUMP JUMPDEST SWAP4 POP PUSH2 0x7E7 DUP2 DUP6 PUSH1 0x20 DUP7 ADD PUSH2 0x7A5 JUMP JUMPDEST PUSH2 0x7F0 DUP2 PUSH2 0x7B3 JUMP JUMPDEST DUP5 ADD SWAP2 POP POP SWAP3 SWAP2 POP POP JUMP JUMPDEST PUSH2 0x804 DUP2 PUSH2 0x70B JUMP JUMPDEST DUP3 MSTORE POP POP JUMP JUMPDEST PUSH0 PUSH1 0xFF DUP3 AND SWAP1 POP SWAP2 SWAP1 POP JUMP JUMPDEST PUSH2 0x81F DUP2 PUSH2 0x80A JUMP JUMPDEST DUP3 MSTORE POP POP JUMP JUMPDEST PUSH0 PUSH1 0x80 DUP3 ADD SWAP1 POP PUSH2 0x838 PUSH0 DUP4 ADD DUP8 PUSH2 0x77C JUMP JUMPDEST DUP2 DUP2 SUB PUSH1 0x20 DUP4 ADD MSTORE PUSH2 0x84A DUP2 DUP7 PUSH2 0x7C3 JUMP JUMPDEST SWAP1 POP PUSH2 0x859 PUSH1 0x40 DUP4 ADD DUP6 PUSH2 0x7FB JUMP JUMPDEST PUSH2 0x866 PUSH1 0x60 DUP4 ADD DUP5 PUSH2 0x816 JUMP JUMPDEST SWAP6 SWAP5 POP POP POP POP POP JUMP JUMPDEST PUSH2 0x878 DUP2 PUSH2 0x80A JUMP JUMPDEST DUP2 EQ PUSH2 0x882 JUMPI PUSH0 DUP1 REVERT JUMPDEST POP JUMP JUMPDEST PUSH0 DUP2 CALLDATALOAD SWAP1 POP PUSH2 0x893 DUP2 PUSH2 0x86F JUMP JUMPDEST SWAP3 SWAP2 POP POP JUMP JUMPDEST PUSH0 DUP1 PUSH1 0x40 DUP4 DUP6 SUB SLT ISZERO PUSH2 0x8AF JUMPI PUSH2 0x8AE PUSH2 0x6A9 JUMP JUMPDEST JUMPDEST PUSH0 PUSH2 0x8BC DUP6 DUP3 DUP7 ADD PUSH2 0x6F7 JUMP JUMPDEST SWAP3 POP POP PUSH1 0x20 PUSH2 0x8CD DUP6 DUP3 DUP7 ADD PUSH2 0x885 JUMP JUMPDEST SWAP2 POP POP SWAP3 POP SWAP3 SWAP1 POP JUMP JUMPDEST PUSH2 0x8E0 DUP2 PUSH2 0x6D0 JUMP JUMPDEST DUP3 MSTORE POP POP JUMP JUMPDEST PUSH0 DUP3 DUP3 MSTORE PUSH1 0x20 DUP3 ADD SWAP1 POP SWAP3 SWAP2 POP POP JUMP JUMPDEST PUSH0 PUSH2 0x900 DUP3 PUSH2 0x78B JUMP JUMPDEST PUSH2 0x90A DUP2 DUP6 PUSH2 0x8E6 JUMP JUMPDEST SWAP4 POP PUSH2 0x91A DUP2 DUP6 PUSH1 0x20 DUP7 ADD PUSH2 0x7A5 JUMP JUMPDEST PUSH2 0x923 DUP2 PUSH2 0x7B3 JUMP JUMPDEST DUP5 ADD SWAP2 POP POP SWAP3 SWAP2 POP POP JUMP JUMPDEST PUSH2 0x937 DUP2 PUSH2 0x70B JUMP JUMPDEST DUP3 MSTORE POP POP JUMP JUMPDEST PUSH2 0x946 DUP2 PUSH2 0x80A JUMP JUMPDEST DUP3 MSTORE POP POP JUMP JUMPDEST PUSH0 PUSH1 0x80 DUP4 ADD PUSH0 DUP4 ADD MLOAD PUSH2 0x961 PUSH0 DUP7 ADD DUP3 PUSH2 0x8D7 JUMP JUMPDEST POP PUSH1 0x20 DUP4 ADD MLOAD DUP5 DUP3 SUB PUSH1 0x20 DUP7 ADD MSTORE PUSH2 0x979 DUP3 DUP3 PUSH2 0x8F6 JUMP JUMPDEST SWAP2 POP POP PUSH1 0x40 DUP4 ADD MLOAD PUSH2 0x98E PUSH1 0x40 DUP7 ADD DUP3 PUSH2 0x92E JUMP JUMPDEST POP PUSH1 0x60 DUP4 ADD MLOAD PUSH2 0x9A1 PUSH1 0x60 DUP7 ADD DUP3 PUSH2 0x93D JUMP JUMPDEST POP DUP1 SWAP2 POP POP SWAP3 SWAP2 POP POP JUMP JUMPDEST PUSH0 PUSH1 0x20 DUP3 ADD SWAP1 POP DUP2 DUP2 SUB PUSH0 DUP4 ADD MSTORE PUSH2 0x9C4 DUP2 DUP5 PUSH2 0x94C JUMP JUMPDEST SWAP1 POP SWAP3 SWAP2 POP POP JUMP JUMPDEST PUSH0 DUP1 REVERT JUMPDEST PUSH0 DUP1 REVERT JUMPDEST PUSH32 0x4E487B7100000000000000000000000000000000000000000000000000000000 PUSH0 MSTORE PUSH1 0x41 PUSH1 0x4 MSTORE PUSH1 0x24 PUSH0 REVERT JUMPDEST PUSH2 0xA0A DUP3 PUSH2 0x7B3 JUMP JUMPDEST DUP2 ADD DUP2 DUP2 LT PUSH8 0xFFFFFFFFFFFFFFFF DUP3 GT OR ISZERO PUSH2 0xA29 JUMPI PUSH2 0xA28 PUSH2 0x9D4 JUMP JUMPDEST JUMPDEST DUP1 PUSH1 0x40 MSTORE POP POP POP JUMP JUMPDEST PUSH0 PUSH2 0xA3B PUSH2 0x6A0 JUMP JUMPDEST SWAP1 POP PUSH2 0xA47 DUP3 DUP3 PUSH2 0xA01 JUMP JUMPDEST SWAP2 SWAP1 POP JUMP JUMPDEST PUSH0 PUSH8 0xFFFFFFFFFFFFFFFF DUP3 GT ISZERO PUSH2 0xA66 JUMPI PUSH2 0xA65 PUSH2 0x9D4 JUMP JUMPDEST JUMPDEST PUSH2 0xA6F DUP3 PUSH2 0x7B3 JUMP JUMPDEST SWAP1 POP PUSH1 0x20 DUP2 ADD SWAP1 POP SWAP2 SWAP1 POP JUMP JUMPDEST DUP3 DUP2 DUP4 CALLDATACOPY PUSH0 DUP4 DUP4 ADD MSTORE POP POP POP JUMP JUMPDEST PUSH0 PUSH2 0xA9C PUSH2 0xA97 DUP5 PUSH2 0xA4C JUMP JUMPDEST PUSH2 0xA32 JUMP JUMPDEST SWAP1 POP DUP3 DUP2 MSTORE PUSH1 0x20 DUP2 ADD DUP5 DUP5 DUP5 ADD GT ISZERO PUSH2 0xAB8 JUMPI PUSH2 0xAB7 PUSH2 0x9D0 JUMP JUMPDEST JUMPDEST PUSH2 0xAC3 DUP5 DUP3 DUP6 PUSH2 0xA7C JUMP JUMPDEST POP SWAP4 SWAP3 POP POP POP JUMP JUMPDEST PUSH0 DUP3 PUSH1 0x1F DUP4 ADD SLT PUSH2 0xADF JUMPI PUSH2 0xADE PUSH2 0x9CC JUMP JUMPDEST JUMPDEST DUP2 CALLDATALOAD PUSH2 0xAEF DUP5 DUP3 PUSH1 0x20 DUP7 ADD PUSH2 0xA8A JUMP JUMPDEST SWAP2 POP POP SWAP3 SWAP2 POP POP JUMP JUMPDEST PUSH0 PUSH1 0x20 DUP3 DUP5 SUB SLT ISZERO PUSH2 0xB0D JUMPI PUSH2 0xB0C PUSH2 0x6A9 JUMP JUMPDEST JUMPDEST PUSH0 DUP3 ADD CALLDATALOAD PUSH8 0xFFFFFFFFFFFFFFFF DUP2 GT ISZERO PUSH2 0xB2A JUMPI PUSH2 0xB29 PUSH2 0x6AD JUMP JUMPDEST JUMPDEST PUSH2 0xB36 DUP5 DUP3 DUP6 ADD PUSH2 0xACB JUMP JUMPDEST SWAP2 POP POP SWAP3 SWAP2 POP POP JUMP JUMPDEST PUSH0 PUSH1 0x20 DUP3 DUP5 SUB SLT ISZERO PUSH2 0xB54 JUMPI PUSH2 0xB53 PUSH2 0x6A9 JUMP JUMPDEST JUMPDEST PUSH0 PUSH2 0xB61 DUP5 DUP3 DUP6 ADD PUSH2 0x6F7 JUMP JUMPDEST SWAP2 POP POP SWAP3 SWAP2 POP POP JUMP JUMPDEST PUSH0 DUP2 MLOAD SWAP1 POP SWAP2 SWAP1 POP JUMP JUMPDEST PUSH0 DUP3 DUP3 MSTORE PUSH1 0x20 DUP3 ADD SWAP1 POP SWAP3 SWAP2 POP POP JUMP JUMPDEST PUSH0 DUP2 SWAP1 POP PUSH1 0x20 DUP3 ADD SWAP1 POP SWAP2 SWAP1 POP JUMP JUMPDEST PUSH0 PUSH1 0x80 DUP4 ADD PUSH0 DUP4 ADD MLOAD PUSH2 0xBA8 PUSH0 DUP7 ADD DUP3 PUSH2 0x8D7 JUMP JUMPDEST POP PUSH1 0x20 DUP4 ADD MLOAD DUP5 DUP3 SUB PUSH1 0x20 DUP7 ADD MSTORE PUSH2 0xBC0 DUP3 DUP3 PUSH2 0x8F6 JUMP JUMPDEST SWAP2 POP POP PUSH1 0x40 DUP4 ADD MLOAD PUSH2 0xBD5 PUSH1 0x40 DUP7 ADD DUP3 PUSH2 0x92E JUMP JUMPDEST POP PUSH1 0x60 DUP4 ADD MLOAD PUSH2 0xBE8 PUSH1 0x60 DUP7 ADD DUP3 PUSH2 0x93D JUMP JUMPDEST POP DUP1 SWAP2 POP POP SWAP3 SWAP2 POP POP JUMP JUMPDEST PUSH0 PUSH2 0xBFE DUP4 DUP4 PUSH2 0xB93 JUMP JUMPDEST SWAP1 POP SWAP3 SWAP2 POP POP JUMP JUMPDEST PUSH0 PUSH1 0x20 DUP3 ADD SWAP1 POP SWAP2 SWAP1 POP JUMP JUMPDEST PUSH0 PUSH2 0xC1C DUP3 PUSH2 0xB6A JUMP JUMPDEST PUSH2 0xC26 DUP2 DUP6 PUSH2 0xB74 JUMP JUMPDEST SWAP4 POP DUP4 PUSH1 0x20 DUP3 MUL DUP6 ADD PUSH2 0xC38 DUP6 PUSH2 0xB84 JUMP JUMPDEST DUP1 PUSH0 JUMPDEST DUP6 DUP2 LT ISZERO PUSH2 0xC73 JUMPI DUP5 DUP5 SUB DUP10 MSTORE DUP2 MLOAD PUSH2 0xC54 DUP6 DUP3 PUSH2 0xBF3 JUMP JUMPDEST SWAP5 POP PUSH2 0xC5F DUP4 PUSH2 0xC06 JUMP JUMPDEST SWAP3 POP PUSH1 0x20 DUP11 ADD SWAP10 POP POP PUSH1 0x1 DUP2 ADD SWAP1 POP PUSH2 0xC3B JUMP JUMPDEST POP DUP3 SWAP8 POP DUP8 SWAP6 POP POP POP POP POP POP SWAP3 SWAP2 POP POP JUMP JUMPDEST PUSH0 PUSH1 0x20 DUP3 ADD SWAP1 POP DUP2 DUP2 SUB PUSH0 DUP4 ADD MSTORE PUSH2 0xC9D DUP2 DUP5 PUSH2 0xC12 JUMP JUMPDEST SWAP1 POP SWAP3 SWAP2 POP POP JUMP JUMPDEST PUSH32 0x4E487B7100000000000000000000000000000000000000000000000000000000 PUSH0 MSTORE PUSH1 0x22 PUSH1 0x4 MSTORE PUSH1 0x24 PUSH0 REVERT JUMPDEST PUSH0 PUSH1 0x2 DUP3 DIV SWAP1 POP PUSH1 0x1 DUP3 AND DUP1 PUSH2 0xCE9 JUMPI PUSH1 0x7F DUP3 AND SWAP2 POP JUMPDEST PUSH1 0x20 DUP3 LT DUP2 SUB PUSH2 0xCFC JUMPI PUSH2 0xCFB PUSH2 0xCA5 JUMP JUMPDEST JUMPDEST POP SWAP2 SWAP1 POP JUMP JUMPDEST PUSH32 0x4E487B7100000000000000000000000000000000000000000000000000000000 PUSH0 MSTORE PUSH1 0x32 PUSH1 0x4 MSTORE PUSH1 0x24 PUSH0 REVERT JUMPDEST PUSH0 DUP2 SWAP1 POP DUP2 PUSH0 MSTORE PUSH1 0x20 PUSH0 KECCAK256 SWAP1 POP SWAP2 SWAP1 POP JUMP JUMPDEST PUSH0 PUSH1 0x20 PUSH1 0x1F DUP4 ADD DIV SWAP1 POP SWAP2 SWAP1 POP JUMP JUMPDEST PUSH0 DUP3 DUP3 SHL SWAP1 POP SWAP3 SWAP2 POP POP JUMP JUMPDEST PUSH0 PUSH1 0x8 DUP4 MUL PUSH2 0xD8B PUSH32 0xFFFFFFFFFFFFFFFFFFFFFFFFFFFFFFFFFFFFFFFFFFFFFFFFFFFFFFFFFFFFFFFF DUP3 PUSH2 0xD50 JUMP JUMPDEST PUSH2 0xD95 DUP7 DUP4 PUSH2 0xD50 JUMP JUMPDEST SWAP6 POP DUP1 NOT DUP5 AND SWAP4 POP DUP1 DUP7 AND DUP5 OR SWAP3 POP POP POP SWAP4 SWAP3 POP POP POP JUMP JUMPDEST PUSH0 DUP2 SWAP1 POP SWAP2 SWAP1 POP JUMP JUMPDEST PUSH0 PUSH2 0xDD0 PUSH2 0xDCB PUSH2 0xDC6 DUP5 PUSH2 0x70B JUMP JUMPDEST PUSH2 0xDAD JUMP JUMPDEST PUSH2 0x70B JUMP JUMPDEST SWAP1 POP SWAP2 SWAP1 POP JUMP JUMPDEST PUSH0 DUP2 SWAP1 POP SWAP2 SWAP1 POP JUMP JUMPDEST PUSH2 0xDE9 DUP4 PUSH2 0xDB6 JUMP JUMPDEST PUSH2 0xDFD PUSH2 0xDF5 DUP3 PUSH2 0xDD7 JUMP JUMPDEST DUP5 DUP5 SLOAD PUSH2 0xD5C JUMP JUMPDEST DUP3 SSTORE POP POP POP POP JUMP JUMPDEST PUSH0 SWAP1 JUMP JUMPDEST PUSH2 0xE11 PUSH2 0xE05 JUMP JUMPDEST PUSH2 0xE1C DUP2 DUP5 DUP5 PUSH2 0xDE0 JUMP JUMPDEST POP POP POP JUMP JUMPDEST JUMPDEST DUP2 DUP2 LT ISZERO PUSH2 0xE3F JUMPI PUSH2 0xE34 PUSH0 DUP3 PUSH2 0xE09 JUMP JUMPDEST PUSH1 0x1 DUP2 ADD SWAP1 POP PUSH2 0xE22 JUMP JUMPDEST POP POP JUMP JUMPDEST PUSH1 0x1F DUP3 GT ISZERO PUSH2 0xE84 JUMPI PUSH2 0xE55 DUP2 PUSH2 0xD2F JUMP JUMPDEST PUSH2 0xE5E DUP5 PUSH2 0xD41 JUMP JUMPDEST DUP2 ADD PUSH1 0x20 DUP6 LT ISZERO PUSH2 0xE6D JUMPI DUP2 SWAP1 POP JUMPDEST PUSH2 0xE81 PUSH2 0xE79 DUP6 PUSH2 0xD41 JUMP JUMPDEST DUP4 ADD DUP3 PUSH2 0xE21 JUMP JUMPDEST POP POP JUMPDEST POP POP POP JUMP JUMPDEST PUSH0 DUP3 DUP3 SHR SWAP1 POP SWAP3 SWAP2 POP POP JUMP JUMPDEST PUSH0 PUSH2 0xEA4 PUSH0 NOT DUP5 PUSH1 0x8 MUL PUSH2 0xE89 JUMP JUMPDEST NOT DUP1 DUP4 AND SWAP2 POP POP SWAP3 SWAP2 POP POP JUMP JUMPDEST PUSH0 PUSH2 0xEBC DUP4 DUP4 PUSH2 0xE95 JUMP JUMPDEST SWAP2 POP DUP3 PUSH1 0x2 MUL DUP3 OR SWAP1 POP SWAP3 SWAP2 POP POP JUMP JUMPDEST PUSH2 0xED5 DUP3 PUSH2 0x78B JUMP JUMPDEST PUSH8 0xFFFFFFFFFFFFFFFF DUP2 GT ISZERO PUSH2 0xEEE JUMPI PUSH2 0xEED PUSH2 0x9D4 JUMP JUMPDEST JUMPDEST PUSH2 0xEF8 DUP3 SLOAD PUSH2 0xCD2 JUMP JUMPDEST PUSH2 0xF03 DUP3 DUP3 DUP6 PUSH2 0xE43 JUMP JUMPDEST PUSH0 PUSH1 0x20 SWAP1 POP PUSH1 0x1F DUP4 GT PUSH1 0x1 DUP2 EQ PUSH2 0xF34 JUMPI PUSH0 DUP5 ISZERO PUSH2 0xF22 JUMPI DUP3 DUP8 ADD MLOAD SWAP1 POP JUMPDEST PUSH2 0xF2C DUP6 DUP3 PUSH2 0xEB1 JUMP JUMPDEST DUP7 SSTORE POP PUSH2 0xF93 JUMP JUMPDEST PUSH1 0x1F NOT DUP5 AND PUSH2 0xF42 DUP7 PUSH2 0xD2F JUMP JUMPDEST PUSH0 JUMPDEST DUP3 DUP2 LT ISZERO PUSH2 0xF69 JUMPI DUP5 DUP10 ADD MLOAD DUP3 SSTORE PUSH1 0x1 DUP3 ADD SWAP2 POP PUSH1 0x20 DUP6 ADD SWAP5 POP PUSH1 0x20 DUP2 ADD SWAP1 POP PUSH2 0xF44 JUMP JUMPDEST DUP7 DUP4 LT ISZERO PUSH2 0xF86 JUMPI DUP5 DUP10 ADD MLOAD PUSH2 0xF82 PUSH1 0x1F DUP10 AND DUP3 PUSH2 0xE95 JUMP JUMPDEST DUP4 SSTORE POP JUMPDEST PUSH1 0x1 PUSH1 0x2 DUP9 MUL ADD DUP9 SSTORE POP POP POP JUMPDEST POP POP POP POP POP POP JUMP INVALID LOG2 PUSH5 0x6970667358 0x22 SLT KECCAK256 0x28 0x21 0x4B 0xE5 ORIGIN SELFDESTRUCT 0xAF 0xDC SWAP14 ORIGIN 0xB0 PUSH3 0x5332BB REVERT DUP3 0xCD 0xDB LOG0 0xD1 REVERT 0xCE PUSH3 0x7E2C2B 0xED 0xCF DUP1 0xEE SWAP7 PUSH5 0x736F6C6343 STOP ADDMOD BYTE STOP CALLER "
				},
				"gasEstimates": {
					"creation": {
						"codeDepositCost": "809800",
						"executionCost": "842",
						"totalCost": "810642"
					},
					"external": {
						"createTweet(string)": "infinite",
						"getTweetbyId(address,uint8)": "infinite",
						"getTweets(address)": "infinite",
						"tweets(address,uint256)": "infinite"
					}
				},
				"methodIdentifiers": {
					"createTweet(string)": "7c9cd2bc",
					"getTweetbyId(address,uint8)": "50ed2759",
					"getTweets(address)": "9e92b093",
					"tweets(address,uint256)": "05a1b4a9"
				}
			},
			"storageLayout": {
				"storage": [
					{
						"astId": 16,
						"contract": "Twiiter.sol:Twitter",
						"label": "tweets",
						"offset": 0,
						"slot": "0",
						"type": "t_mapping(t_address,t_array(t_struct(Tweets)10_storage)dyn_storage)"
					}
				],
				"types": {
					"t_address": {
						"encoding": "inplace",
						"label": "address",
						"numberOfBytes": "20"
					},
					"t_array(t_struct(Tweets)10_storage)dyn_storage": {
						"base": "t_struct(Tweets)10_storage",
						"encoding": "dynamic_array",
						"label": "struct Twitter.Tweets[]",
						"numberOfBytes": "32"
					},
					"t_mapping(t_address,t_array(t_struct(Tweets)10_storage)dyn_storage)": {
						"encoding": "mapping",
						"key": "t_address",
						"label": "mapping(address => struct Twitter.Tweets[])",
						"numberOfBytes": "32",
						"value": "t_array(t_struct(Tweets)10_storage)dyn_storage"
					},
					"t_string_storage": {
						"encoding": "bytes",
						"label": "string",
						"numberOfBytes": "32"
					},
					"t_struct(Tweets)10_storage": {
						"encoding": "inplace",
						"label": "struct Twitter.Tweets",
						"members": [
							{
								"astId": 3,
								"contract": "Twiiter.sol:Twitter",
								"label": "author",
								"offset": 0,
								"slot": "0",
								"type": "t_address"
							},
							{
								"astId": 5,
								"contract": "Twiiter.sol:Twitter",
								"label": "content",
								"offset": 0,
								"slot": "1",
								"type": "t_string_storage"
							},
							{
								"astId": 7,
								"contract": "Twiiter.sol:Twitter",
								"label": "timestamp",
								"offset": 0,
								"slot": "2",
								"type": "t_uint256"
							},
							{
								"astId": 9,
								"contract": "Twiiter.sol:Twitter",
								"label": "likes",
								"offset": 0,
								"slot": "3",
								"type": "t_uint8"
							}
						],
						"numberOfBytes": "128"
					},
					"t_uint256": {
						"encoding": "inplace",
						"label": "uint256",
						"numberOfBytes": "32"
					},
					"t_uint8": {
						"encoding": "inplace",
						"label": "uint8",
						"numberOfBytes": "1"
					}
				}
			},
			"userdoc": {
				"kind": "user",
				"methods": {},
				"version": 1
			}
		}
	}
}