{
	".states/Contracts/twitter.sol": {
		"Tweet": {
			"abi": [
				{
					"inputs": [],
					"stateMutability": "nonpayable",
					"type": "constructor"
				},
				{
					"inputs": [
						{
							"internalType": "address",
							"name": "newOwner",
							"type": "address"
						}
					],
					"name": "changeOwner",
					"outputs": [],
					"stateMutability": "nonpayable",
					"type": "function"
				},
				{
					"inputs": [
						{
							"internalType": "string",
							"name": "tweet",
							"type": "string"
						}
					],
					"name": "createTweet",
					"outputs": [
						{
							"components": [
								{
									"internalType": "uint16",
									"name": "id",
									"type": "uint16"
								},
								{
									"internalType": "address",
									"name": "author",
									"type": "address"
								},
								{
									"internalType": "string",
									"name": "content",
									"type": "string"
								},
								{
									"internalType": "uint256",
									"name": "timestamp",
									"type": "uint256"
								},
								{
									"internalType": "uint8",
									"name": "likes",
									"type": "uint8"
								}
							],
							"internalType": "struct Tweet.TweetInfo",
							"name": "",
							"type": "tuple"
						}
					],
					"stateMutability": "nonpayable",
					"type": "function"
				},
				{
					"inputs": [
						{
							"internalType": "address",
							"name": "particularUser",
							"type": "address"
						},
						{
							"internalType": "uint256",
							"name": "id",
							"type": "uint256"
						}
					],
					"name": "getTweetById",
					"outputs": [
						{
							"components": [
								{
									"internalType": "uint16",
									"name": "id",
									"type": "uint16"
								},
								{
									"internalType": "address",
									"name": "author",
									"type": "address"
								},
								{
									"internalType": "string",
									"name": "content",
									"type": "string"
								},
								{
									"internalType": "uint256",
									"name": "timestamp",
									"type": "uint256"
								},
								{
									"internalType": "uint8",
									"name": "likes",
									"type": "uint8"
								}
							],
							"internalType": "struct Tweet.TweetInfo",
							"name": "",
							"type": "tuple"
						}
					],
					"stateMutability": "view",
					"type": "function"
				},
				{
					"inputs": [
						{
							"internalType": "address",
							"name": "user",
							"type": "address"
						}
					],
					"name": "getTweets",
					"outputs": [
						{
							"components": [
								{
									"internalType": "uint16",
									"name": "id",
									"type": "uint16"
								},
								{
									"internalType": "address",
									"name": "author",
									"type": "address"
								},
								{
									"internalType": "string",
									"name": "content",
									"type": "string"
								},
								{
									"internalType": "uint256",
									"name": "timestamp",
									"type": "uint256"
								},
								{
									"internalType": "uint8",
									"name": "likes",
									"type": "uint8"
								}
							],
							"internalType": "struct Tweet.TweetInfo[]",
							"name": "",
							"type": "tuple[]"
						}
					],
					"stateMutability": "view",
					"type": "function"
				},
				{
					"inputs": [
						{
							"internalType": "address",
							"name": "tweetOfUser",
							"type": "address"
						},
						{
							"internalType": "uint16",
							"name": "tweetId",
							"type": "uint16"
						}
					],
					"name": "likeTweet",
					"outputs": [],
					"stateMutability": "nonpayable",
					"type": "function"
				},
				{
					"inputs": [],
					"name": "owner",
					"outputs": [
						{
							"internalType": "address",
							"name": "",
							"type": "address"
						}
					],
					"stateMutability": "view",
					"type": "function"
				},
				{
					"inputs": [
						{
							"internalType": "address",
							"name": "",
							"type": "address"
						},
						{
							"internalType": "uint256",
							"name": "",
							"type": "uint256"
						}
					],
					"name": "tweets",
					"outputs": [
						{
							"internalType": "uint16",
							"name": "id",
							"type": "uint16"
						},
						{
							"internalType": "address",
							"name": "author",
							"type": "address"
						},
						{
							"internalType": "string",
							"name": "content",
							"type": "string"
						},
						{
							"internalType": "uint256",
							"name": "timestamp",
							"type": "uint256"
						},
						{
							"internalType": "uint8",
							"name": "likes",
							"type": "uint8"
						}
					],
					"stateMutability": "view",
					"type": "function"
				},
				{
					"inputs": [
						{
							"internalType": "address",
							"name": "tweetOfUser",
							"type": "address"
						},
						{
							"internalType": "uint16",
							"name": "tweetId",
							"type": "uint16"
						}
					],
					"name": "unlikeTweet",
					"outputs": [],
					"stateMutability": "nonpayable",
					"type": "function"
				}
			],
			"devdoc": {
				"kind": "dev",
				"methods": {},
				"version": 1
			},
			"evm": {
				"assembly": "    /* \".states/Contracts/twitter.sol\":60:2764  contract Tweet {... */\n  mstore(0x40, 0x80)\n    /* \".states/Contracts/twitter.sol\":443:494  constructor() {... */\n  callvalue\n  dup1\n  iszero\n  tag_1\n  jumpi\n  0x00\n  dup1\n  revert\ntag_1:\n  pop\n    /* \".states/Contracts/twitter.sol\":476:486  msg.sender */\n  caller\n    /* \".states/Contracts/twitter.sol\":468:473  owner */\n  0x00\n  dup1\n    /* \".states/Contracts/twitter.sol\":468:486  owner = msg.sender */\n  0x0100\n  exp\n  dup2\n  sload\n  dup2\n  0xffffffffffffffffffffffffffffffffffffffff\n  mul\n  not\n  and\n  swap1\n  dup4\n  0xffffffffffffffffffffffffffffffffffffffff\n  and\n  mul\n  or\n  swap1\n  sstore\n  pop\n    /* \".states/Contracts/twitter.sol\":60:2764  contract Tweet {... */\n  dataSize(sub_0)\n  dup1\n  dataOffset(sub_0)\n  0x00\n  codecopy\n  0x00\n  return\nstop\n\nsub_0: assembly {\n        /* \".states/Contracts/twitter.sol\":60:2764  contract Tweet {... */\n      mstore(0x40, 0x80)\n      callvalue\n      dup1\n      iszero\n      tag_1\n      jumpi\n      0x00\n      dup1\n      revert\n    tag_1:\n      pop\n      jumpi(tag_2, lt(calldatasize, 0x04))\n      shr(0xe0, calldataload(0x00))\n      dup1\n      0x9e92b093\n      gt\n      tag_11\n      jumpi\n      dup1\n      0x9e92b093\n      eq\n      tag_7\n      jumpi\n      dup1\n      0xa6f9dae1\n      eq\n      tag_8\n      jumpi\n      dup1\n      0xc824a702\n      eq\n      tag_9\n      jumpi\n      dup1\n      0xca5f3173\n      eq\n      tag_10\n      jumpi\n      jump(tag_2)\n    tag_11:\n      dup1\n      0x05a1b4a9\n      eq\n      tag_3\n      jumpi\n      dup1\n      0x56a52cf9\n      eq\n      tag_4\n      jumpi\n      dup1\n      0x7c9cd2bc\n      eq\n      tag_5\n      jumpi\n      dup1\n      0x8da5cb5b\n      eq\n      tag_6\n      jumpi\n    tag_2:\n      0x00\n      dup1\n      revert\n        /* \".states/Contracts/twitter.sol\":1016:1061  mapping(address => TweetInfo[]) public tweets */\n    tag_3:\n      tag_12\n      0x04\n      dup1\n      calldatasize\n      sub\n      dup2\n      add\n      swap1\n      tag_13\n      swap2\n      swap1\n      tag_14\n      jump\t// in\n    tag_13:\n      tag_15\n      jump\t// in\n    tag_12:\n      mload(0x40)\n      tag_16\n      swap6\n      swap5\n      swap4\n      swap3\n      swap2\n      swap1\n      tag_17\n      jump\t// in\n    tag_16:\n      mload(0x40)\n      dup1\n      swap2\n      sub\n      swap1\n      return\n        /* \".states/Contracts/twitter.sol\":2027:2220  function unlikeTweet(address tweetOfUser, uint16 tweetId) external hasLikes(tweetOfUser, tweetId) {... */\n    tag_4:\n      tag_18\n      0x04\n      dup1\n      calldatasize\n      sub\n      dup2\n      add\n      swap1\n      tag_19\n      swap2\n      swap1\n      tag_20\n      jump\t// in\n    tag_19:\n      tag_21\n      jump\t// in\n    tag_18:\n      stop\n        /* \".states/Contracts/twitter.sol\":1109:1637  function createTweet(string memory tweet) public returns (TweetInfo memory) {... */\n    tag_5:\n      tag_22\n      0x04\n      dup1\n      calldatasize\n      sub\n      dup2\n      add\n      swap1\n      tag_23\n      swap2\n      swap1\n      tag_24\n      jump\t// in\n    tag_23:\n      tag_25\n      jump\t// in\n    tag_22:\n      mload(0x40)\n      tag_26\n      swap2\n      swap1\n      tag_27\n      jump\t// in\n    tag_26:\n      mload(0x40)\n      dup1\n      swap2\n      sub\n      swap1\n      return\n        /* \".states/Contracts/twitter.sol\":414:434  address public owner */\n    tag_6:\n      tag_28\n      tag_29\n      jump\t// in\n    tag_28:\n      mload(0x40)\n      tag_30\n      swap2\n      swap1\n      tag_31\n      jump\t// in\n    tag_30:\n      mload(0x40)\n      dup1\n      swap2\n      sub\n      swap1\n      return\n        /* \".states/Contracts/twitter.sol\":2615:2761  function getTweets(address user) public view returns (TweetInfo[] memory) {... */\n    tag_7:\n      tag_32\n      0x04\n      dup1\n      calldatasize\n      sub\n      dup2\n      add\n      swap1\n      tag_33\n      swap2\n      swap1\n      tag_34\n      jump\t// in\n    tag_33:\n      tag_35\n      jump\t// in\n    tag_32:\n      mload(0x40)\n      tag_36\n      swap2\n      swap1\n      tag_37\n      jump\t// in\n    tag_36:\n      mload(0x40)\n      dup1\n      swap2\n      sub\n      swap1\n      return\n        /* \".states/Contracts/twitter.sol\":857:946  function changeOwner(address newOwner) public isOwner {... */\n    tag_8:\n      tag_38\n      0x04\n      dup1\n      calldatasize\n      sub\n      dup2\n      add\n      swap1\n      tag_39\n      swap2\n      swap1\n      tag_34\n      jump\t// in\n    tag_39:\n      tag_40\n      jump\t// in\n    tag_38:\n      stop\n        /* \".states/Contracts/twitter.sol\":2286:2552  function getTweetById(address particularUser, uint256 id) public view returns (TweetInfo memory) {... */\n    tag_9:\n      tag_41\n      0x04\n      dup1\n      calldatasize\n      sub\n      dup2\n      add\n      swap1\n      tag_42\n      swap2\n      swap1\n      tag_14\n      jump\t// in\n    tag_42:\n      tag_43\n      jump\t// in\n    tag_41:\n      mload(0x40)\n      tag_44\n      swap2\n      swap1\n      tag_27\n      jump\t// in\n    tag_44:\n      mload(0x40)\n      dup1\n      swap2\n      sub\n      swap1\n      return\n        /* \".states/Contracts/twitter.sol\":1697:1937  function likeTweet(address tweetOfUser, uint16 tweetId) external {... */\n    tag_10:\n      tag_45\n      0x04\n      dup1\n      calldatasize\n      sub\n      dup2\n      add\n      swap1\n      tag_46\n      swap2\n      swap1\n      tag_20\n      jump\t// in\n    tag_46:\n      tag_47\n      jump\t// in\n    tag_45:\n      stop\n        /* \".states/Contracts/twitter.sol\":1016:1061  mapping(address => TweetInfo[]) public tweets */\n    tag_15:\n      mstore(0x20, 0x01)\n      dup2\n      0x00\n      mstore\n      keccak256(0x00, 0x40)\n      dup2\n      dup2\n      sload\n      dup2\n      lt\n      tag_48\n      jumpi\n      0x00\n      dup1\n      revert\n    tag_48:\n      swap1\n      0x00\n      mstore\n      keccak256(0x00, 0x20)\n      swap1\n      0x04\n      mul\n      add\n      0x00\n      swap2\n      pop\n      swap2\n      pop\n      pop\n      dup1\n      0x00\n      add\n      0x00\n      swap1\n      sload\n      swap1\n      0x0100\n      exp\n      swap1\n      div\n      0xffff\n      and\n      swap1\n      dup1\n      0x00\n      add\n      0x02\n      swap1\n      sload\n      swap1\n      0x0100\n      exp\n      swap1\n      div\n      0xffffffffffffffffffffffffffffffffffffffff\n      and\n      swap1\n      dup1\n      0x01\n      add\n      dup1\n      sload\n      tag_50\n      swap1\n      tag_51\n      jump\t// in\n    tag_50:\n      dup1\n      0x1f\n      add\n      0x20\n      dup1\n      swap2\n      div\n      mul\n      0x20\n      add\n      mload(0x40)\n      swap1\n      dup2\n      add\n      0x40\n      mstore\n      dup1\n      swap3\n      swap2\n      swap1\n      dup2\n      dup2\n      mstore\n      0x20\n      add\n      dup3\n      dup1\n      sload\n      tag_52\n      swap1\n      tag_51\n      jump\t// in\n    tag_52:\n      dup1\n      iszero\n      tag_53\n      jumpi\n      dup1\n      0x1f\n      lt\n      tag_54\n      jumpi\n      0x0100\n      dup1\n      dup4\n      sload\n      div\n      mul\n      dup4\n      mstore\n      swap2\n      0x20\n      add\n      swap2\n      jump(tag_53)\n    tag_54:\n      dup3\n      add\n      swap2\n      swap1\n      0x00\n      mstore\n      keccak256(0x00, 0x20)\n      swap1\n    tag_55:\n      dup2\n      sload\n      dup2\n      mstore\n      swap1\n      0x01\n      add\n      swap1\n      0x20\n      add\n      dup1\n      dup4\n      gt\n      tag_55\n      jumpi\n      dup3\n      swap1\n      sub\n      0x1f\n      and\n      dup3\n      add\n      swap2\n    tag_53:\n      pop\n      pop\n      pop\n      pop\n      pop\n      swap1\n      dup1\n      0x02\n      add\n      sload\n      swap1\n      dup1\n      0x03\n      add\n      0x00\n      swap1\n      sload\n      swap1\n      0x0100\n      exp\n      swap1\n      div\n      0xff\n      and\n      swap1\n      pop\n      dup6\n      jump\t// out\n        /* \".states/Contracts/twitter.sol\":2027:2220  function unlikeTweet(address tweetOfUser, uint16 tweetId) external hasLikes(tweetOfUser, tweetId) {... */\n    tag_21:\n        /* \".states/Contracts/twitter.sol\":2103:2114  tweetOfUser */\n      dup2\n        /* \".states/Contracts/twitter.sol\":2116:2123  tweetId */\n      dup2\n        /* \".states/Contracts/twitter.sol\":698:704  tweets */\n      0x01\n        /* \".states/Contracts/twitter.sol\":698:717  tweets[tweetOfUser] */\n      0x00\n        /* \".states/Contracts/twitter.sol\":705:716  tweetOfUser */\n      dup4\n        /* \".states/Contracts/twitter.sol\":698:717  tweets[tweetOfUser] */\n      0xffffffffffffffffffffffffffffffffffffffff\n      and\n      0xffffffffffffffffffffffffffffffffffffffff\n      and\n      dup2\n      mstore\n      0x20\n      add\n      swap1\n      dup2\n      mstore\n      0x20\n      add\n      0x00\n      keccak256\n        /* \".states/Contracts/twitter.sol\":698:724  tweets[tweetOfUser].length */\n      dup1\n      sload\n      swap1\n      pop\n        /* \".states/Contracts/twitter.sol\":688:695  tweetId */\n      dup2\n        /* \".states/Contracts/twitter.sol\":688:724  tweetId < tweets[tweetOfUser].length */\n      0xffff\n      and\n      lt\n        /* \".states/Contracts/twitter.sol\":680:749  require(tweetId < tweets[tweetOfUser].length, \"Tweet does not exist\") */\n      tag_57\n      jumpi\n      mload(0x40)\n      0x08c379a000000000000000000000000000000000000000000000000000000000\n      dup2\n      mstore\n      0x04\n      add\n      tag_58\n      swap1\n      tag_59\n      jump\t// in\n    tag_58:\n      mload(0x40)\n      dup1\n      swap2\n      sub\n      swap1\n      revert\n    tag_57:\n        /* \".states/Contracts/twitter.sol\":805:806  0 */\n      0x00\n        /* \".states/Contracts/twitter.sol\":768:774  tweets */\n      0x01\n        /* \".states/Contracts/twitter.sol\":768:787  tweets[tweetOfUser] */\n      0x00\n        /* \".states/Contracts/twitter.sol\":775:786  tweetOfUser */\n      dup5\n        /* \".states/Contracts/twitter.sol\":768:787  tweets[tweetOfUser] */\n      0xffffffffffffffffffffffffffffffffffffffff\n      and\n      0xffffffffffffffffffffffffffffffffffffffff\n      and\n      dup2\n      mstore\n      0x20\n      add\n      swap1\n      dup2\n      mstore\n      0x20\n      add\n      0x00\n      keccak256\n        /* \".states/Contracts/twitter.sol\":788:795  tweetId */\n      dup3\n        /* \".states/Contracts/twitter.sol\":768:796  tweets[tweetOfUser][tweetId] */\n      0xffff\n      and\n      dup2\n      sload\n      dup2\n      lt\n      tag_60\n      jumpi\n      tag_61\n      tag_62\n      jump\t// in\n    tag_61:\n    tag_60:\n      swap1\n      0x00\n      mstore\n      keccak256(0x00, 0x20)\n      swap1\n      0x04\n      mul\n      add\n        /* \".states/Contracts/twitter.sol\":768:802  tweets[tweetOfUser][tweetId].likes */\n      0x03\n      add\n      0x00\n      swap1\n      sload\n      swap1\n      0x0100\n      exp\n      swap1\n      div\n      0xff\n      and\n        /* \".states/Contracts/twitter.sol\":768:806  tweets[tweetOfUser][tweetId].likes > 0 */\n      0xff\n      and\n      gt\n        /* \".states/Contracts/twitter.sol\":760:829  require(tweets[tweetOfUser][tweetId].likes > 0, \"No likes to remove\") */\n      tag_64\n      jumpi\n      mload(0x40)\n      0x08c379a000000000000000000000000000000000000000000000000000000000\n      dup2\n      mstore\n      0x04\n      add\n      tag_65\n      swap1\n      tag_66\n      jump\t// in\n    tag_65:\n      mload(0x40)\n      dup1\n      swap2\n      sub\n      swap1\n      revert\n    tag_64:\n        /* \".states/Contracts/twitter.sol\":2174:2175  1 */\n      0x01\n        /* \".states/Contracts/twitter.sol\":2136:2142  tweets */\n      dup1\n        /* \".states/Contracts/twitter.sol\":2136:2155  tweets[tweetOfUser] */\n      0x00\n        /* \".states/Contracts/twitter.sol\":2143:2154  tweetOfUser */\n      dup7\n        /* \".states/Contracts/twitter.sol\":2136:2155  tweets[tweetOfUser] */\n      0xffffffffffffffffffffffffffffffffffffffff\n      and\n      0xffffffffffffffffffffffffffffffffffffffff\n      and\n      dup2\n      mstore\n      0x20\n      add\n      swap1\n      dup2\n      mstore\n      0x20\n      add\n      0x00\n      keccak256\n        /* \".states/Contracts/twitter.sol\":2156:2163  tweetId */\n      dup5\n        /* \".states/Contracts/twitter.sol\":2136:2164  tweets[tweetOfUser][tweetId] */\n      0xffff\n      and\n      dup2\n      sload\n      dup2\n      lt\n      tag_68\n      jumpi\n      tag_69\n      tag_62\n      jump\t// in\n    tag_69:\n    tag_68:\n      swap1\n      0x00\n      mstore\n      keccak256(0x00, 0x20)\n      swap1\n      0x04\n      mul\n      add\n        /* \".states/Contracts/twitter.sol\":2136:2170  tweets[tweetOfUser][tweetId].likes */\n      0x03\n      add\n      0x00\n        /* \".states/Contracts/twitter.sol\":2136:2175  tweets[tweetOfUser][tweetId].likes -= 1 */\n      dup3\n      dup3\n      dup3\n      swap1\n      sload\n      swap1\n      0x0100\n      exp\n      swap1\n      div\n      0xff\n      and\n      tag_71\n      swap2\n      swap1\n      tag_72\n      jump\t// in\n    tag_71:\n      swap3\n      pop\n      0x0100\n      exp\n      dup2\n      sload\n      dup2\n      0xff\n      mul\n      not\n      and\n      swap1\n      dup4\n      0xff\n      and\n      mul\n      or\n      swap1\n      sstore\n      pop\n        /* \".states/Contracts/twitter.sol\":2027:2220  function unlikeTweet(address tweetOfUser, uint16 tweetId) external hasLikes(tweetOfUser, tweetId) {... */\n      pop\n      pop\n      pop\n      pop\n      jump\t// out\n        /* \".states/Contracts/twitter.sol\":1109:1637  function createTweet(string memory tweet) public returns (TweetInfo memory) {... */\n    tag_25:\n        /* \".states/Contracts/twitter.sol\":1167:1183  TweetInfo memory */\n      tag_73\n      tag_74\n      jump\t// in\n    tag_73:\n        /* \".states/Contracts/twitter.sol\":1196:1210  uint16 tweetId */\n      0x00\n        /* \".states/Contracts/twitter.sol\":1220:1226  tweets */\n      0x01\n        /* \".states/Contracts/twitter.sol\":1220:1238  tweets[msg.sender] */\n      0x00\n        /* \".states/Contracts/twitter.sol\":1227:1237  msg.sender */\n      caller\n        /* \".states/Contracts/twitter.sol\":1220:1238  tweets[msg.sender] */\n      0xffffffffffffffffffffffffffffffffffffffff\n      and\n      0xffffffffffffffffffffffffffffffffffffffff\n      and\n      dup2\n      mstore\n      0x20\n      add\n      swap1\n      dup2\n      mstore\n      0x20\n      add\n      0x00\n      keccak256\n        /* \".states/Contracts/twitter.sol\":1220:1245  tweets[msg.sender].length */\n      dup1\n      sload\n      swap1\n      pop\n        /* \".states/Contracts/twitter.sol\":1196:1246  uint16 tweetId = uint16(tweets[msg.sender].length) */\n      swap1\n      pop\n        /* \".states/Contracts/twitter.sol\":1309:1334  TweetInfo memory newTweet */\n      0x00\n        /* \".states/Contracts/twitter.sol\":1337:1511  TweetInfo({... */\n      mload(0x40)\n      dup1\n      0xa0\n      add\n      0x40\n      mstore\n      dup1\n        /* \".states/Contracts/twitter.sol\":1366:1373  tweetId */\n      dup4\n        /* \".states/Contracts/twitter.sol\":1337:1511  TweetInfo({... */\n      0xffff\n      and\n      dup2\n      mstore\n      0x20\n      add\n        /* \".states/Contracts/twitter.sol\":1396:1406  msg.sender */\n      caller\n        /* \".states/Contracts/twitter.sol\":1337:1511  TweetInfo({... */\n      0xffffffffffffffffffffffffffffffffffffffff\n      and\n      dup2\n      mstore\n      0x20\n      add\n        /* \".states/Contracts/twitter.sol\":1430:1435  tweet */\n      dup6\n        /* \".states/Contracts/twitter.sol\":1337:1511  TweetInfo({... */\n      dup2\n      mstore\n      0x20\n      add\n        /* \".states/Contracts/twitter.sol\":1461:1476  block.timestamp */\n      timestamp\n        /* \".states/Contracts/twitter.sol\":1337:1511  TweetInfo({... */\n      dup2\n      mstore\n      0x20\n      add\n        /* \".states/Contracts/twitter.sol\":1498:1499  0 */\n      0x00\n        /* \".states/Contracts/twitter.sol\":1337:1511  TweetInfo({... */\n      0xff\n      and\n      dup2\n      mstore\n      pop\n        /* \".states/Contracts/twitter.sol\":1309:1511  TweetInfo memory newTweet = TweetInfo({... */\n      swap1\n      pop\n        /* \".states/Contracts/twitter.sol\":1522:1528  tweets */\n      0x01\n        /* \".states/Contracts/twitter.sol\":1522:1540  tweets[msg.sender] */\n      0x00\n        /* \".states/Contracts/twitter.sol\":1529:1539  msg.sender */\n      caller\n        /* \".states/Contracts/twitter.sol\":1522:1540  tweets[msg.sender] */\n      0xffffffffffffffffffffffffffffffffffffffff\n      and\n      0xffffffffffffffffffffffffffffffffffffffff\n      and\n      dup2\n      mstore\n      0x20\n      add\n      swap1\n      dup2\n      mstore\n      0x20\n      add\n      0x00\n      keccak256\n        /* \".states/Contracts/twitter.sol\":1546:1554  newTweet */\n      dup2\n        /* \".states/Contracts/twitter.sol\":1522:1555  tweets[msg.sender].push(newTweet) */\n      swap1\n      dup1\n      0x01\n      dup2\n      sload\n      add\n      dup1\n      dup3\n      sstore\n      dup1\n      swap2\n      pop\n      pop\n      0x01\n      swap1\n      sub\n      swap1\n      0x00\n      mstore\n      keccak256(0x00, 0x20)\n      swap1\n      0x04\n      mul\n      add\n      0x00\n      swap1\n      swap2\n      swap1\n      swap2\n      swap1\n      swap2\n      pop\n      0x00\n      dup3\n      add\n      mload\n      dup2\n      0x00\n      add\n      exp(0x0100, 0x00)\n      dup2\n      sload\n      dup2\n      0xffff\n      mul\n      not\n      and\n      swap1\n      dup4\n      0xffff\n      and\n      mul\n      or\n      swap1\n      sstore\n      pop\n      0x20\n      dup3\n      add\n      mload\n      dup2\n      0x00\n      add\n      exp(0x0100, 0x02)\n      dup2\n      sload\n      dup2\n      0xffffffffffffffffffffffffffffffffffffffff\n      mul\n      not\n      and\n      swap1\n      dup4\n      0xffffffffffffffffffffffffffffffffffffffff\n      and\n      mul\n      or\n      swap1\n      sstore\n      pop\n      0x40\n      dup3\n      add\n      mload\n      dup2\n      0x01\n      add\n      swap1\n      dup2\n      tag_77\n      swap2\n      swap1\n      tag_78\n      jump\t// in\n    tag_77:\n      pop\n      0x60\n      dup3\n      add\n      mload\n      dup2\n      0x02\n      add\n      sstore\n      0x80\n      dup3\n      add\n      mload\n      dup2\n      0x03\n      add\n      exp(0x0100, 0x00)\n      dup2\n      sload\n      dup2\n      0xff\n      mul\n      not\n      and\n      swap1\n      dup4\n      0xff\n      and\n      mul\n      or\n      swap1\n      sstore\n      pop\n      pop\n      pop\n        /* \".states/Contracts/twitter.sol\":1621:1629  newTweet */\n      dup1\n        /* \".states/Contracts/twitter.sol\":1614:1629  return newTweet */\n      swap3\n      pop\n      pop\n      pop\n        /* \".states/Contracts/twitter.sol\":1109:1637  function createTweet(string memory tweet) public returns (TweetInfo memory) {... */\n      swap2\n      swap1\n      pop\n      jump\t// out\n        /* \".states/Contracts/twitter.sol\":414:434  address public owner */\n    tag_29:\n      0x00\n      dup1\n      sload\n      swap1\n      0x0100\n      exp\n      swap1\n      div\n      0xffffffffffffffffffffffffffffffffffffffff\n      and\n      dup2\n      jump\t// out\n        /* \".states/Contracts/twitter.sol\":2615:2761  function getTweets(address user) public view returns (TweetInfo[] memory) {... */\n    tag_35:\n        /* \".states/Contracts/twitter.sol\":2669:2687  TweetInfo[] memory */\n      0x60\n        /* \".states/Contracts/twitter.sol\":2707:2713  tweets */\n      0x01\n        /* \".states/Contracts/twitter.sol\":2707:2719  tweets[user] */\n      0x00\n        /* \".states/Contracts/twitter.sol\":2714:2718  user */\n      dup4\n        /* \".states/Contracts/twitter.sol\":2707:2719  tweets[user] */\n      0xffffffffffffffffffffffffffffffffffffffff\n      and\n      0xffffffffffffffffffffffffffffffffffffffff\n      and\n      dup2\n      mstore\n      0x20\n      add\n      swap1\n      dup2\n      mstore\n      0x20\n      add\n      0x00\n      keccak256\n        /* \".states/Contracts/twitter.sol\":2700:2719  return tweets[user] */\n      dup1\n      sload\n      dup1\n      0x20\n      mul\n      0x20\n      add\n      mload(0x40)\n      swap1\n      dup2\n      add\n      0x40\n      mstore\n      dup1\n      swap3\n      swap2\n      swap1\n      dup2\n      dup2\n      mstore\n      0x20\n      add\n      0x00\n      swap1\n    tag_80:\n      dup3\n      dup3\n      lt\n      iszero\n      tag_81\n      jumpi\n      dup4\n      dup3\n      swap1\n      0x00\n      mstore\n      keccak256(0x00, 0x20)\n      swap1\n      0x04\n      mul\n      add\n      mload(0x40)\n      dup1\n      0xa0\n      add\n      0x40\n      mstore\n      swap1\n      dup2\n      0x00\n      dup3\n      add\n      0x00\n      swap1\n      sload\n      swap1\n      0x0100\n      exp\n      swap1\n      div\n      0xffff\n      and\n      0xffff\n      and\n      0xffff\n      and\n      dup2\n      mstore\n      0x20\n      add\n      0x00\n      dup3\n      add\n      0x02\n      swap1\n      sload\n      swap1\n      0x0100\n      exp\n      swap1\n      div\n      0xffffffffffffffffffffffffffffffffffffffff\n      and\n      0xffffffffffffffffffffffffffffffffffffffff\n      and\n      0xffffffffffffffffffffffffffffffffffffffff\n      and\n      dup2\n      mstore\n      0x20\n      add\n      0x01\n      dup3\n      add\n      dup1\n      sload\n      tag_83\n      swap1\n      tag_51\n      jump\t// in\n    tag_83:\n      dup1\n      0x1f\n      add\n      0x20\n      dup1\n      swap2\n      div\n      mul\n      0x20\n      add\n      mload(0x40)\n      swap1\n      dup2\n      add\n      0x40\n      mstore\n      dup1\n      swap3\n      swap2\n      swap1\n      dup2\n      dup2\n      mstore\n      0x20\n      add\n      dup3\n      dup1\n      sload\n      tag_84\n      swap1\n      tag_51\n      jump\t// in\n    tag_84:\n      dup1\n      iszero\n      tag_85\n      jumpi\n      dup1\n      0x1f\n      lt\n      tag_86\n      jumpi\n      0x0100\n      dup1\n      dup4\n      sload\n      div\n      mul\n      dup4\n      mstore\n      swap2\n      0x20\n      add\n      swap2\n      jump(tag_85)\n    tag_86:\n      dup3\n      add\n      swap2\n      swap1\n      0x00\n      mstore\n      keccak256(0x00, 0x20)\n      swap1\n    tag_87:\n      dup2\n      sload\n      dup2\n      mstore\n      swap1\n      0x01\n      add\n      swap1\n      0x20\n      add\n      dup1\n      dup4\n      gt\n      tag_87\n      jumpi\n      dup3\n      swap1\n      sub\n      0x1f\n      and\n      dup3\n      add\n      swap2\n    tag_85:\n      pop\n      pop\n      pop\n      pop\n      pop\n      dup2\n      mstore\n      0x20\n      add\n      0x02\n      dup3\n      add\n      sload\n      dup2\n      mstore\n      0x20\n      add\n      0x03\n      dup3\n      add\n      0x00\n      swap1\n      sload\n      swap1\n      0x0100\n      exp\n      swap1\n      div\n      0xff\n      and\n      0xff\n      and\n      0xff\n      and\n      dup2\n      mstore\n      pop\n      pop\n      dup2\n      mstore\n      0x20\n      add\n      swap1\n      0x01\n      add\n      swap1\n      jump(tag_80)\n    tag_81:\n      pop\n      pop\n      pop\n      pop\n      swap1\n      pop\n        /* \".states/Contracts/twitter.sol\":2615:2761  function getTweets(address user) public view returns (TweetInfo[] memory) {... */\n      swap2\n      swap1\n      pop\n      jump\t// out\n        /* \".states/Contracts/twitter.sol\":857:946  function changeOwner(address newOwner) public isOwner {... */\n    tag_40:\n        /* \".states/Contracts/twitter.sol\":549:559  msg.sender */\n      caller\n        /* \".states/Contracts/twitter.sol\":540:559  owner == msg.sender */\n      0xffffffffffffffffffffffffffffffffffffffff\n      and\n        /* \".states/Contracts/twitter.sol\":540:545  owner */\n      0x00\n      dup1\n      sload\n      swap1\n      0x0100\n      exp\n      swap1\n      div\n      0xffffffffffffffffffffffffffffffffffffffff\n      and\n        /* \".states/Contracts/twitter.sol\":540:559  owner == msg.sender */\n      0xffffffffffffffffffffffffffffffffffffffff\n      and\n      eq\n        /* \".states/Contracts/twitter.sol\":532:586  require(owner == msg.sender, \"You are not the owner!\") */\n      tag_89\n      jumpi\n      mload(0x40)\n      0x08c379a000000000000000000000000000000000000000000000000000000000\n      dup2\n      mstore\n      0x04\n      add\n      tag_90\n      swap1\n      tag_91\n      jump\t// in\n    tag_90:\n      mload(0x40)\n      dup1\n      swap2\n      sub\n      swap1\n      revert\n    tag_89:\n        /* \".states/Contracts/twitter.sol\":930:938  newOwner */\n      dup1\n        /* \".states/Contracts/twitter.sol\":922:927  owner */\n      0x00\n      dup1\n        /* \".states/Contracts/twitter.sol\":922:938  owner = newOwner */\n      0x0100\n      exp\n      dup2\n      sload\n      dup2\n      0xffffffffffffffffffffffffffffffffffffffff\n      mul\n      not\n      and\n      swap1\n      dup4\n      0xffffffffffffffffffffffffffffffffffffffff\n      and\n      mul\n      or\n      swap1\n      sstore\n      pop\n        /* \".states/Contracts/twitter.sol\":857:946  function changeOwner(address newOwner) public isOwner {... */\n      pop\n      jump\t// out\n        /* \".states/Contracts/twitter.sol\":2286:2552  function getTweetById(address particularUser, uint256 id) public view returns (TweetInfo memory) {... */\n    tag_43:\n        /* \".states/Contracts/twitter.sol\":2365:2381  TweetInfo memory */\n      tag_93\n      tag_74\n      jump\t// in\n    tag_93:\n        /* \".states/Contracts/twitter.sol\":2407:2413  tweets */\n      0x01\n        /* \".states/Contracts/twitter.sol\":2407:2429  tweets[particularUser] */\n      0x00\n        /* \".states/Contracts/twitter.sol\":2414:2428  particularUser */\n      dup5\n        /* \".states/Contracts/twitter.sol\":2407:2429  tweets[particularUser] */\n      0xffffffffffffffffffffffffffffffffffffffff\n      and\n      0xffffffffffffffffffffffffffffffffffffffff\n      and\n      dup2\n      mstore\n      0x20\n      add\n      swap1\n      dup2\n      mstore\n      0x20\n      add\n      0x00\n      keccak256\n        /* \".states/Contracts/twitter.sol\":2407:2436  tweets[particularUser].length */\n      dup1\n      sload\n      swap1\n      pop\n        /* \".states/Contracts/twitter.sol\":2402:2404  id */\n      dup3\n        /* \".states/Contracts/twitter.sol\":2402:2436  id < tweets[particularUser].length */\n      lt\n        /* \".states/Contracts/twitter.sol\":2394:2461  require(id < tweets[particularUser].length, \"Tweet does not exist\") */\n      tag_95\n      jumpi\n      mload(0x40)\n      0x08c379a000000000000000000000000000000000000000000000000000000000\n      dup2\n      mstore\n      0x04\n      add\n      tag_96\n      swap1\n      tag_59\n      jump\t// in\n    tag_96:\n      mload(0x40)\n      dup1\n      swap2\n      sub\n      swap1\n      revert\n    tag_95:\n        /* \".states/Contracts/twitter.sol\":2479:2485  tweets */\n      0x01\n        /* \".states/Contracts/twitter.sol\":2479:2501  tweets[particularUser] */\n      0x00\n        /* \".states/Contracts/twitter.sol\":2486:2500  particularUser */\n      dup5\n        /* \".states/Contracts/twitter.sol\":2479:2501  tweets[particularUser] */\n      0xffffffffffffffffffffffffffffffffffffffff\n      and\n      0xffffffffffffffffffffffffffffffffffffffff\n      and\n      dup2\n      mstore\n      0x20\n      add\n      swap1\n      dup2\n      mstore\n      0x20\n      add\n      0x00\n      keccak256\n        /* \".states/Contracts/twitter.sol\":2502:2504  id */\n      dup3\n        /* \".states/Contracts/twitter.sol\":2479:2505  tweets[particularUser][id] */\n      dup2\n      sload\n      dup2\n      lt\n      tag_97\n      jumpi\n      tag_98\n      tag_62\n      jump\t// in\n    tag_98:\n    tag_97:\n      swap1\n      0x00\n      mstore\n      keccak256(0x00, 0x20)\n      swap1\n      0x04\n      mul\n      add\n        /* \".states/Contracts/twitter.sol\":2472:2505  return tweets[particularUser][id] */\n      mload(0x40)\n      dup1\n      0xa0\n      add\n      0x40\n      mstore\n      swap1\n      dup2\n      0x00\n      dup3\n      add\n      0x00\n      swap1\n      sload\n      swap1\n      0x0100\n      exp\n      swap1\n      div\n      0xffff\n      and\n      0xffff\n      and\n      0xffff\n      and\n      dup2\n      mstore\n      0x20\n      add\n      0x00\n      dup3\n      add\n      0x02\n      swap1\n      sload\n      swap1\n      0x0100\n      exp\n      swap1\n      div\n      0xffffffffffffffffffffffffffffffffffffffff\n      and\n      0xffffffffffffffffffffffffffffffffffffffff\n      and\n      0xffffffffffffffffffffffffffffffffffffffff\n      and\n      dup2\n      mstore\n      0x20\n      add\n      0x01\n      dup3\n      add\n      dup1\n      sload\n      tag_100\n      swap1\n      tag_51\n      jump\t// in\n    tag_100:\n      dup1\n      0x1f\n      add\n      0x20\n      dup1\n      swap2\n      div\n      mul\n      0x20\n      add\n      mload(0x40)\n      swap1\n      dup2\n      add\n      0x40\n      mstore\n      dup1\n      swap3\n      swap2\n      swap1\n      dup2\n      dup2\n      mstore\n      0x20\n      add\n      dup3\n      dup1\n      sload\n      tag_101\n      swap1\n      tag_51\n      jump\t// in\n    tag_101:\n      dup1\n      iszero\n      tag_102\n      jumpi\n      dup1\n      0x1f\n      lt\n      tag_103\n      jumpi\n      0x0100\n      dup1\n      dup4\n      sload\n      div\n      mul\n      dup4\n      mstore\n      swap2\n      0x20\n      add\n      swap2\n      jump(tag_102)\n    tag_103:\n      dup3\n      add\n      swap2\n      swap1\n      0x00\n      mstore\n      keccak256(0x00, 0x20)\n      swap1\n    tag_104:\n      dup2\n      sload\n      dup2\n      mstore\n      swap1\n      0x01\n      add\n      swap1\n      0x20\n      add\n      dup1\n      dup4\n      gt\n      tag_104\n      jumpi\n      dup3\n      swap1\n      sub\n      0x1f\n      and\n      dup3\n      add\n      swap2\n    tag_102:\n      pop\n      pop\n      pop\n      pop\n      pop\n      dup2\n      mstore\n      0x20\n      add\n      0x02\n      dup3\n      add\n      sload\n      dup2\n      mstore\n      0x20\n      add\n      0x03\n      dup3\n      add\n      0x00\n      swap1\n      sload\n      swap1\n      0x0100\n      exp\n      swap1\n      div\n      0xff\n      and\n      0xff\n      and\n      0xff\n      and\n      dup2\n      mstore\n      pop\n      pop\n      swap1\n      pop\n        /* \".states/Contracts/twitter.sol\":2286:2552  function getTweetById(address particularUser, uint256 id) public view returns (TweetInfo memory) {... */\n      swap3\n      swap2\n      pop\n      pop\n      jump\t// out\n        /* \".states/Contracts/twitter.sol\":1697:1937  function likeTweet(address tweetOfUser, uint16 tweetId) external {... */\n    tag_47:\n        /* \".states/Contracts/twitter.sol\":1791:1797  tweets */\n      0x01\n        /* \".states/Contracts/twitter.sol\":1791:1810  tweets[tweetOfUser] */\n      0x00\n        /* \".states/Contracts/twitter.sol\":1798:1809  tweetOfUser */\n      dup4\n        /* \".states/Contracts/twitter.sol\":1791:1810  tweets[tweetOfUser] */\n      0xffffffffffffffffffffffffffffffffffffffff\n      and\n      0xffffffffffffffffffffffffffffffffffffffff\n      and\n      dup2\n      mstore\n      0x20\n      add\n      swap1\n      dup2\n      mstore\n      0x20\n      add\n      0x00\n      keccak256\n        /* \".states/Contracts/twitter.sol\":1791:1817  tweets[tweetOfUser].length */\n      dup1\n      sload\n      swap1\n      pop\n        /* \".states/Contracts/twitter.sol\":1781:1788  tweetId */\n      dup2\n        /* \".states/Contracts/twitter.sol\":1781:1817  tweetId < tweets[tweetOfUser].length */\n      0xffff\n      and\n      lt\n        /* \".states/Contracts/twitter.sol\":1773:1842  require(tweetId < tweets[tweetOfUser].length, \"Tweet does not exist\") */\n      tag_106\n      jumpi\n      mload(0x40)\n      0x08c379a000000000000000000000000000000000000000000000000000000000\n      dup2\n      mstore\n      0x04\n      add\n      tag_107\n      swap1\n      tag_59\n      jump\t// in\n    tag_107:\n      mload(0x40)\n      dup1\n      swap2\n      sub\n      swap1\n      revert\n    tag_106:\n        /* \".states/Contracts/twitter.sol\":1891:1892  1 */\n      0x01\n        /* \".states/Contracts/twitter.sol\":1853:1859  tweets */\n      dup1\n        /* \".states/Contracts/twitter.sol\":1853:1872  tweets[tweetOfUser] */\n      0x00\n        /* \".states/Contracts/twitter.sol\":1860:1871  tweetOfUser */\n      dup5\n        /* \".states/Contracts/twitter.sol\":1853:1872  tweets[tweetOfUser] */\n      0xffffffffffffffffffffffffffffffffffffffff\n      and\n      0xffffffffffffffffffffffffffffffffffffffff\n      and\n      dup2\n      mstore\n      0x20\n      add\n      swap1\n      dup2\n      mstore\n      0x20\n      add\n      0x00\n      keccak256\n        /* \".states/Contracts/twitter.sol\":1873:1880  tweetId */\n      dup3\n        /* \".states/Contracts/twitter.sol\":1853:1881  tweets[tweetOfUser][tweetId] */\n      0xffff\n      and\n      dup2\n      sload\n      dup2\n      lt\n      tag_108\n      jumpi\n      tag_109\n      tag_62\n      jump\t// in\n    tag_109:\n    tag_108:\n      swap1\n      0x00\n      mstore\n      keccak256(0x00, 0x20)\n      swap1\n      0x04\n      mul\n      add\n        /* \".states/Contracts/twitter.sol\":1853:1887  tweets[tweetOfUser][tweetId].likes */\n      0x03\n      add\n      0x00\n        /* \".states/Contracts/twitter.sol\":1853:1892  tweets[tweetOfUser][tweetId].likes += 1 */\n      dup3\n      dup3\n      dup3\n      swap1\n      sload\n      swap1\n      0x0100\n      exp\n      swap1\n      div\n      0xff\n      and\n      tag_111\n      swap2\n      swap1\n      tag_112\n      jump\t// in\n    tag_111:\n      swap3\n      pop\n      0x0100\n      exp\n      dup2\n      sload\n      dup2\n      0xff\n      mul\n      not\n      and\n      swap1\n      dup4\n      0xff\n      and\n      mul\n      or\n      swap1\n      sstore\n      pop\n        /* \".states/Contracts/twitter.sol\":1697:1937  function likeTweet(address tweetOfUser, uint16 tweetId) external {... */\n      pop\n      pop\n      jump\t// out\n    tag_74:\n      mload(0x40)\n      dup1\n      0xa0\n      add\n      0x40\n      mstore\n      dup1\n      and(0xffff, 0x00)\n      dup2\n      mstore\n      0x20\n      add\n      and(0xffffffffffffffffffffffffffffffffffffffff, 0x00)\n      dup2\n      mstore\n      0x20\n      add\n      0x60\n      dup2\n      mstore\n      0x20\n      add\n      0x00\n      dup2\n      mstore\n      0x20\n      add\n      and(0xff, 0x00)\n      dup2\n      mstore\n      pop\n      swap1\n      jump\t// out\n        /* \"#utility.yul\":7:82   */\n    tag_113:\n        /* \"#utility.yul\":40:46   */\n      0x00\n        /* \"#utility.yul\":73:75   */\n      0x40\n        /* \"#utility.yul\":67:76   */\n      mload\n        /* \"#utility.yul\":57:76   */\n      swap1\n      pop\n        /* \"#utility.yul\":7:82   */\n      swap1\n      jump\t// out\n        /* \"#utility.yul\":88:205   */\n    tag_114:\n        /* \"#utility.yul\":197:198   */\n      0x00\n        /* \"#utility.yul\":194:195   */\n      dup1\n        /* \"#utility.yul\":187:199   */\n      revert\n        /* \"#utility.yul\":211:328   */\n    tag_115:\n        /* \"#utility.yul\":320:321   */\n      0x00\n        /* \"#utility.yul\":317:318   */\n      dup1\n        /* \"#utility.yul\":310:322   */\n      revert\n        /* \"#utility.yul\":334:460   */\n    tag_116:\n        /* \"#utility.yul\":371:378   */\n      0x00\n        /* \"#utility.yul\":411:453   */\n      0xffffffffffffffffffffffffffffffffffffffff\n        /* \"#utility.yul\":404:409   */\n      dup3\n        /* \"#utility.yul\":400:454   */\n      and\n        /* \"#utility.yul\":389:454   */\n      swap1\n      pop\n        /* \"#utility.yul\":334:460   */\n      swap2\n      swap1\n      pop\n      jump\t// out\n        /* \"#utility.yul\":466:562   */\n    tag_117:\n        /* \"#utility.yul\":503:510   */\n      0x00\n        /* \"#utility.yul\":532:556   */\n      tag_188\n        /* \"#utility.yul\":550:555   */\n      dup3\n        /* \"#utility.yul\":532:556   */\n      tag_116\n      jump\t// in\n    tag_188:\n        /* \"#utility.yul\":521:556   */\n      swap1\n      pop\n        /* \"#utility.yul\":466:562   */\n      swap2\n      swap1\n      pop\n      jump\t// out\n        /* \"#utility.yul\":568:690   */\n    tag_118:\n        /* \"#utility.yul\":641:665   */\n      tag_190\n        /* \"#utility.yul\":659:664   */\n      dup2\n        /* \"#utility.yul\":641:665   */\n      tag_117\n      jump\t// in\n    tag_190:\n        /* \"#utility.yul\":634:639   */\n      dup2\n        /* \"#utility.yul\":631:666   */\n      eq\n        /* \"#utility.yul\":621:684   */\n      tag_191\n      jumpi\n        /* \"#utility.yul\":680:681   */\n      0x00\n        /* \"#utility.yul\":677:678   */\n      dup1\n        /* \"#utility.yul\":670:682   */\n      revert\n        /* \"#utility.yul\":621:684   */\n    tag_191:\n        /* \"#utility.yul\":568:690   */\n      pop\n      jump\t// out\n        /* \"#utility.yul\":696:835   */\n    tag_119:\n        /* \"#utility.yul\":742:747   */\n      0x00\n        /* \"#utility.yul\":780:786   */\n      dup2\n        /* \"#utility.yul\":767:787   */\n      calldataload\n        /* \"#utility.yul\":758:787   */\n      swap1\n      pop\n        /* \"#utility.yul\":796:829   */\n      tag_193\n        /* \"#utility.yul\":823:828   */\n      dup2\n        /* \"#utility.yul\":796:829   */\n      tag_118\n      jump\t// in\n    tag_193:\n        /* \"#utility.yul\":696:835   */\n      swap3\n      swap2\n      pop\n      pop\n      jump\t// out\n        /* \"#utility.yul\":841:918   */\n    tag_120:\n        /* \"#utility.yul\":878:885   */\n      0x00\n        /* \"#utility.yul\":907:912   */\n      dup2\n        /* \"#utility.yul\":896:912   */\n      swap1\n      pop\n        /* \"#utility.yul\":841:918   */\n      swap2\n      swap1\n      pop\n      jump\t// out\n        /* \"#utility.yul\":924:1046   */\n    tag_121:\n        /* \"#utility.yul\":997:1021   */\n      tag_196\n        /* \"#utility.yul\":1015:1020   */\n      dup2\n        /* \"#utility.yul\":997:1021   */\n      tag_120\n      jump\t// in\n    tag_196:\n        /* \"#utility.yul\":990:995   */\n      dup2\n        /* \"#utility.yul\":987:1022   */\n      eq\n        /* \"#utility.yul\":977:1040   */\n      tag_197\n      jumpi\n        /* \"#utility.yul\":1036:1037   */\n      0x00\n        /* \"#utility.yul\":1033:1034   */\n      dup1\n        /* \"#utility.yul\":1026:1038   */\n      revert\n        /* \"#utility.yul\":977:1040   */\n    tag_197:\n        /* \"#utility.yul\":924:1046   */\n      pop\n      jump\t// out\n        /* \"#utility.yul\":1052:1191   */\n    tag_122:\n        /* \"#utility.yul\":1098:1103   */\n      0x00\n        /* \"#utility.yul\":1136:1142   */\n      dup2\n        /* \"#utility.yul\":1123:1143   */\n      calldataload\n        /* \"#utility.yul\":1114:1143   */\n      swap1\n      pop\n        /* \"#utility.yul\":1152:1185   */\n      tag_199\n        /* \"#utility.yul\":1179:1184   */\n      dup2\n        /* \"#utility.yul\":1152:1185   */\n      tag_121\n      jump\t// in\n    tag_199:\n        /* \"#utility.yul\":1052:1191   */\n      swap3\n      swap2\n      pop\n      pop\n      jump\t// out\n        /* \"#utility.yul\":1197:1671   */\n    tag_14:\n        /* \"#utility.yul\":1265:1271   */\n      0x00\n        /* \"#utility.yul\":1273:1279   */\n      dup1\n        /* \"#utility.yul\":1322:1324   */\n      0x40\n        /* \"#utility.yul\":1310:1319   */\n      dup4\n        /* \"#utility.yul\":1301:1308   */\n      dup6\n        /* \"#utility.yul\":1297:1320   */\n      sub\n        /* \"#utility.yul\":1293:1325   */\n      slt\n        /* \"#utility.yul\":1290:1409   */\n      iszero\n      tag_201\n      jumpi\n        /* \"#utility.yul\":1328:1407   */\n      tag_202\n      tag_114\n      jump\t// in\n    tag_202:\n        /* \"#utility.yul\":1290:1409   */\n    tag_201:\n        /* \"#utility.yul\":1448:1449   */\n      0x00\n        /* \"#utility.yul\":1473:1526   */\n      tag_203\n        /* \"#utility.yul\":1518:1525   */\n      dup6\n        /* \"#utility.yul\":1509:1515   */\n      dup3\n        /* \"#utility.yul\":1498:1507   */\n      dup7\n        /* \"#utility.yul\":1494:1516   */\n      add\n        /* \"#utility.yul\":1473:1526   */\n      tag_119\n      jump\t// in\n    tag_203:\n        /* \"#utility.yul\":1463:1526   */\n      swap3\n      pop\n        /* \"#utility.yul\":1419:1536   */\n      pop\n        /* \"#utility.yul\":1575:1577   */\n      0x20\n        /* \"#utility.yul\":1601:1654   */\n      tag_204\n        /* \"#utility.yul\":1646:1653   */\n      dup6\n        /* \"#utility.yul\":1637:1643   */\n      dup3\n        /* \"#utility.yul\":1626:1635   */\n      dup7\n        /* \"#utility.yul\":1622:1644   */\n      add\n        /* \"#utility.yul\":1601:1654   */\n      tag_122\n      jump\t// in\n    tag_204:\n        /* \"#utility.yul\":1591:1654   */\n      swap2\n      pop\n        /* \"#utility.yul\":1546:1664   */\n      pop\n        /* \"#utility.yul\":1197:1671   */\n      swap3\n      pop\n      swap3\n      swap1\n      pop\n      jump\t// out\n        /* \"#utility.yul\":1677:1766   */\n    tag_123:\n        /* \"#utility.yul\":1713:1720   */\n      0x00\n        /* \"#utility.yul\":1753:1759   */\n      0xffff\n        /* \"#utility.yul\":1746:1751   */\n      dup3\n        /* \"#utility.yul\":1742:1760   */\n      and\n        /* \"#utility.yul\":1731:1760   */\n      swap1\n      pop\n        /* \"#utility.yul\":1677:1766   */\n      swap2\n      swap1\n      pop\n      jump\t// out\n        /* \"#utility.yul\":1772:1887   */\n    tag_124:\n        /* \"#utility.yul\":1857:1880   */\n      tag_207\n        /* \"#utility.yul\":1874:1879   */\n      dup2\n        /* \"#utility.yul\":1857:1880   */\n      tag_123\n      jump\t// in\n    tag_207:\n        /* \"#utility.yul\":1852:1855   */\n      dup3\n        /* \"#utility.yul\":1845:1881   */\n      mstore\n        /* \"#utility.yul\":1772:1887   */\n      pop\n      pop\n      jump\t// out\n        /* \"#utility.yul\":1893:2011   */\n    tag_125:\n        /* \"#utility.yul\":1980:2004   */\n      tag_209\n        /* \"#utility.yul\":1998:2003   */\n      dup2\n        /* \"#utility.yul\":1980:2004   */\n      tag_117\n      jump\t// in\n    tag_209:\n        /* \"#utility.yul\":1975:1978   */\n      dup3\n        /* \"#utility.yul\":1968:2005   */\n      mstore\n        /* \"#utility.yul\":1893:2011   */\n      pop\n      pop\n      jump\t// out\n        /* \"#utility.yul\":2017:2116   */\n    tag_126:\n        /* \"#utility.yul\":2069:2075   */\n      0x00\n        /* \"#utility.yul\":2103:2108   */\n      dup2\n        /* \"#utility.yul\":2097:2109   */\n      mload\n        /* \"#utility.yul\":2087:2109   */\n      swap1\n      pop\n        /* \"#utility.yul\":2017:2116   */\n      swap2\n      swap1\n      pop\n      jump\t// out\n        /* \"#utility.yul\":2122:2291   */\n    tag_127:\n        /* \"#utility.yul\":2206:2217   */\n      0x00\n        /* \"#utility.yul\":2240:2246   */\n      dup3\n        /* \"#utility.yul\":2235:2238   */\n      dup3\n        /* \"#utility.yul\":2228:2247   */\n      mstore\n        /* \"#utility.yul\":2280:2284   */\n      0x20\n        /* \"#utility.yul\":2275:2278   */\n      dup3\n        /* \"#utility.yul\":2271:2285   */\n      add\n        /* \"#utility.yul\":2256:2285   */\n      swap1\n      pop\n        /* \"#utility.yul\":2122:2291   */\n      swap3\n      swap2\n      pop\n      pop\n      jump\t// out\n        /* \"#utility.yul\":2297:2436   */\n    tag_128:\n        /* \"#utility.yul\":2386:2392   */\n      dup3\n        /* \"#utility.yul\":2381:2384   */\n      dup2\n        /* \"#utility.yul\":2376:2379   */\n      dup4\n        /* \"#utility.yul\":2370:2393   */\n      mcopy\n        /* \"#utility.yul\":2427:2428   */\n      0x00\n        /* \"#utility.yul\":2418:2424   */\n      dup4\n        /* \"#utility.yul\":2413:2416   */\n      dup4\n        /* \"#utility.yul\":2409:2425   */\n      add\n        /* \"#utility.yul\":2402:2429   */\n      mstore\n        /* \"#utility.yul\":2297:2436   */\n      pop\n      pop\n      pop\n      jump\t// out\n        /* \"#utility.yul\":2442:2544   */\n    tag_129:\n        /* \"#utility.yul\":2483:2489   */\n      0x00\n        /* \"#utility.yul\":2534:2536   */\n      0x1f\n        /* \"#utility.yul\":2530:2537   */\n      not\n        /* \"#utility.yul\":2525:2527   */\n      0x1f\n        /* \"#utility.yul\":2518:2523   */\n      dup4\n        /* \"#utility.yul\":2514:2528   */\n      add\n        /* \"#utility.yul\":2510:2538   */\n      and\n        /* \"#utility.yul\":2500:2538   */\n      swap1\n      pop\n        /* \"#utility.yul\":2442:2544   */\n      swap2\n      swap1\n      pop\n      jump\t// out\n        /* \"#utility.yul\":2550:2927   */\n    tag_130:\n        /* \"#utility.yul\":2638:2641   */\n      0x00\n        /* \"#utility.yul\":2666:2705   */\n      tag_215\n        /* \"#utility.yul\":2699:2704   */\n      dup3\n        /* \"#utility.yul\":2666:2705   */\n      tag_126\n      jump\t// in\n    tag_215:\n        /* \"#utility.yul\":2721:2792   */\n      tag_216\n        /* \"#utility.yul\":2785:2791   */\n      dup2\n        /* \"#utility.yul\":2780:2783   */\n      dup6\n        /* \"#utility.yul\":2721:2792   */\n      tag_127\n      jump\t// in\n    tag_216:\n        /* \"#utility.yul\":2714:2792   */\n      swap4\n      pop\n        /* \"#utility.yul\":2801:2866   */\n      tag_217\n        /* \"#utility.yul\":2859:2865   */\n      dup2\n        /* \"#utility.yul\":2854:2857   */\n      dup6\n        /* \"#utility.yul\":2847:2851   */\n      0x20\n        /* \"#utility.yul\":2840:2845   */\n      dup7\n        /* \"#utility.yul\":2836:2852   */\n      add\n        /* \"#utility.yul\":2801:2866   */\n      tag_128\n      jump\t// in\n    tag_217:\n        /* \"#utility.yul\":2891:2920   */\n      tag_218\n        /* \"#utility.yul\":2913:2919   */\n      dup2\n        /* \"#utility.yul\":2891:2920   */\n      tag_129\n      jump\t// in\n    tag_218:\n        /* \"#utility.yul\":2886:2889   */\n      dup5\n        /* \"#utility.yul\":2882:2921   */\n      add\n        /* \"#utility.yul\":2875:2921   */\n      swap2\n      pop\n        /* \"#utility.yul\":2642:2927   */\n      pop\n        /* \"#utility.yul\":2550:2927   */\n      swap3\n      swap2\n      pop\n      pop\n      jump\t// out\n        /* \"#utility.yul\":2933:3051   */\n    tag_131:\n        /* \"#utility.yul\":3020:3044   */\n      tag_220\n        /* \"#utility.yul\":3038:3043   */\n      dup2\n        /* \"#utility.yul\":3020:3044   */\n      tag_120\n      jump\t// in\n    tag_220:\n        /* \"#utility.yul\":3015:3018   */\n      dup3\n        /* \"#utility.yul\":3008:3045   */\n      mstore\n        /* \"#utility.yul\":2933:3051   */\n      pop\n      pop\n      jump\t// out\n        /* \"#utility.yul\":3057:3143   */\n    tag_132:\n        /* \"#utility.yul\":3092:3099   */\n      0x00\n        /* \"#utility.yul\":3132:3136   */\n      0xff\n        /* \"#utility.yul\":3125:3130   */\n      dup3\n        /* \"#utility.yul\":3121:3137   */\n      and\n        /* \"#utility.yul\":3110:3137   */\n      swap1\n      pop\n        /* \"#utility.yul\":3057:3143   */\n      swap2\n      swap1\n      pop\n      jump\t// out\n        /* \"#utility.yul\":3149:3261   */\n    tag_133:\n        /* \"#utility.yul\":3232:3254   */\n      tag_223\n        /* \"#utility.yul\":3248:3253   */\n      dup2\n        /* \"#utility.yul\":3232:3254   */\n      tag_132\n      jump\t// in\n    tag_223:\n        /* \"#utility.yul\":3227:3230   */\n      dup3\n        /* \"#utility.yul\":3220:3255   */\n      mstore\n        /* \"#utility.yul\":3149:3261   */\n      pop\n      pop\n      jump\t// out\n        /* \"#utility.yul\":3267:4010   */\n    tag_17:\n        /* \"#utility.yul\":3486:3490   */\n      0x00\n        /* \"#utility.yul\":3524:3527   */\n      0xa0\n        /* \"#utility.yul\":3513:3522   */\n      dup3\n        /* \"#utility.yul\":3509:3528   */\n      add\n        /* \"#utility.yul\":3501:3528   */\n      swap1\n      pop\n        /* \"#utility.yul\":3538:3607   */\n      tag_225\n        /* \"#utility.yul\":3604:3605   */\n      0x00\n        /* \"#utility.yul\":3593:3602   */\n      dup4\n        /* \"#utility.yul\":3589:3606   */\n      add\n        /* \"#utility.yul\":3580:3586   */\n      dup9\n        /* \"#utility.yul\":3538:3607   */\n      tag_124\n      jump\t// in\n    tag_225:\n        /* \"#utility.yul\":3617:3689   */\n      tag_226\n        /* \"#utility.yul\":3685:3687   */\n      0x20\n        /* \"#utility.yul\":3674:3683   */\n      dup4\n        /* \"#utility.yul\":3670:3688   */\n      add\n        /* \"#utility.yul\":3661:3667   */\n      dup8\n        /* \"#utility.yul\":3617:3689   */\n      tag_125\n      jump\t// in\n    tag_226:\n        /* \"#utility.yul\":3736:3745   */\n      dup2\n        /* \"#utility.yul\":3730:3734   */\n      dup2\n        /* \"#utility.yul\":3726:3746   */\n      sub\n        /* \"#utility.yul\":3721:3723   */\n      0x40\n        /* \"#utility.yul\":3710:3719   */\n      dup4\n        /* \"#utility.yul\":3706:3724   */\n      add\n        /* \"#utility.yul\":3699:3747   */\n      mstore\n        /* \"#utility.yul\":3764:3842   */\n      tag_227\n        /* \"#utility.yul\":3837:3841   */\n      dup2\n        /* \"#utility.yul\":3828:3834   */\n      dup7\n        /* \"#utility.yul\":3764:3842   */\n      tag_130\n      jump\t// in\n    tag_227:\n        /* \"#utility.yul\":3756:3842   */\n      swap1\n      pop\n        /* \"#utility.yul\":3852:3924   */\n      tag_228\n        /* \"#utility.yul\":3920:3922   */\n      0x60\n        /* \"#utility.yul\":3909:3918   */\n      dup4\n        /* \"#utility.yul\":3905:3923   */\n      add\n        /* \"#utility.yul\":3896:3902   */\n      dup6\n        /* \"#utility.yul\":3852:3924   */\n      tag_131\n      jump\t// in\n    tag_228:\n        /* \"#utility.yul\":3934:4003   */\n      tag_229\n        /* \"#utility.yul\":3998:4001   */\n      0x80\n        /* \"#utility.yul\":3987:3996   */\n      dup4\n        /* \"#utility.yul\":3983:4002   */\n      add\n        /* \"#utility.yul\":3974:3980   */\n      dup5\n        /* \"#utility.yul\":3934:4003   */\n      tag_133\n      jump\t// in\n    tag_229:\n        /* \"#utility.yul\":3267:4010   */\n      swap7\n      swap6\n      pop\n      pop\n      pop\n      pop\n      pop\n      pop\n      jump\t// out\n        /* \"#utility.yul\":4016:4136   */\n    tag_134:\n        /* \"#utility.yul\":4088:4111   */\n      tag_231\n        /* \"#utility.yul\":4105:4110   */\n      dup2\n        /* \"#utility.yul\":4088:4111   */\n      tag_123\n      jump\t// in\n    tag_231:\n        /* \"#utility.yul\":4081:4086   */\n      dup2\n        /* \"#utility.yul\":4078:4112   */\n      eq\n        /* \"#utility.yul\":4068:4130   */\n      tag_232\n      jumpi\n        /* \"#utility.yul\":4126:4127   */\n      0x00\n        /* \"#utility.yul\":4123:4124   */\n      dup1\n        /* \"#utility.yul\":4116:4128   */\n      revert\n        /* \"#utility.yul\":4068:4130   */\n    tag_232:\n        /* \"#utility.yul\":4016:4136   */\n      pop\n      jump\t// out\n        /* \"#utility.yul\":4142:4279   */\n    tag_135:\n        /* \"#utility.yul\":4187:4192   */\n      0x00\n        /* \"#utility.yul\":4225:4231   */\n      dup2\n        /* \"#utility.yul\":4212:4232   */\n      calldataload\n        /* \"#utility.yul\":4203:4232   */\n      swap1\n      pop\n        /* \"#utility.yul\":4241:4273   */\n      tag_234\n        /* \"#utility.yul\":4267:4272   */\n      dup2\n        /* \"#utility.yul\":4241:4273   */\n      tag_134\n      jump\t// in\n    tag_234:\n        /* \"#utility.yul\":4142:4279   */\n      swap3\n      swap2\n      pop\n      pop\n      jump\t// out\n        /* \"#utility.yul\":4285:4757   */\n    tag_20:\n        /* \"#utility.yul\":4352:4358   */\n      0x00\n        /* \"#utility.yul\":4360:4366   */\n      dup1\n        /* \"#utility.yul\":4409:4411   */\n      0x40\n        /* \"#utility.yul\":4397:4406   */\n      dup4\n        /* \"#utility.yul\":4388:4395   */\n      dup6\n        /* \"#utility.yul\":4384:4407   */\n      sub\n        /* \"#utility.yul\":4380:4412   */\n      slt\n        /* \"#utility.yul\":4377:4496   */\n      iszero\n      tag_236\n      jumpi\n        /* \"#utility.yul\":4415:4494   */\n      tag_237\n      tag_114\n      jump\t// in\n    tag_237:\n        /* \"#utility.yul\":4377:4496   */\n    tag_236:\n        /* \"#utility.yul\":4535:4536   */\n      0x00\n        /* \"#utility.yul\":4560:4613   */\n      tag_238\n        /* \"#utility.yul\":4605:4612   */\n      dup6\n        /* \"#utility.yul\":4596:4602   */\n      dup3\n        /* \"#utility.yul\":4585:4594   */\n      dup7\n        /* \"#utility.yul\":4581:4603   */\n      add\n        /* \"#utility.yul\":4560:4613   */\n      tag_119\n      jump\t// in\n    tag_238:\n        /* \"#utility.yul\":4550:4613   */\n      swap3\n      pop\n        /* \"#utility.yul\":4506:4623   */\n      pop\n        /* \"#utility.yul\":4662:4664   */\n      0x20\n        /* \"#utility.yul\":4688:4740   */\n      tag_239\n        /* \"#utility.yul\":4732:4739   */\n      dup6\n        /* \"#utility.yul\":4723:4729   */\n      dup3\n        /* \"#utility.yul\":4712:4721   */\n      dup7\n        /* \"#utility.yul\":4708:4730   */\n      add\n        /* \"#utility.yul\":4688:4740   */\n      tag_135\n      jump\t// in\n    tag_239:\n        /* \"#utility.yul\":4678:4740   */\n      swap2\n      pop\n        /* \"#utility.yul\":4633:4750   */\n      pop\n        /* \"#utility.yul\":4285:4757   */\n      swap3\n      pop\n      swap3\n      swap1\n      pop\n      jump\t// out\n        /* \"#utility.yul\":4763:4880   */\n    tag_136:\n        /* \"#utility.yul\":4872:4873   */\n      0x00\n        /* \"#utility.yul\":4869:4870   */\n      dup1\n        /* \"#utility.yul\":4862:4874   */\n      revert\n        /* \"#utility.yul\":4886:5003   */\n    tag_137:\n        /* \"#utility.yul\":4995:4996   */\n      0x00\n        /* \"#utility.yul\":4992:4993   */\n      dup1\n        /* \"#utility.yul\":4985:4997   */\n      revert\n        /* \"#utility.yul\":5009:5189   */\n    tag_138:\n        /* \"#utility.yul\":5057:5134   */\n      0x4e487b7100000000000000000000000000000000000000000000000000000000\n        /* \"#utility.yul\":5054:5055   */\n      0x00\n        /* \"#utility.yul\":5047:5135   */\n      mstore\n        /* \"#utility.yul\":5154:5158   */\n      0x41\n        /* \"#utility.yul\":5151:5152   */\n      0x04\n        /* \"#utility.yul\":5144:5159   */\n      mstore\n        /* \"#utility.yul\":5178:5182   */\n      0x24\n        /* \"#utility.yul\":5175:5176   */\n      0x00\n        /* \"#utility.yul\":5168:5183   */\n      revert\n        /* \"#utility.yul\":5195:5476   */\n    tag_139:\n        /* \"#utility.yul\":5278:5305   */\n      tag_244\n        /* \"#utility.yul\":5300:5304   */\n      dup3\n        /* \"#utility.yul\":5278:5305   */\n      tag_129\n      jump\t// in\n    tag_244:\n        /* \"#utility.yul\":5270:5276   */\n      dup2\n        /* \"#utility.yul\":5266:5306   */\n      add\n        /* \"#utility.yul\":5408:5414   */\n      dup2\n        /* \"#utility.yul\":5396:5406   */\n      dup2\n        /* \"#utility.yul\":5393:5415   */\n      lt\n        /* \"#utility.yul\":5372:5390   */\n      0xffffffffffffffff\n        /* \"#utility.yul\":5360:5370   */\n      dup3\n        /* \"#utility.yul\":5357:5391   */\n      gt\n        /* \"#utility.yul\":5354:5416   */\n      or\n        /* \"#utility.yul\":5351:5439   */\n      iszero\n      tag_245\n      jumpi\n        /* \"#utility.yul\":5419:5437   */\n      tag_246\n      tag_138\n      jump\t// in\n    tag_246:\n        /* \"#utility.yul\":5351:5439   */\n    tag_245:\n        /* \"#utility.yul\":5459:5469   */\n      dup1\n        /* \"#utility.yul\":5455:5457   */\n      0x40\n        /* \"#utility.yul\":5448:5470   */\n      mstore\n        /* \"#utility.yul\":5238:5476   */\n      pop\n        /* \"#utility.yul\":5195:5476   */\n      pop\n      pop\n      jump\t// out\n        /* \"#utility.yul\":5482:5611   */\n    tag_140:\n        /* \"#utility.yul\":5516:5522   */\n      0x00\n        /* \"#utility.yul\":5543:5563   */\n      tag_248\n      tag_113\n      jump\t// in\n    tag_248:\n        /* \"#utility.yul\":5533:5563   */\n      swap1\n      pop\n        /* \"#utility.yul\":5572:5605   */\n      tag_249\n        /* \"#utility.yul\":5600:5604   */\n      dup3\n        /* \"#utility.yul\":5592:5598   */\n      dup3\n        /* \"#utility.yul\":5572:5605   */\n      tag_139\n      jump\t// in\n    tag_249:\n        /* \"#utility.yul\":5482:5611   */\n      swap2\n      swap1\n      pop\n      jump\t// out\n        /* \"#utility.yul\":5617:5925   */\n    tag_141:\n        /* \"#utility.yul\":5679:5683   */\n      0x00\n        /* \"#utility.yul\":5769:5787   */\n      0xffffffffffffffff\n        /* \"#utility.yul\":5761:5767   */\n      dup3\n        /* \"#utility.yul\":5758:5788   */\n      gt\n        /* \"#utility.yul\":5755:5811   */\n      iszero\n      tag_251\n      jumpi\n        /* \"#utility.yul\":5791:5809   */\n      tag_252\n      tag_138\n      jump\t// in\n    tag_252:\n        /* \"#utility.yul\":5755:5811   */\n    tag_251:\n        /* \"#utility.yul\":5829:5858   */\n      tag_253\n        /* \"#utility.yul\":5851:5857   */\n      dup3\n        /* \"#utility.yul\":5829:5858   */\n      tag_129\n      jump\t// in\n    tag_253:\n        /* \"#utility.yul\":5821:5858   */\n      swap1\n      pop\n        /* \"#utility.yul\":5913:5917   */\n      0x20\n        /* \"#utility.yul\":5907:5911   */\n      dup2\n        /* \"#utility.yul\":5903:5918   */\n      add\n        /* \"#utility.yul\":5895:5918   */\n      swap1\n      pop\n        /* \"#utility.yul\":5617:5925   */\n      swap2\n      swap1\n      pop\n      jump\t// out\n        /* \"#utility.yul\":5931:6079   */\n    tag_142:\n        /* \"#utility.yul\":6029:6035   */\n      dup3\n        /* \"#utility.yul\":6024:6027   */\n      dup2\n        /* \"#utility.yul\":6019:6022   */\n      dup4\n        /* \"#utility.yul\":6006:6036   */\n      calldatacopy\n        /* \"#utility.yul\":6070:6071   */\n      0x00\n        /* \"#utility.yul\":6061:6067   */\n      dup4\n        /* \"#utility.yul\":6056:6059   */\n      dup4\n        /* \"#utility.yul\":6052:6068   */\n      add\n        /* \"#utility.yul\":6045:6072   */\n      mstore\n        /* \"#utility.yul\":5931:6079   */\n      pop\n      pop\n      pop\n      jump\t// out\n        /* \"#utility.yul\":6085:6510   */\n    tag_143:\n        /* \"#utility.yul\":6163:6168   */\n      0x00\n        /* \"#utility.yul\":6188:6254   */\n      tag_256\n        /* \"#utility.yul\":6204:6253   */\n      tag_257\n        /* \"#utility.yul\":6246:6252   */\n      dup5\n        /* \"#utility.yul\":6204:6253   */\n      tag_141\n      jump\t// in\n    tag_257:\n        /* \"#utility.yul\":6188:6254   */\n      tag_140\n      jump\t// in\n    tag_256:\n        /* \"#utility.yul\":6179:6254   */\n      swap1\n      pop\n        /* \"#utility.yul\":6277:6283   */\n      dup3\n        /* \"#utility.yul\":6270:6275   */\n      dup2\n        /* \"#utility.yul\":6263:6284   */\n      mstore\n        /* \"#utility.yul\":6315:6319   */\n      0x20\n        /* \"#utility.yul\":6308:6313   */\n      dup2\n        /* \"#utility.yul\":6304:6320   */\n      add\n        /* \"#utility.yul\":6353:6356   */\n      dup5\n        /* \"#utility.yul\":6344:6350   */\n      dup5\n        /* \"#utility.yul\":6339:6342   */\n      dup5\n        /* \"#utility.yul\":6335:6351   */\n      add\n        /* \"#utility.yul\":6332:6357   */\n      gt\n        /* \"#utility.yul\":6329:6441   */\n      iszero\n      tag_258\n      jumpi\n        /* \"#utility.yul\":6360:6439   */\n      tag_259\n      tag_137\n      jump\t// in\n    tag_259:\n        /* \"#utility.yul\":6329:6441   */\n    tag_258:\n        /* \"#utility.yul\":6450:6504   */\n      tag_260\n        /* \"#utility.yul\":6497:6503   */\n      dup5\n        /* \"#utility.yul\":6492:6495   */\n      dup3\n        /* \"#utility.yul\":6487:6490   */\n      dup6\n        /* \"#utility.yul\":6450:6504   */\n      tag_142\n      jump\t// in\n    tag_260:\n        /* \"#utility.yul\":6169:6510   */\n      pop\n        /* \"#utility.yul\":6085:6510   */\n      swap4\n      swap3\n      pop\n      pop\n      pop\n      jump\t// out\n        /* \"#utility.yul\":6530:6870   */\n    tag_144:\n        /* \"#utility.yul\":6586:6591   */\n      0x00\n        /* \"#utility.yul\":6635:6638   */\n      dup3\n        /* \"#utility.yul\":6628:6632   */\n      0x1f\n        /* \"#utility.yul\":6620:6626   */\n      dup4\n        /* \"#utility.yul\":6616:6633   */\n      add\n        /* \"#utility.yul\":6612:6639   */\n      slt\n        /* \"#utility.yul\":6602:6724   */\n      tag_262\n      jumpi\n        /* \"#utility.yul\":6643:6722   */\n      tag_263\n      tag_136\n      jump\t// in\n    tag_263:\n        /* \"#utility.yul\":6602:6724   */\n    tag_262:\n        /* \"#utility.yul\":6760:6766   */\n      dup2\n        /* \"#utility.yul\":6747:6767   */\n      calldataload\n        /* \"#utility.yul\":6785:6864   */\n      tag_264\n        /* \"#utility.yul\":6860:6863   */\n      dup5\n        /* \"#utility.yul\":6852:6858   */\n      dup3\n        /* \"#utility.yul\":6845:6849   */\n      0x20\n        /* \"#utility.yul\":6837:6843   */\n      dup7\n        /* \"#utility.yul\":6833:6850   */\n      add\n        /* \"#utility.yul\":6785:6864   */\n      tag_143\n      jump\t// in\n    tag_264:\n        /* \"#utility.yul\":6776:6864   */\n      swap2\n      pop\n        /* \"#utility.yul\":6592:6870   */\n      pop\n        /* \"#utility.yul\":6530:6870   */\n      swap3\n      swap2\n      pop\n      pop\n      jump\t// out\n        /* \"#utility.yul\":6876:7385   */\n    tag_24:\n        /* \"#utility.yul\":6945:6951   */\n      0x00\n        /* \"#utility.yul\":6994:6996   */\n      0x20\n        /* \"#utility.yul\":6982:6991   */\n      dup3\n        /* \"#utility.yul\":6973:6980   */\n      dup5\n        /* \"#utility.yul\":6969:6992   */\n      sub\n        /* \"#utility.yul\":6965:6997   */\n      slt\n        /* \"#utility.yul\":6962:7081   */\n      iszero\n      tag_266\n      jumpi\n        /* \"#utility.yul\":7000:7079   */\n      tag_267\n      tag_114\n      jump\t// in\n    tag_267:\n        /* \"#utility.yul\":6962:7081   */\n    tag_266:\n        /* \"#utility.yul\":7148:7149   */\n      0x00\n        /* \"#utility.yul\":7137:7146   */\n      dup3\n        /* \"#utility.yul\":7133:7150   */\n      add\n        /* \"#utility.yul\":7120:7151   */\n      calldataload\n        /* \"#utility.yul\":7178:7196   */\n      0xffffffffffffffff\n        /* \"#utility.yul\":7170:7176   */\n      dup2\n        /* \"#utility.yul\":7167:7197   */\n      gt\n        /* \"#utility.yul\":7164:7281   */\n      iszero\n      tag_268\n      jumpi\n        /* \"#utility.yul\":7200:7279   */\n      tag_269\n      tag_115\n      jump\t// in\n    tag_269:\n        /* \"#utility.yul\":7164:7281   */\n    tag_268:\n        /* \"#utility.yul\":7305:7368   */\n      tag_270\n        /* \"#utility.yul\":7360:7367   */\n      dup5\n        /* \"#utility.yul\":7351:7357   */\n      dup3\n        /* \"#utility.yul\":7340:7349   */\n      dup6\n        /* \"#utility.yul\":7336:7358   */\n      add\n        /* \"#utility.yul\":7305:7368   */\n      tag_144\n      jump\t// in\n    tag_270:\n        /* \"#utility.yul\":7295:7368   */\n      swap2\n      pop\n        /* \"#utility.yul\":7091:7378   */\n      pop\n        /* \"#utility.yul\":6876:7385   */\n      swap3\n      swap2\n      pop\n      pop\n      jump\t// out\n        /* \"#utility.yul\":7391:7496   */\n    tag_145:\n        /* \"#utility.yul\":7466:7489   */\n      tag_272\n        /* \"#utility.yul\":7483:7488   */\n      dup2\n        /* \"#utility.yul\":7466:7489   */\n      tag_123\n      jump\t// in\n    tag_272:\n        /* \"#utility.yul\":7461:7464   */\n      dup3\n        /* \"#utility.yul\":7454:7490   */\n      mstore\n        /* \"#utility.yul\":7391:7496   */\n      pop\n      pop\n      jump\t// out\n        /* \"#utility.yul\":7502:7610   */\n    tag_146:\n        /* \"#utility.yul\":7579:7603   */\n      tag_274\n        /* \"#utility.yul\":7597:7602   */\n      dup2\n        /* \"#utility.yul\":7579:7603   */\n      tag_117\n      jump\t// in\n    tag_274:\n        /* \"#utility.yul\":7574:7577   */\n      dup3\n        /* \"#utility.yul\":7567:7604   */\n      mstore\n        /* \"#utility.yul\":7502:7610   */\n      pop\n      pop\n      jump\t// out\n        /* \"#utility.yul\":7616:7775   */\n    tag_147:\n        /* \"#utility.yul\":7690:7701   */\n      0x00\n        /* \"#utility.yul\":7724:7730   */\n      dup3\n        /* \"#utility.yul\":7719:7722   */\n      dup3\n        /* \"#utility.yul\":7712:7731   */\n      mstore\n        /* \"#utility.yul\":7764:7768   */\n      0x20\n        /* \"#utility.yul\":7759:7762   */\n      dup3\n        /* \"#utility.yul\":7755:7769   */\n      add\n        /* \"#utility.yul\":7740:7769   */\n      swap1\n      pop\n        /* \"#utility.yul\":7616:7775   */\n      swap3\n      swap2\n      pop\n      pop\n      jump\t// out\n        /* \"#utility.yul\":7781:8138   */\n    tag_148:\n        /* \"#utility.yul\":7859:7862   */\n      0x00\n        /* \"#utility.yul\":7887:7926   */\n      tag_277\n        /* \"#utility.yul\":7920:7925   */\n      dup3\n        /* \"#utility.yul\":7887:7926   */\n      tag_126\n      jump\t// in\n    tag_277:\n        /* \"#utility.yul\":7942:8003   */\n      tag_278\n        /* \"#utility.yul\":7996:8002   */\n      dup2\n        /* \"#utility.yul\":7991:7994   */\n      dup6\n        /* \"#utility.yul\":7942:8003   */\n      tag_147\n      jump\t// in\n    tag_278:\n        /* \"#utility.yul\":7935:8003   */\n      swap4\n      pop\n        /* \"#utility.yul\":8012:8077   */\n      tag_279\n        /* \"#utility.yul\":8070:8076   */\n      dup2\n        /* \"#utility.yul\":8065:8068   */\n      dup6\n        /* \"#utility.yul\":8058:8062   */\n      0x20\n        /* \"#utility.yul\":8051:8056   */\n      dup7\n        /* \"#utility.yul\":8047:8063   */\n      add\n        /* \"#utility.yul\":8012:8077   */\n      tag_128\n      jump\t// in\n    tag_279:\n        /* \"#utility.yul\":8102:8131   */\n      tag_280\n        /* \"#utility.yul\":8124:8130   */\n      dup2\n        /* \"#utility.yul\":8102:8131   */\n      tag_129\n      jump\t// in\n    tag_280:\n        /* \"#utility.yul\":8097:8100   */\n      dup5\n        /* \"#utility.yul\":8093:8132   */\n      add\n        /* \"#utility.yul\":8086:8132   */\n      swap2\n      pop\n        /* \"#utility.yul\":7863:8138   */\n      pop\n        /* \"#utility.yul\":7781:8138   */\n      swap3\n      swap2\n      pop\n      pop\n      jump\t// out\n        /* \"#utility.yul\":8144:8252   */\n    tag_149:\n        /* \"#utility.yul\":8221:8245   */\n      tag_282\n        /* \"#utility.yul\":8239:8244   */\n      dup2\n        /* \"#utility.yul\":8221:8245   */\n      tag_120\n      jump\t// in\n    tag_282:\n        /* \"#utility.yul\":8216:8219   */\n      dup3\n        /* \"#utility.yul\":8209:8246   */\n      mstore\n        /* \"#utility.yul\":8144:8252   */\n      pop\n      pop\n      jump\t// out\n        /* \"#utility.yul\":8258:8360   */\n    tag_150:\n        /* \"#utility.yul\":8331:8353   */\n      tag_284\n        /* \"#utility.yul\":8347:8352   */\n      dup2\n        /* \"#utility.yul\":8331:8353   */\n      tag_132\n      jump\t// in\n    tag_284:\n        /* \"#utility.yul\":8326:8329   */\n      dup3\n        /* \"#utility.yul\":8319:8354   */\n      mstore\n        /* \"#utility.yul\":8258:8360   */\n      pop\n      pop\n      jump\t// out\n        /* \"#utility.yul\":8422:9553   */\n    tag_151:\n        /* \"#utility.yul\":8541:8544   */\n      0x00\n        /* \"#utility.yul\":8577:8581   */\n      0xa0\n        /* \"#utility.yul\":8572:8575   */\n      dup4\n        /* \"#utility.yul\":8568:8582   */\n      add\n        /* \"#utility.yul\":8662:8666   */\n      0x00\n        /* \"#utility.yul\":8655:8660   */\n      dup4\n        /* \"#utility.yul\":8651:8667   */\n      add\n        /* \"#utility.yul\":8645:8668   */\n      mload\n        /* \"#utility.yul\":8681:8742   */\n      tag_286\n        /* \"#utility.yul\":8736:8740   */\n      0x00\n        /* \"#utility.yul\":8731:8734   */\n      dup7\n        /* \"#utility.yul\":8727:8741   */\n      add\n        /* \"#utility.yul\":8713:8725   */\n      dup3\n        /* \"#utility.yul\":8681:8742   */\n      tag_145\n      jump\t// in\n    tag_286:\n        /* \"#utility.yul\":8592:8752   */\n      pop\n        /* \"#utility.yul\":8836:8840   */\n      0x20\n        /* \"#utility.yul\":8829:8834   */\n      dup4\n        /* \"#utility.yul\":8825:8841   */\n      add\n        /* \"#utility.yul\":8819:8842   */\n      mload\n        /* \"#utility.yul\":8855:8918   */\n      tag_287\n        /* \"#utility.yul\":8912:8916   */\n      0x20\n        /* \"#utility.yul\":8907:8910   */\n      dup7\n        /* \"#utility.yul\":8903:8917   */\n      add\n        /* \"#utility.yul\":8889:8901   */\n      dup3\n        /* \"#utility.yul\":8855:8918   */\n      tag_146\n      jump\t// in\n    tag_287:\n        /* \"#utility.yul\":8762:8928   */\n      pop\n        /* \"#utility.yul\":9013:9017   */\n      0x40\n        /* \"#utility.yul\":9006:9011   */\n      dup4\n        /* \"#utility.yul\":9002:9018   */\n      add\n        /* \"#utility.yul\":8996:9019   */\n      mload\n        /* \"#utility.yul\":9066:9069   */\n      dup5\n        /* \"#utility.yul\":9060:9064   */\n      dup3\n        /* \"#utility.yul\":9056:9070   */\n      sub\n        /* \"#utility.yul\":9049:9053   */\n      0x40\n        /* \"#utility.yul\":9044:9047   */\n      dup7\n        /* \"#utility.yul\":9040:9054   */\n      add\n        /* \"#utility.yul\":9033:9071   */\n      mstore\n        /* \"#utility.yul\":9092:9165   */\n      tag_288\n        /* \"#utility.yul\":9160:9164   */\n      dup3\n        /* \"#utility.yul\":9146:9158   */\n      dup3\n        /* \"#utility.yul\":9092:9165   */\n      tag_148\n      jump\t// in\n    tag_288:\n        /* \"#utility.yul\":9084:9165   */\n      swap2\n      pop\n        /* \"#utility.yul\":8938:9176   */\n      pop\n        /* \"#utility.yul\":9263:9267   */\n      0x60\n        /* \"#utility.yul\":9256:9261   */\n      dup4\n        /* \"#utility.yul\":9252:9268   */\n      add\n        /* \"#utility.yul\":9246:9269   */\n      mload\n        /* \"#utility.yul\":9282:9345   */\n      tag_289\n        /* \"#utility.yul\":9339:9343   */\n      0x60\n        /* \"#utility.yul\":9334:9337   */\n      dup7\n        /* \"#utility.yul\":9330:9344   */\n      add\n        /* \"#utility.yul\":9316:9328   */\n      dup3\n        /* \"#utility.yul\":9282:9345   */\n      tag_149\n      jump\t// in\n    tag_289:\n        /* \"#utility.yul\":9186:9355   */\n      pop\n        /* \"#utility.yul\":9438:9442   */\n      0x80\n        /* \"#utility.yul\":9431:9436   */\n      dup4\n        /* \"#utility.yul\":9427:9443   */\n      add\n        /* \"#utility.yul\":9421:9444   */\n      mload\n        /* \"#utility.yul\":9457:9516   */\n      tag_290\n        /* \"#utility.yul\":9510:9514   */\n      0x80\n        /* \"#utility.yul\":9505:9508   */\n      dup7\n        /* \"#utility.yul\":9501:9515   */\n      add\n        /* \"#utility.yul\":9487:9499   */\n      dup3\n        /* \"#utility.yul\":9457:9516   */\n      tag_150\n      jump\t// in\n    tag_290:\n        /* \"#utility.yul\":9365:9526   */\n      pop\n        /* \"#utility.yul\":9543:9547   */\n      dup1\n        /* \"#utility.yul\":9536:9547   */\n      swap2\n      pop\n        /* \"#utility.yul\":8546:9553   */\n      pop\n        /* \"#utility.yul\":8422:9553   */\n      swap3\n      swap2\n      pop\n      pop\n      jump\t// out\n        /* \"#utility.yul\":9559:9932   */\n    tag_27:\n        /* \"#utility.yul\":9702:9706   */\n      0x00\n        /* \"#utility.yul\":9740:9742   */\n      0x20\n        /* \"#utility.yul\":9729:9738   */\n      dup3\n        /* \"#utility.yul\":9725:9743   */\n      add\n        /* \"#utility.yul\":9717:9743   */\n      swap1\n      pop\n        /* \"#utility.yul\":9789:9798   */\n      dup2\n        /* \"#utility.yul\":9783:9787   */\n      dup2\n        /* \"#utility.yul\":9779:9799   */\n      sub\n        /* \"#utility.yul\":9775:9776   */\n      0x00\n        /* \"#utility.yul\":9764:9773   */\n      dup4\n        /* \"#utility.yul\":9760:9777   */\n      add\n        /* \"#utility.yul\":9753:9800   */\n      mstore\n        /* \"#utility.yul\":9817:9925   */\n      tag_292\n        /* \"#utility.yul\":9920:9924   */\n      dup2\n        /* \"#utility.yul\":9911:9917   */\n      dup5\n        /* \"#utility.yul\":9817:9925   */\n      tag_151\n      jump\t// in\n    tag_292:\n        /* \"#utility.yul\":9809:9925   */\n      swap1\n      pop\n        /* \"#utility.yul\":9559:9932   */\n      swap3\n      swap2\n      pop\n      pop\n      jump\t// out\n        /* \"#utility.yul\":9938:10160   */\n    tag_31:\n        /* \"#utility.yul\":10031:10035   */\n      0x00\n        /* \"#utility.yul\":10069:10071   */\n      0x20\n        /* \"#utility.yul\":10058:10067   */\n      dup3\n        /* \"#utility.yul\":10054:10072   */\n      add\n        /* \"#utility.yul\":10046:10072   */\n      swap1\n      pop\n        /* \"#utility.yul\":10082:10153   */\n      tag_294\n        /* \"#utility.yul\":10150:10151   */\n      0x00\n        /* \"#utility.yul\":10139:10148   */\n      dup4\n        /* \"#utility.yul\":10135:10152   */\n      add\n        /* \"#utility.yul\":10126:10132   */\n      dup5\n        /* \"#utility.yul\":10082:10153   */\n      tag_125\n      jump\t// in\n    tag_294:\n        /* \"#utility.yul\":9938:10160   */\n      swap3\n      swap2\n      pop\n      pop\n      jump\t// out\n        /* \"#utility.yul\":10166:10495   */\n    tag_34:\n        /* \"#utility.yul\":10225:10231   */\n      0x00\n        /* \"#utility.yul\":10274:10276   */\n      0x20\n        /* \"#utility.yul\":10262:10271   */\n      dup3\n        /* \"#utility.yul\":10253:10260   */\n      dup5\n        /* \"#utility.yul\":10249:10272   */\n      sub\n        /* \"#utility.yul\":10245:10277   */\n      slt\n        /* \"#utility.yul\":10242:10361   */\n      iszero\n      tag_296\n      jumpi\n        /* \"#utility.yul\":10280:10359   */\n      tag_297\n      tag_114\n      jump\t// in\n    tag_297:\n        /* \"#utility.yul\":10242:10361   */\n    tag_296:\n        /* \"#utility.yul\":10400:10401   */\n      0x00\n        /* \"#utility.yul\":10425:10478   */\n      tag_298\n        /* \"#utility.yul\":10470:10477   */\n      dup5\n        /* \"#utility.yul\":10461:10467   */\n      dup3\n        /* \"#utility.yul\":10450:10459   */\n      dup6\n        /* \"#utility.yul\":10446:10468   */\n      add\n        /* \"#utility.yul\":10425:10478   */\n      tag_119\n      jump\t// in\n    tag_298:\n        /* \"#utility.yul\":10415:10478   */\n      swap2\n      pop\n        /* \"#utility.yul\":10371:10488   */\n      pop\n        /* \"#utility.yul\":10166:10495   */\n      swap3\n      swap2\n      pop\n      pop\n      jump\t// out\n        /* \"#utility.yul\":10501:10640   */\n    tag_152:\n        /* \"#utility.yul\":10593:10599   */\n      0x00\n        /* \"#utility.yul\":10627:10632   */\n      dup2\n        /* \"#utility.yul\":10621:10633   */\n      mload\n        /* \"#utility.yul\":10611:10633   */\n      swap1\n      pop\n        /* \"#utility.yul\":10501:10640   */\n      swap2\n      swap1\n      pop\n      jump\t// out\n        /* \"#utility.yul\":10646:10855   */\n    tag_153:\n        /* \"#utility.yul\":10770:10781   */\n      0x00\n        /* \"#utility.yul\":10804:10810   */\n      dup3\n        /* \"#utility.yul\":10799:10802   */\n      dup3\n        /* \"#utility.yul\":10792:10811   */\n      mstore\n        /* \"#utility.yul\":10844:10848   */\n      0x20\n        /* \"#utility.yul\":10839:10842   */\n      dup3\n        /* \"#utility.yul\":10835:10849   */\n      add\n        /* \"#utility.yul\":10820:10849   */\n      swap1\n      pop\n        /* \"#utility.yul\":10646:10855   */\n      swap3\n      swap2\n      pop\n      pop\n      jump\t// out\n        /* \"#utility.yul\":10861:11018   */\n    tag_154:\n        /* \"#utility.yul\":10953:10957   */\n      0x00\n        /* \"#utility.yul\":10976:10979   */\n      dup2\n        /* \"#utility.yul\":10968:10979   */\n      swap1\n      pop\n        /* \"#utility.yul\":11006:11010   */\n      0x20\n        /* \"#utility.yul\":11001:11004   */\n      dup3\n        /* \"#utility.yul\":10997:11011   */\n      add\n        /* \"#utility.yul\":10989:11011   */\n      swap1\n      pop\n        /* \"#utility.yul\":10861:11018   */\n      swap2\n      swap1\n      pop\n      jump\t// out\n        /* \"#utility.yul\":11080:12201   */\n    tag_155:\n        /* \"#utility.yul\":11189:11192   */\n      0x00\n        /* \"#utility.yul\":11225:11229   */\n      0xa0\n        /* \"#utility.yul\":11220:11223   */\n      dup4\n        /* \"#utility.yul\":11216:11230   */\n      add\n        /* \"#utility.yul\":11310:11314   */\n      0x00\n        /* \"#utility.yul\":11303:11308   */\n      dup4\n        /* \"#utility.yul\":11299:11315   */\n      add\n        /* \"#utility.yul\":11293:11316   */\n      mload\n        /* \"#utility.yul\":11329:11390   */\n      tag_303\n        /* \"#utility.yul\":11384:11388   */\n      0x00\n        /* \"#utility.yul\":11379:11382   */\n      dup7\n        /* \"#utility.yul\":11375:11389   */\n      add\n        /* \"#utility.yul\":11361:11373   */\n      dup3\n        /* \"#utility.yul\":11329:11390   */\n      tag_145\n      jump\t// in\n    tag_303:\n        /* \"#utility.yul\":11240:11400   */\n      pop\n        /* \"#utility.yul\":11484:11488   */\n      0x20\n        /* \"#utility.yul\":11477:11482   */\n      dup4\n        /* \"#utility.yul\":11473:11489   */\n      add\n        /* \"#utility.yul\":11467:11490   */\n      mload\n        /* \"#utility.yul\":11503:11566   */\n      tag_304\n        /* \"#utility.yul\":11560:11564   */\n      0x20\n        /* \"#utility.yul\":11555:11558   */\n      dup7\n        /* \"#utility.yul\":11551:11565   */\n      add\n        /* \"#utility.yul\":11537:11549   */\n      dup3\n        /* \"#utility.yul\":11503:11566   */\n      tag_146\n      jump\t// in\n    tag_304:\n        /* \"#utility.yul\":11410:11576   */\n      pop\n        /* \"#utility.yul\":11661:11665   */\n      0x40\n        /* \"#utility.yul\":11654:11659   */\n      dup4\n        /* \"#utility.yul\":11650:11666   */\n      add\n        /* \"#utility.yul\":11644:11667   */\n      mload\n        /* \"#utility.yul\":11714:11717   */\n      dup5\n        /* \"#utility.yul\":11708:11712   */\n      dup3\n        /* \"#utility.yul\":11704:11718   */\n      sub\n        /* \"#utility.yul\":11697:11701   */\n      0x40\n        /* \"#utility.yul\":11692:11695   */\n      dup7\n        /* \"#utility.yul\":11688:11702   */\n      add\n        /* \"#utility.yul\":11681:11719   */\n      mstore\n        /* \"#utility.yul\":11740:11813   */\n      tag_305\n        /* \"#utility.yul\":11808:11812   */\n      dup3\n        /* \"#utility.yul\":11794:11806   */\n      dup3\n        /* \"#utility.yul\":11740:11813   */\n      tag_148\n      jump\t// in\n    tag_305:\n        /* \"#utility.yul\":11732:11813   */\n      swap2\n      pop\n        /* \"#utility.yul\":11586:11824   */\n      pop\n        /* \"#utility.yul\":11911:11915   */\n      0x60\n        /* \"#utility.yul\":11904:11909   */\n      dup4\n        /* \"#utility.yul\":11900:11916   */\n      add\n        /* \"#utility.yul\":11894:11917   */\n      mload\n        /* \"#utility.yul\":11930:11993   */\n      tag_306\n        /* \"#utility.yul\":11987:11991   */\n      0x60\n        /* \"#utility.yul\":11982:11985   */\n      dup7\n        /* \"#utility.yul\":11978:11992   */\n      add\n        /* \"#utility.yul\":11964:11976   */\n      dup3\n        /* \"#utility.yul\":11930:11993   */\n      tag_149\n      jump\t// in\n    tag_306:\n        /* \"#utility.yul\":11834:12003   */\n      pop\n        /* \"#utility.yul\":12086:12090   */\n      0x80\n        /* \"#utility.yul\":12079:12084   */\n      dup4\n        /* \"#utility.yul\":12075:12091   */\n      add\n        /* \"#utility.yul\":12069:12092   */\n      mload\n        /* \"#utility.yul\":12105:12164   */\n      tag_307\n        /* \"#utility.yul\":12158:12162   */\n      0x80\n        /* \"#utility.yul\":12153:12156   */\n      dup7\n        /* \"#utility.yul\":12149:12163   */\n      add\n        /* \"#utility.yul\":12135:12147   */\n      dup3\n        /* \"#utility.yul\":12105:12164   */\n      tag_150\n      jump\t// in\n    tag_307:\n        /* \"#utility.yul\":12013:12174   */\n      pop\n        /* \"#utility.yul\":12191:12195   */\n      dup1\n        /* \"#utility.yul\":12184:12195   */\n      swap2\n      pop\n        /* \"#utility.yul\":11194:12201   */\n      pop\n        /* \"#utility.yul\":11080:12201   */\n      swap3\n      swap2\n      pop\n      pop\n      jump\t// out\n        /* \"#utility.yul\":12207:12463   */\n    tag_156:\n        /* \"#utility.yul\":12326:12336   */\n      0x00\n        /* \"#utility.yul\":12361:12457   */\n      tag_309\n        /* \"#utility.yul\":12453:12456   */\n      dup4\n        /* \"#utility.yul\":12445:12451   */\n      dup4\n        /* \"#utility.yul\":12361:12457   */\n      tag_155\n      jump\t// in\n    tag_309:\n        /* \"#utility.yul\":12347:12457   */\n      swap1\n      pop\n        /* \"#utility.yul\":12207:12463   */\n      swap3\n      swap2\n      pop\n      pop\n      jump\t// out\n        /* \"#utility.yul\":12469:12607   */\n    tag_157:\n        /* \"#utility.yul\":12564:12568   */\n      0x00\n        /* \"#utility.yul\":12596:12600   */\n      0x20\n        /* \"#utility.yul\":12591:12594   */\n      dup3\n        /* \"#utility.yul\":12587:12601   */\n      add\n        /* \"#utility.yul\":12579:12601   */\n      swap1\n      pop\n        /* \"#utility.yul\":12469:12607   */\n      swap2\n      swap1\n      pop\n      jump\t// out\n        /* \"#utility.yul\":12673:13784   */\n    tag_158:\n        /* \"#utility.yul\":12842:12845   */\n      0x00\n        /* \"#utility.yul\":12871:12950   */\n      tag_312\n        /* \"#utility.yul\":12944:12949   */\n      dup3\n        /* \"#utility.yul\":12871:12950   */\n      tag_152\n      jump\t// in\n    tag_312:\n        /* \"#utility.yul\":12966:13077   */\n      tag_313\n        /* \"#utility.yul\":13070:13076   */\n      dup2\n        /* \"#utility.yul\":13065:13068   */\n      dup6\n        /* \"#utility.yul\":12966:13077   */\n      tag_153\n      jump\t// in\n    tag_313:\n        /* \"#utility.yul\":12959:13077   */\n      swap4\n      pop\n        /* \"#utility.yul\":13103:13106   */\n      dup4\n        /* \"#utility.yul\":13148:13152   */\n      0x20\n        /* \"#utility.yul\":13140:13146   */\n      dup3\n        /* \"#utility.yul\":13136:13153   */\n      mul\n        /* \"#utility.yul\":13131:13134   */\n      dup6\n        /* \"#utility.yul\":13127:13154   */\n      add\n        /* \"#utility.yul\":13178:13259   */\n      tag_314\n        /* \"#utility.yul\":13253:13258   */\n      dup6\n        /* \"#utility.yul\":13178:13259   */\n      tag_154\n      jump\t// in\n    tag_314:\n        /* \"#utility.yul\":13282:13289   */\n      dup1\n        /* \"#utility.yul\":13313:13314   */\n      0x00\n        /* \"#utility.yul\":13298:13739   */\n    tag_315:\n        /* \"#utility.yul\":13323:13329   */\n      dup6\n        /* \"#utility.yul\":13320:13321   */\n      dup2\n        /* \"#utility.yul\":13317:13330   */\n      lt\n        /* \"#utility.yul\":13298:13739   */\n      iszero\n      tag_317\n      jumpi\n        /* \"#utility.yul\":13394:13403   */\n      dup5\n        /* \"#utility.yul\":13388:13392   */\n      dup5\n        /* \"#utility.yul\":13384:13404   */\n      sub\n        /* \"#utility.yul\":13379:13382   */\n      dup10\n        /* \"#utility.yul\":13372:13405   */\n      mstore\n        /* \"#utility.yul\":13445:13451   */\n      dup2\n        /* \"#utility.yul\":13439:13452   */\n      mload\n        /* \"#utility.yul\":13473:13587   */\n      tag_318\n        /* \"#utility.yul\":13582:13586   */\n      dup6\n        /* \"#utility.yul\":13567:13580   */\n      dup3\n        /* \"#utility.yul\":13473:13587   */\n      tag_156\n      jump\t// in\n    tag_318:\n        /* \"#utility.yul\":13465:13587   */\n      swap5\n      pop\n        /* \"#utility.yul\":13610:13695   */\n      tag_319\n        /* \"#utility.yul\":13688:13694   */\n      dup4\n        /* \"#utility.yul\":13610:13695   */\n      tag_157\n      jump\t// in\n    tag_319:\n        /* \"#utility.yul\":13600:13695   */\n      swap3\n      pop\n        /* \"#utility.yul\":13724:13728   */\n      0x20\n        /* \"#utility.yul\":13719:13722   */\n      dup11\n        /* \"#utility.yul\":13715:13729   */\n      add\n        /* \"#utility.yul\":13708:13729   */\n      swap10\n      pop\n        /* \"#utility.yul\":13358:13739   */\n      pop\n        /* \"#utility.yul\":13345:13346   */\n      0x01\n        /* \"#utility.yul\":13342:13343   */\n      dup2\n        /* \"#utility.yul\":13338:13347   */\n      add\n        /* \"#utility.yul\":13333:13347   */\n      swap1\n      pop\n        /* \"#utility.yul\":13298:13739   */\n      jump(tag_315)\n    tag_317:\n        /* \"#utility.yul\":13302:13316   */\n      pop\n        /* \"#utility.yul\":13755:13759   */\n      dup3\n        /* \"#utility.yul\":13748:13759   */\n      swap8\n      pop\n        /* \"#utility.yul\":13775:13778   */\n      dup8\n        /* \"#utility.yul\":13768:13778   */\n      swap6\n      pop\n        /* \"#utility.yul\":12847:13784   */\n      pop\n      pop\n      pop\n      pop\n      pop\n        /* \"#utility.yul\":12673:13784   */\n      swap3\n      swap2\n      pop\n      pop\n      jump\t// out\n        /* \"#utility.yul\":13790:14263   */\n    tag_37:\n        /* \"#utility.yul\":13983:13987   */\n      0x00\n        /* \"#utility.yul\":14021:14023   */\n      0x20\n        /* \"#utility.yul\":14010:14019   */\n      dup3\n        /* \"#utility.yul\":14006:14024   */\n      add\n        /* \"#utility.yul\":13998:14024   */\n      swap1\n      pop\n        /* \"#utility.yul\":14070:14079   */\n      dup2\n        /* \"#utility.yul\":14064:14068   */\n      dup2\n        /* \"#utility.yul\":14060:14080   */\n      sub\n        /* \"#utility.yul\":14056:14057   */\n      0x00\n        /* \"#utility.yul\":14045:14054   */\n      dup4\n        /* \"#utility.yul\":14041:14058   */\n      add\n        /* \"#utility.yul\":14034:14081   */\n      mstore\n        /* \"#utility.yul\":14098:14256   */\n      tag_321\n        /* \"#utility.yul\":14251:14255   */\n      dup2\n        /* \"#utility.yul\":14242:14248   */\n      dup5\n        /* \"#utility.yul\":14098:14256   */\n      tag_158\n      jump\t// in\n    tag_321:\n        /* \"#utility.yul\":14090:14256   */\n      swap1\n      pop\n        /* \"#utility.yul\":13790:14263   */\n      swap3\n      swap2\n      pop\n      pop\n      jump\t// out\n        /* \"#utility.yul\":14269:14449   */\n    tag_159:\n        /* \"#utility.yul\":14317:14394   */\n      0x4e487b7100000000000000000000000000000000000000000000000000000000\n        /* \"#utility.yul\":14314:14315   */\n      0x00\n        /* \"#utility.yul\":14307:14395   */\n      mstore\n        /* \"#utility.yul\":14414:14418   */\n      0x22\n        /* \"#utility.yul\":14411:14412   */\n      0x04\n        /* \"#utility.yul\":14404:14419   */\n      mstore\n        /* \"#utility.yul\":14438:14442   */\n      0x24\n        /* \"#utility.yul\":14435:14436   */\n      0x00\n        /* \"#utility.yul\":14428:14443   */\n      revert\n        /* \"#utility.yul\":14455:14775   */\n    tag_51:\n        /* \"#utility.yul\":14499:14505   */\n      0x00\n        /* \"#utility.yul\":14536:14537   */\n      0x02\n        /* \"#utility.yul\":14530:14534   */\n      dup3\n        /* \"#utility.yul\":14526:14538   */\n      div\n        /* \"#utility.yul\":14516:14538   */\n      swap1\n      pop\n        /* \"#utility.yul\":14583:14584   */\n      0x01\n        /* \"#utility.yul\":14577:14581   */\n      dup3\n        /* \"#utility.yul\":14573:14585   */\n      and\n        /* \"#utility.yul\":14604:14622   */\n      dup1\n        /* \"#utility.yul\":14594:14675   */\n      tag_324\n      jumpi\n        /* \"#utility.yul\":14660:14664   */\n      0x7f\n        /* \"#utility.yul\":14652:14658   */\n      dup3\n        /* \"#utility.yul\":14648:14665   */\n      and\n        /* \"#utility.yul\":14638:14665   */\n      swap2\n      pop\n        /* \"#utility.yul\":14594:14675   */\n    tag_324:\n        /* \"#utility.yul\":14722:14724   */\n      0x20\n        /* \"#utility.yul\":14714:14720   */\n      dup3\n        /* \"#utility.yul\":14711:14725   */\n      lt\n        /* \"#utility.yul\":14691:14709   */\n      dup2\n        /* \"#utility.yul\":14688:14726   */\n      sub\n        /* \"#utility.yul\":14685:14769   */\n      tag_325\n      jumpi\n        /* \"#utility.yul\":14741:14759   */\n      tag_326\n      tag_159\n      jump\t// in\n    tag_326:\n        /* \"#utility.yul\":14685:14769   */\n    tag_325:\n        /* \"#utility.yul\":14506:14775   */\n      pop\n        /* \"#utility.yul\":14455:14775   */\n      swap2\n      swap1\n      pop\n      jump\t// out\n        /* \"#utility.yul\":14781:14951   */\n    tag_160:\n        /* \"#utility.yul\":14921:14943   */\n      0x547765657420646f6573206e6f74206578697374000000000000000000000000\n        /* \"#utility.yul\":14917:14918   */\n      0x00\n        /* \"#utility.yul\":14909:14915   */\n      dup3\n        /* \"#utility.yul\":14905:14919   */\n      add\n        /* \"#utility.yul\":14898:14944   */\n      mstore\n        /* \"#utility.yul\":14781:14951   */\n      pop\n      jump\t// out\n        /* \"#utility.yul\":14957:15323   */\n    tag_161:\n        /* \"#utility.yul\":15099:15102   */\n      0x00\n        /* \"#utility.yul\":15120:15187   */\n      tag_329\n        /* \"#utility.yul\":15184:15186   */\n      0x14\n        /* \"#utility.yul\":15179:15182   */\n      dup4\n        /* \"#utility.yul\":15120:15187   */\n      tag_127\n      jump\t// in\n    tag_329:\n        /* \"#utility.yul\":15113:15187   */\n      swap2\n      pop\n        /* \"#utility.yul\":15196:15289   */\n      tag_330\n        /* \"#utility.yul\":15285:15288   */\n      dup3\n        /* \"#utility.yul\":15196:15289   */\n      tag_160\n      jump\t// in\n    tag_330:\n        /* \"#utility.yul\":15314:15316   */\n      0x20\n        /* \"#utility.yul\":15309:15312   */\n      dup3\n        /* \"#utility.yul\":15305:15317   */\n      add\n        /* \"#utility.yul\":15298:15317   */\n      swap1\n      pop\n        /* \"#utility.yul\":14957:15323   */\n      swap2\n      swap1\n      pop\n      jump\t// out\n        /* \"#utility.yul\":15329:15748   */\n    tag_59:\n        /* \"#utility.yul\":15495:15499   */\n      0x00\n        /* \"#utility.yul\":15533:15535   */\n      0x20\n        /* \"#utility.yul\":15522:15531   */\n      dup3\n        /* \"#utility.yul\":15518:15536   */\n      add\n        /* \"#utility.yul\":15510:15536   */\n      swap1\n      pop\n        /* \"#utility.yul\":15582:15591   */\n      dup2\n        /* \"#utility.yul\":15576:15580   */\n      dup2\n        /* \"#utility.yul\":15572:15592   */\n      sub\n        /* \"#utility.yul\":15568:15569   */\n      0x00\n        /* \"#utility.yul\":15557:15566   */\n      dup4\n        /* \"#utility.yul\":15553:15570   */\n      add\n        /* \"#utility.yul\":15546:15593   */\n      mstore\n        /* \"#utility.yul\":15610:15741   */\n      tag_332\n        /* \"#utility.yul\":15736:15740   */\n      dup2\n        /* \"#utility.yul\":15610:15741   */\n      tag_161\n      jump\t// in\n    tag_332:\n        /* \"#utility.yul\":15602:15741   */\n      swap1\n      pop\n        /* \"#utility.yul\":15329:15748   */\n      swap2\n      swap1\n      pop\n      jump\t// out\n        /* \"#utility.yul\":15754:15934   */\n    tag_62:\n        /* \"#utility.yul\":15802:15879   */\n      0x4e487b7100000000000000000000000000000000000000000000000000000000\n        /* \"#utility.yul\":15799:15800   */\n      0x00\n        /* \"#utility.yul\":15792:15880   */\n      mstore\n        /* \"#utility.yul\":15899:15903   */\n      0x32\n        /* \"#utility.yul\":15896:15897   */\n      0x04\n        /* \"#utility.yul\":15889:15904   */\n      mstore\n        /* \"#utility.yul\":15923:15927   */\n      0x24\n        /* \"#utility.yul\":15920:15921   */\n      0x00\n        /* \"#utility.yul\":15913:15928   */\n      revert\n        /* \"#utility.yul\":15940:16108   */\n    tag_162:\n        /* \"#utility.yul\":16080:16100   */\n      0x4e6f206c696b657320746f2072656d6f76650000000000000000000000000000\n        /* \"#utility.yul\":16076:16077   */\n      0x00\n        /* \"#utility.yul\":16068:16074   */\n      dup3\n        /* \"#utility.yul\":16064:16078   */\n      add\n        /* \"#utility.yul\":16057:16101   */\n      mstore\n        /* \"#utility.yul\":15940:16108   */\n      pop\n      jump\t// out\n        /* \"#utility.yul\":16114:16480   */\n    tag_163:\n        /* \"#utility.yul\":16256:16259   */\n      0x00\n        /* \"#utility.yul\":16277:16344   */\n      tag_336\n        /* \"#utility.yul\":16341:16343   */\n      0x12\n        /* \"#utility.yul\":16336:16339   */\n      dup4\n        /* \"#utility.yul\":16277:16344   */\n      tag_127\n      jump\t// in\n    tag_336:\n        /* \"#utility.yul\":16270:16344   */\n      swap2\n      pop\n        /* \"#utility.yul\":16353:16446   */\n      tag_337\n        /* \"#utility.yul\":16442:16445   */\n      dup3\n        /* \"#utility.yul\":16353:16446   */\n      tag_162\n      jump\t// in\n    tag_337:\n        /* \"#utility.yul\":16471:16473   */\n      0x20\n        /* \"#utility.yul\":16466:16469   */\n      dup3\n        /* \"#utility.yul\":16462:16474   */\n      add\n        /* \"#utility.yul\":16455:16474   */\n      swap1\n      pop\n        /* \"#utility.yul\":16114:16480   */\n      swap2\n      swap1\n      pop\n      jump\t// out\n        /* \"#utility.yul\":16486:16905   */\n    tag_66:\n        /* \"#utility.yul\":16652:16656   */\n      0x00\n        /* \"#utility.yul\":16690:16692   */\n      0x20\n        /* \"#utility.yul\":16679:16688   */\n      dup3\n        /* \"#utility.yul\":16675:16693   */\n      add\n        /* \"#utility.yul\":16667:16693   */\n      swap1\n      pop\n        /* \"#utility.yul\":16739:16748   */\n      dup2\n        /* \"#utility.yul\":16733:16737   */\n      dup2\n        /* \"#utility.yul\":16729:16749   */\n      sub\n        /* \"#utility.yul\":16725:16726   */\n      0x00\n        /* \"#utility.yul\":16714:16723   */\n      dup4\n        /* \"#utility.yul\":16710:16727   */\n      add\n        /* \"#utility.yul\":16703:16750   */\n      mstore\n        /* \"#utility.yul\":16767:16898   */\n      tag_339\n        /* \"#utility.yul\":16893:16897   */\n      dup2\n        /* \"#utility.yul\":16767:16898   */\n      tag_163\n      jump\t// in\n    tag_339:\n        /* \"#utility.yul\":16759:16898   */\n      swap1\n      pop\n        /* \"#utility.yul\":16486:16905   */\n      swap2\n      swap1\n      pop\n      jump\t// out\n        /* \"#utility.yul\":16911:17091   */\n    tag_164:\n        /* \"#utility.yul\":16959:17036   */\n      0x4e487b7100000000000000000000000000000000000000000000000000000000\n        /* \"#utility.yul\":16956:16957   */\n      0x00\n        /* \"#utility.yul\":16949:17037   */\n      mstore\n        /* \"#utility.yul\":17056:17060   */\n      0x11\n        /* \"#utility.yul\":17053:17054   */\n      0x04\n        /* \"#utility.yul\":17046:17061   */\n      mstore\n        /* \"#utility.yul\":17080:17084   */\n      0x24\n        /* \"#utility.yul\":17077:17078   */\n      0x00\n        /* \"#utility.yul\":17070:17085   */\n      revert\n        /* \"#utility.yul\":17097:17288   */\n    tag_72:\n        /* \"#utility.yul\":17135:17139   */\n      0x00\n        /* \"#utility.yul\":17155:17173   */\n      tag_342\n        /* \"#utility.yul\":17171:17172   */\n      dup3\n        /* \"#utility.yul\":17155:17173   */\n      tag_132\n      jump\t// in\n    tag_342:\n        /* \"#utility.yul\":17150:17173   */\n      swap2\n      pop\n        /* \"#utility.yul\":17187:17205   */\n      tag_343\n        /* \"#utility.yul\":17203:17204   */\n      dup4\n        /* \"#utility.yul\":17187:17205   */\n      tag_132\n      jump\t// in\n    tag_343:\n        /* \"#utility.yul\":17182:17205   */\n      swap3\n      pop\n        /* \"#utility.yul\":17229:17230   */\n      dup3\n        /* \"#utility.yul\":17226:17227   */\n      dup3\n        /* \"#utility.yul\":17222:17231   */\n      sub\n        /* \"#utility.yul\":17214:17231   */\n      swap1\n      pop\n        /* \"#utility.yul\":17253:17257   */\n      0xff\n        /* \"#utility.yul\":17247:17251   */\n      dup2\n        /* \"#utility.yul\":17244:17258   */\n      gt\n        /* \"#utility.yul\":17241:17281   */\n      iszero\n      tag_344\n      jumpi\n        /* \"#utility.yul\":17261:17279   */\n      tag_345\n      tag_164\n      jump\t// in\n    tag_345:\n        /* \"#utility.yul\":17241:17281   */\n    tag_344:\n        /* \"#utility.yul\":17097:17288   */\n      swap3\n      swap2\n      pop\n      pop\n      jump\t// out\n        /* \"#utility.yul\":17294:17435   */\n    tag_165:\n        /* \"#utility.yul\":17343:17347   */\n      0x00\n        /* \"#utility.yul\":17366:17369   */\n      dup2\n        /* \"#utility.yul\":17358:17369   */\n      swap1\n      pop\n        /* \"#utility.yul\":17389:17392   */\n      dup2\n        /* \"#utility.yul\":17386:17387   */\n      0x00\n        /* \"#utility.yul\":17379:17393   */\n      mstore\n        /* \"#utility.yul\":17423:17427   */\n      0x20\n        /* \"#utility.yul\":17420:17421   */\n      0x00\n        /* \"#utility.yul\":17410:17428   */\n      keccak256\n        /* \"#utility.yul\":17402:17428   */\n      swap1\n      pop\n        /* \"#utility.yul\":17294:17435   */\n      swap2\n      swap1\n      pop\n      jump\t// out\n        /* \"#utility.yul\":17441:17534   */\n    tag_166:\n        /* \"#utility.yul\":17478:17484   */\n      0x00\n        /* \"#utility.yul\":17525:17527   */\n      0x20\n        /* \"#utility.yul\":17520:17522   */\n      0x1f\n        /* \"#utility.yul\":17513:17518   */\n      dup4\n        /* \"#utility.yul\":17509:17523   */\n      add\n        /* \"#utility.yul\":17505:17528   */\n      div\n        /* \"#utility.yul\":17495:17528   */\n      swap1\n      pop\n        /* \"#utility.yul\":17441:17534   */\n      swap2\n      swap1\n      pop\n      jump\t// out\n        /* \"#utility.yul\":17540:17647   */\n    tag_167:\n        /* \"#utility.yul\":17584:17592   */\n      0x00\n        /* \"#utility.yul\":17634:17639   */\n      dup3\n        /* \"#utility.yul\":17628:17632   */\n      dup3\n        /* \"#utility.yul\":17624:17640   */\n      shl\n        /* \"#utility.yul\":17603:17640   */\n      swap1\n      pop\n        /* \"#utility.yul\":17540:17647   */\n      swap3\n      swap2\n      pop\n      pop\n      jump\t// out\n        /* \"#utility.yul\":17653:18046   */\n    tag_168:\n        /* \"#utility.yul\":17722:17728   */\n      0x00\n        /* \"#utility.yul\":17772:17773   */\n      0x08\n        /* \"#utility.yul\":17760:17770   */\n      dup4\n        /* \"#utility.yul\":17756:17774   */\n      mul\n        /* \"#utility.yul\":17795:17892   */\n      tag_350\n        /* \"#utility.yul\":17825:17891   */\n      0xffffffffffffffffffffffffffffffffffffffffffffffffffffffffffffffff\n        /* \"#utility.yul\":17814:17823   */\n      dup3\n        /* \"#utility.yul\":17795:17892   */\n      tag_167\n      jump\t// in\n    tag_350:\n        /* \"#utility.yul\":17913:17952   */\n      tag_351\n        /* \"#utility.yul\":17943:17951   */\n      dup7\n        /* \"#utility.yul\":17932:17941   */\n      dup4\n        /* \"#utility.yul\":17913:17952   */\n      tag_167\n      jump\t// in\n    tag_351:\n        /* \"#utility.yul\":17901:17952   */\n      swap6\n      pop\n        /* \"#utility.yul\":17985:17989   */\n      dup1\n        /* \"#utility.yul\":17981:17990   */\n      not\n        /* \"#utility.yul\":17974:17979   */\n      dup5\n        /* \"#utility.yul\":17970:17991   */\n      and\n        /* \"#utility.yul\":17961:17991   */\n      swap4\n      pop\n        /* \"#utility.yul\":18034:18038   */\n      dup1\n        /* \"#utility.yul\":18024:18032   */\n      dup7\n        /* \"#utility.yul\":18020:18039   */\n      and\n        /* \"#utility.yul\":18013:18018   */\n      dup5\n        /* \"#utility.yul\":18010:18040   */\n      or\n        /* \"#utility.yul\":18000:18040   */\n      swap3\n      pop\n        /* \"#utility.yul\":17729:18046   */\n      pop\n      pop\n        /* \"#utility.yul\":17653:18046   */\n      swap4\n      swap3\n      pop\n      pop\n      pop\n      jump\t// out\n        /* \"#utility.yul\":18052:18112   */\n    tag_169:\n        /* \"#utility.yul\":18080:18083   */\n      0x00\n        /* \"#utility.yul\":18101:18106   */\n      dup2\n        /* \"#utility.yul\":18094:18106   */\n      swap1\n      pop\n        /* \"#utility.yul\":18052:18112   */\n      swap2\n      swap1\n      pop\n      jump\t// out\n        /* \"#utility.yul\":18118:18260   */\n    tag_170:\n        /* \"#utility.yul\":18168:18177   */\n      0x00\n        /* \"#utility.yul\":18201:18254   */\n      tag_354\n        /* \"#utility.yul\":18219:18253   */\n      tag_355\n        /* \"#utility.yul\":18228:18252   */\n      tag_356\n        /* \"#utility.yul\":18246:18251   */\n      dup5\n        /* \"#utility.yul\":18228:18252   */\n      tag_120\n      jump\t// in\n    tag_356:\n        /* \"#utility.yul\":18219:18253   */\n      tag_169\n      jump\t// in\n    tag_355:\n        /* \"#utility.yul\":18201:18254   */\n      tag_120\n      jump\t// in\n    tag_354:\n        /* \"#utility.yul\":18188:18254   */\n      swap1\n      pop\n        /* \"#utility.yul\":18118:18260   */\n      swap2\n      swap1\n      pop\n      jump\t// out\n        /* \"#utility.yul\":18266:18341   */\n    tag_171:\n        /* \"#utility.yul\":18309:18312   */\n      0x00\n        /* \"#utility.yul\":18330:18335   */\n      dup2\n        /* \"#utility.yul\":18323:18335   */\n      swap1\n      pop\n        /* \"#utility.yul\":18266:18341   */\n      swap2\n      swap1\n      pop\n      jump\t// out\n        /* \"#utility.yul\":18347:18616   */\n    tag_172:\n        /* \"#utility.yul\":18457:18496   */\n      tag_359\n        /* \"#utility.yul\":18488:18495   */\n      dup4\n        /* \"#utility.yul\":18457:18496   */\n      tag_170\n      jump\t// in\n    tag_359:\n        /* \"#utility.yul\":18518:18609   */\n      tag_360\n        /* \"#utility.yul\":18567:18608   */\n      tag_361\n        /* \"#utility.yul\":18591:18607   */\n      dup3\n        /* \"#utility.yul\":18567:18608   */\n      tag_171\n      jump\t// in\n    tag_361:\n        /* \"#utility.yul\":18559:18565   */\n      dup5\n        /* \"#utility.yul\":18552:18556   */\n      dup5\n        /* \"#utility.yul\":18546:18557   */\n      sload\n        /* \"#utility.yul\":18518:18609   */\n      tag_168\n      jump\t// in\n    tag_360:\n        /* \"#utility.yul\":18512:18516   */\n      dup3\n        /* \"#utility.yul\":18505:18610   */\n      sstore\n        /* \"#utility.yul\":18423:18616   */\n      pop\n        /* \"#utility.yul\":18347:18616   */\n      pop\n      pop\n      pop\n      jump\t// out\n        /* \"#utility.yul\":18622:18695   */\n    tag_173:\n        /* \"#utility.yul\":18667:18670   */\n      0x00\n        /* \"#utility.yul\":18622:18695   */\n      swap1\n      jump\t// out\n        /* \"#utility.yul\":18701:18890   */\n    tag_174:\n        /* \"#utility.yul\":18778:18810   */\n      tag_364\n      tag_173\n      jump\t// in\n    tag_364:\n        /* \"#utility.yul\":18819:18884   */\n      tag_365\n        /* \"#utility.yul\":18877:18883   */\n      dup2\n        /* \"#utility.yul\":18869:18875   */\n      dup5\n        /* \"#utility.yul\":18863:18867   */\n      dup5\n        /* \"#utility.yul\":18819:18884   */\n      tag_172\n      jump\t// in\n    tag_365:\n        /* \"#utility.yul\":18754:18890   */\n      pop\n        /* \"#utility.yul\":18701:18890   */\n      pop\n      pop\n      jump\t// out\n        /* \"#utility.yul\":18896:19082   */\n    tag_175:\n        /* \"#utility.yul\":18956:19076   */\n    tag_367:\n        /* \"#utility.yul\":18973:18976   */\n      dup2\n        /* \"#utility.yul\":18966:18971   */\n      dup2\n        /* \"#utility.yul\":18963:18977   */\n      lt\n        /* \"#utility.yul\":18956:19076   */\n      iszero\n      tag_369\n      jumpi\n        /* \"#utility.yul\":19027:19066   */\n      tag_370\n        /* \"#utility.yul\":19064:19065   */\n      0x00\n        /* \"#utility.yul\":19057:19062   */\n      dup3\n        /* \"#utility.yul\":19027:19066   */\n      tag_174\n      jump\t// in\n    tag_370:\n        /* \"#utility.yul\":19000:19001   */\n      0x01\n        /* \"#utility.yul\":18993:18998   */\n      dup2\n        /* \"#utility.yul\":18989:19002   */\n      add\n        /* \"#utility.yul\":18980:19002   */\n      swap1\n      pop\n        /* \"#utility.yul\":18956:19076   */\n      jump(tag_367)\n    tag_369:\n        /* \"#utility.yul\":18896:19082   */\n      pop\n      pop\n      jump\t// out\n        /* \"#utility.yul\":19088:19631   */\n    tag_176:\n        /* \"#utility.yul\":19189:19191   */\n      0x1f\n        /* \"#utility.yul\":19184:19187   */\n      dup3\n        /* \"#utility.yul\":19181:19192   */\n      gt\n        /* \"#utility.yul\":19178:19624   */\n      iszero\n      tag_372\n      jumpi\n        /* \"#utility.yul\":19223:19261   */\n      tag_373\n        /* \"#utility.yul\":19255:19260   */\n      dup2\n        /* \"#utility.yul\":19223:19261   */\n      tag_165\n      jump\t// in\n    tag_373:\n        /* \"#utility.yul\":19307:19336   */\n      tag_374\n        /* \"#utility.yul\":19325:19335   */\n      dup5\n        /* \"#utility.yul\":19307:19336   */\n      tag_166\n      jump\t// in\n    tag_374:\n        /* \"#utility.yul\":19297:19305   */\n      dup2\n        /* \"#utility.yul\":19293:19337   */\n      add\n        /* \"#utility.yul\":19490:19492   */\n      0x20\n        /* \"#utility.yul\":19478:19488   */\n      dup6\n        /* \"#utility.yul\":19475:19493   */\n      lt\n        /* \"#utility.yul\":19472:19521   */\n      iszero\n      tag_375\n      jumpi\n        /* \"#utility.yul\":19511:19519   */\n      dup2\n        /* \"#utility.yul\":19496:19519   */\n      swap1\n      pop\n        /* \"#utility.yul\":19472:19521   */\n    tag_375:\n        /* \"#utility.yul\":19534:19614   */\n      tag_376\n        /* \"#utility.yul\":19590:19612   */\n      tag_377\n        /* \"#utility.yul\":19608:19611   */\n      dup6\n        /* \"#utility.yul\":19590:19612   */\n      tag_166\n      jump\t// in\n    tag_377:\n        /* \"#utility.yul\":19580:19588   */\n      dup4\n        /* \"#utility.yul\":19576:19613   */\n      add\n        /* \"#utility.yul\":19563:19574   */\n      dup3\n        /* \"#utility.yul\":19534:19614   */\n      tag_175\n      jump\t// in\n    tag_376:\n        /* \"#utility.yul\":19193:19624   */\n      pop\n      pop\n        /* \"#utility.yul\":19178:19624   */\n    tag_372:\n        /* \"#utility.yul\":19088:19631   */\n      pop\n      pop\n      pop\n      jump\t// out\n        /* \"#utility.yul\":19637:19754   */\n    tag_177:\n        /* \"#utility.yul\":19691:19699   */\n      0x00\n        /* \"#utility.yul\":19741:19746   */\n      dup3\n        /* \"#utility.yul\":19735:19739   */\n      dup3\n        /* \"#utility.yul\":19731:19747   */\n      shr\n        /* \"#utility.yul\":19710:19747   */\n      swap1\n      pop\n        /* \"#utility.yul\":19637:19754   */\n      swap3\n      swap2\n      pop\n      pop\n      jump\t// out\n        /* \"#utility.yul\":19760:19929   */\n    tag_178:\n        /* \"#utility.yul\":19804:19810   */\n      0x00\n        /* \"#utility.yul\":19837:19888   */\n      tag_380\n        /* \"#utility.yul\":19885:19886   */\n      0x00\n        /* \"#utility.yul\":19881:19887   */\n      not\n        /* \"#utility.yul\":19873:19878   */\n      dup5\n        /* \"#utility.yul\":19870:19871   */\n      0x08\n        /* \"#utility.yul\":19866:19879   */\n      mul\n        /* \"#utility.yul\":19837:19888   */\n      tag_177\n      jump\t// in\n    tag_380:\n        /* \"#utility.yul\":19833:19889   */\n      not\n        /* \"#utility.yul\":19918:19922   */\n      dup1\n        /* \"#utility.yul\":19912:19916   */\n      dup4\n        /* \"#utility.yul\":19908:19923   */\n      and\n        /* \"#utility.yul\":19898:19923   */\n      swap2\n      pop\n        /* \"#utility.yul\":19811:19929   */\n      pop\n        /* \"#utility.yul\":19760:19929   */\n      swap3\n      swap2\n      pop\n      pop\n      jump\t// out\n        /* \"#utility.yul\":19934:20229   */\n    tag_179:\n        /* \"#utility.yul\":20010:20014   */\n      0x00\n        /* \"#utility.yul\":20156:20185   */\n      tag_382\n        /* \"#utility.yul\":20181:20184   */\n      dup4\n        /* \"#utility.yul\":20175:20179   */\n      dup4\n        /* \"#utility.yul\":20156:20185   */\n      tag_178\n      jump\t// in\n    tag_382:\n        /* \"#utility.yul\":20148:20185   */\n      swap2\n      pop\n        /* \"#utility.yul\":20218:20221   */\n      dup3\n        /* \"#utility.yul\":20215:20216   */\n      0x02\n        /* \"#utility.yul\":20211:20222   */\n      mul\n        /* \"#utility.yul\":20205:20209   */\n      dup3\n        /* \"#utility.yul\":20202:20223   */\n      or\n        /* \"#utility.yul\":20194:20223   */\n      swap1\n      pop\n        /* \"#utility.yul\":19934:20229   */\n      swap3\n      swap2\n      pop\n      pop\n      jump\t// out\n        /* \"#utility.yul\":20234:21629   */\n    tag_78:\n        /* \"#utility.yul\":20351:20388   */\n      tag_384\n        /* \"#utility.yul\":20384:20387   */\n      dup3\n        /* \"#utility.yul\":20351:20388   */\n      tag_126\n      jump\t// in\n    tag_384:\n        /* \"#utility.yul\":20453:20471   */\n      0xffffffffffffffff\n        /* \"#utility.yul\":20445:20451   */\n      dup2\n        /* \"#utility.yul\":20442:20472   */\n      gt\n        /* \"#utility.yul\":20439:20495   */\n      iszero\n      tag_385\n      jumpi\n        /* \"#utility.yul\":20475:20493   */\n      tag_386\n      tag_138\n      jump\t// in\n    tag_386:\n        /* \"#utility.yul\":20439:20495   */\n    tag_385:\n        /* \"#utility.yul\":20519:20557   */\n      tag_387\n        /* \"#utility.yul\":20551:20555   */\n      dup3\n        /* \"#utility.yul\":20545:20556   */\n      sload\n        /* \"#utility.yul\":20519:20557   */\n      tag_51\n      jump\t// in\n    tag_387:\n        /* \"#utility.yul\":20604:20671   */\n      tag_388\n        /* \"#utility.yul\":20664:20670   */\n      dup3\n        /* \"#utility.yul\":20656:20662   */\n      dup3\n        /* \"#utility.yul\":20650:20654   */\n      dup6\n        /* \"#utility.yul\":20604:20671   */\n      tag_176\n      jump\t// in\n    tag_388:\n        /* \"#utility.yul\":20698:20699   */\n      0x00\n        /* \"#utility.yul\":20722:20726   */\n      0x20\n        /* \"#utility.yul\":20709:20726   */\n      swap1\n      pop\n        /* \"#utility.yul\":20754:20756   */\n      0x1f\n        /* \"#utility.yul\":20746:20752   */\n      dup4\n        /* \"#utility.yul\":20743:20757   */\n      gt\n        /* \"#utility.yul\":20771:20772   */\n      0x01\n        /* \"#utility.yul\":20766:21384   */\n      dup2\n      eq\n      tag_390\n      jumpi\n        /* \"#utility.yul\":21428:21429   */\n      0x00\n        /* \"#utility.yul\":21445:21451   */\n      dup5\n        /* \"#utility.yul\":21442:21519   */\n      iszero\n      tag_391\n      jumpi\n        /* \"#utility.yul\":21494:21503   */\n      dup3\n        /* \"#utility.yul\":21489:21492   */\n      dup8\n        /* \"#utility.yul\":21485:21504   */\n      add\n        /* \"#utility.yul\":21479:21505   */\n      mload\n        /* \"#utility.yul\":21470:21505   */\n      swap1\n      pop\n        /* \"#utility.yul\":21442:21519   */\n    tag_391:\n        /* \"#utility.yul\":21545:21612   */\n      tag_392\n        /* \"#utility.yul\":21605:21611   */\n      dup6\n        /* \"#utility.yul\":21598:21603   */\n      dup3\n        /* \"#utility.yul\":21545:21612   */\n      tag_179\n      jump\t// in\n    tag_392:\n        /* \"#utility.yul\":21539:21543   */\n      dup7\n        /* \"#utility.yul\":21532:21613   */\n      sstore\n        /* \"#utility.yul\":21401:21623   */\n      pop\n        /* \"#utility.yul\":20736:21623   */\n      jump(tag_389)\n        /* \"#utility.yul\":20766:21384   */\n    tag_390:\n        /* \"#utility.yul\":20818:20822   */\n      0x1f\n        /* \"#utility.yul\":20814:20823   */\n      not\n        /* \"#utility.yul\":20806:20812   */\n      dup5\n        /* \"#utility.yul\":20802:20824   */\n      and\n        /* \"#utility.yul\":20852:20889   */\n      tag_393\n        /* \"#utility.yul\":20884:20888   */\n      dup7\n        /* \"#utility.yul\":20852:20889   */\n      tag_165\n      jump\t// in\n    tag_393:\n        /* \"#utility.yul\":20911:20912   */\n      0x00\n        /* \"#utility.yul\":20925:21133   */\n    tag_394:\n        /* \"#utility.yul\":20939:20946   */\n      dup3\n        /* \"#utility.yul\":20936:20937   */\n      dup2\n        /* \"#utility.yul\":20933:20947   */\n      lt\n        /* \"#utility.yul\":20925:21133   */\n      iszero\n      tag_396\n      jumpi\n        /* \"#utility.yul\":21018:21027   */\n      dup5\n        /* \"#utility.yul\":21013:21016   */\n      dup10\n        /* \"#utility.yul\":21009:21028   */\n      add\n        /* \"#utility.yul\":21003:21029   */\n      mload\n        /* \"#utility.yul\":20995:21001   */\n      dup3\n        /* \"#utility.yul\":20988:21030   */\n      sstore\n        /* \"#utility.yul\":21069:21070   */\n      0x01\n        /* \"#utility.yul\":21061:21067   */\n      dup3\n        /* \"#utility.yul\":21057:21071   */\n      add\n        /* \"#utility.yul\":21047:21071   */\n      swap2\n      pop\n        /* \"#utility.yul\":21116:21118   */\n      0x20\n        /* \"#utility.yul\":21105:21114   */\n      dup6\n        /* \"#utility.yul\":21101:21119   */\n      add\n        /* \"#utility.yul\":21088:21119   */\n      swap5\n      pop\n        /* \"#utility.yul\":20962:20966   */\n      0x20\n        /* \"#utility.yul\":20959:20960   */\n      dup2\n        /* \"#utility.yul\":20955:20967   */\n      add\n        /* \"#utility.yul\":20950:20967   */\n      swap1\n      pop\n        /* \"#utility.yul\":20925:21133   */\n      jump(tag_394)\n    tag_396:\n        /* \"#utility.yul\":21161:21167   */\n      dup7\n        /* \"#utility.yul\":21152:21159   */\n      dup4\n        /* \"#utility.yul\":21149:21168   */\n      lt\n        /* \"#utility.yul\":21146:21325   */\n      iszero\n      tag_397\n      jumpi\n        /* \"#utility.yul\":21219:21228   */\n      dup5\n        /* \"#utility.yul\":21214:21217   */\n      dup10\n        /* \"#utility.yul\":21210:21229   */\n      add\n        /* \"#utility.yul\":21204:21230   */\n      mload\n        /* \"#utility.yul\":21262:21310   */\n      tag_398\n        /* \"#utility.yul\":21304:21308   */\n      0x1f\n        /* \"#utility.yul\":21296:21302   */\n      dup10\n        /* \"#utility.yul\":21292:21309   */\n      and\n        /* \"#utility.yul\":21281:21290   */\n      dup3\n        /* \"#utility.yul\":21262:21310   */\n      tag_178\n      jump\t// in\n    tag_398:\n        /* \"#utility.yul\":21254:21260   */\n      dup4\n        /* \"#utility.yul\":21247:21311   */\n      sstore\n        /* \"#utility.yul\":21169:21325   */\n      pop\n        /* \"#utility.yul\":21146:21325   */\n    tag_397:\n        /* \"#utility.yul\":21371:21372   */\n      0x01\n        /* \"#utility.yul\":21367:21368   */\n      0x02\n        /* \"#utility.yul\":21359:21365   */\n      dup9\n        /* \"#utility.yul\":21355:21369   */\n      mul\n        /* \"#utility.yul\":21351:21373   */\n      add\n        /* \"#utility.yul\":21345:21349   */\n      dup9\n        /* \"#utility.yul\":21338:21374   */\n      sstore\n        /* \"#utility.yul\":20773:21384   */\n      pop\n      pop\n      pop\n        /* \"#utility.yul\":20736:21623   */\n    tag_389:\n      pop\n        /* \"#utility.yul\":20326:21629   */\n      pop\n      pop\n      pop\n        /* \"#utility.yul\":20234:21629   */\n      pop\n      pop\n      jump\t// out\n        /* \"#utility.yul\":21635:21807   */\n    tag_180:\n        /* \"#utility.yul\":21775:21799   */\n      0x596f7520617265206e6f7420746865206f776e65722100000000000000000000\n        /* \"#utility.yul\":21771:21772   */\n      0x00\n        /* \"#utility.yul\":21763:21769   */\n      dup3\n        /* \"#utility.yul\":21759:21773   */\n      add\n        /* \"#utility.yul\":21752:21800   */\n      mstore\n        /* \"#utility.yul\":21635:21807   */\n      pop\n      jump\t// out\n        /* \"#utility.yul\":21813:22179   */\n    tag_181:\n        /* \"#utility.yul\":21955:21958   */\n      0x00\n        /* \"#utility.yul\":21976:22043   */\n      tag_401\n        /* \"#utility.yul\":22040:22042   */\n      0x16\n        /* \"#utility.yul\":22035:22038   */\n      dup4\n        /* \"#utility.yul\":21976:22043   */\n      tag_127\n      jump\t// in\n    tag_401:\n        /* \"#utility.yul\":21969:22043   */\n      swap2\n      pop\n        /* \"#utility.yul\":22052:22145   */\n      tag_402\n        /* \"#utility.yul\":22141:22144   */\n      dup3\n        /* \"#utility.yul\":22052:22145   */\n      tag_180\n      jump\t// in\n    tag_402:\n        /* \"#utility.yul\":22170:22172   */\n      0x20\n        /* \"#utility.yul\":22165:22168   */\n      dup3\n        /* \"#utility.yul\":22161:22173   */\n      add\n        /* \"#utility.yul\":22154:22173   */\n      swap1\n      pop\n        /* \"#utility.yul\":21813:22179   */\n      swap2\n      swap1\n      pop\n      jump\t// out\n        /* \"#utility.yul\":22185:22604   */\n    tag_91:\n        /* \"#utility.yul\":22351:22355   */\n      0x00\n        /* \"#utility.yul\":22389:22391   */\n      0x20\n        /* \"#utility.yul\":22378:22387   */\n      dup3\n        /* \"#utility.yul\":22374:22392   */\n      add\n        /* \"#utility.yul\":22366:22392   */\n      swap1\n      pop\n        /* \"#utility.yul\":22438:22447   */\n      dup2\n        /* \"#utility.yul\":22432:22436   */\n      dup2\n        /* \"#utility.yul\":22428:22448   */\n      sub\n        /* \"#utility.yul\":22424:22425   */\n      0x00\n        /* \"#utility.yul\":22413:22422   */\n      dup4\n        /* \"#utility.yul\":22409:22426   */\n      add\n        /* \"#utility.yul\":22402:22449   */\n      mstore\n        /* \"#utility.yul\":22466:22597   */\n      tag_404\n        /* \"#utility.yul\":22592:22596   */\n      dup2\n        /* \"#utility.yul\":22466:22597   */\n      tag_181\n      jump\t// in\n    tag_404:\n        /* \"#utility.yul\":22458:22597   */\n      swap1\n      pop\n        /* \"#utility.yul\":22185:22604   */\n      swap2\n      swap1\n      pop\n      jump\t// out\n        /* \"#utility.yul\":22610:22798   */\n    tag_112:\n        /* \"#utility.yul\":22648:22651   */\n      0x00\n        /* \"#utility.yul\":22667:22685   */\n      tag_406\n        /* \"#utility.yul\":22683:22684   */\n      dup3\n        /* \"#utility.yul\":22667:22685   */\n      tag_132\n      jump\t// in\n    tag_406:\n        /* \"#utility.yul\":22662:22685   */\n      swap2\n      pop\n        /* \"#utility.yul\":22699:22717   */\n      tag_407\n        /* \"#utility.yul\":22715:22716   */\n      dup4\n        /* \"#utility.yul\":22699:22717   */\n      tag_132\n      jump\t// in\n    tag_407:\n        /* \"#utility.yul\":22694:22717   */\n      swap3\n      pop\n        /* \"#utility.yul\":22740:22741   */\n      dup3\n        /* \"#utility.yul\":22737:22738   */\n      dup3\n        /* \"#utility.yul\":22733:22742   */\n      add\n        /* \"#utility.yul\":22726:22742   */\n      swap1\n      pop\n        /* \"#utility.yul\":22763:22767   */\n      0xff\n        /* \"#utility.yul\":22758:22761   */\n      dup2\n        /* \"#utility.yul\":22755:22768   */\n      gt\n        /* \"#utility.yul\":22752:22791   */\n      iszero\n      tag_408\n      jumpi\n        /* \"#utility.yul\":22771:22789   */\n      tag_409\n      tag_164\n      jump\t// in\n    tag_409:\n        /* \"#utility.yul\":22752:22791   */\n    tag_408:\n        /* \"#utility.yul\":22610:22798   */\n      swap3\n      swap2\n      pop\n      pop\n      jump\t// out\n\n    auxdata: 0xa2646970667358221220442ccc9ccdca594febfce56a325300fa4f9d9ed0addb0918c0e8666ffd9eb21664736f6c634300081a0033\n}\n",
				"bytecode": {
					"linkReferences": {},
					"object": "6080604052348015600e575f80fd5b50335f806101000a81548173ffffffffffffffffffffffffffffffffffffffff021916908373ffffffffffffffffffffffffffffffffffffffff1602179055506117fb8061005b5f395ff3fe608060405234801561000f575f80fd5b5060043610610086575f3560e01c80639e92b093116100595780639e92b09314610128578063a6f9dae114610158578063c824a70214610174578063ca5f3173146101a457610086565b806305a1b4a91461008a57806356a52cf9146100be5780637c9cd2bc146100da5780638da5cb5b1461010a575b5f80fd5b6100a4600480360381019061009f9190610d23565b6101c0565b6040516100b5959493929190610e26565b60405180910390f35b6100d860048036038101906100d39190610ea8565b6102ca565b005b6100f460048036038101906100ef9190611012565b6104a0565b6040516101019190611150565b60405180910390f35b610112610649565b60405161011f9190611170565b60405180910390f35b610142600480360381019061013d9190611189565b61066c565b60405161014f91906112e2565b60405180910390f35b610172600480360381019061016d9190611189565b61082e565b005b61018e60048036038101906101899190610d23565b6108fd565b60405161019b9190611150565b60405180910390f35b6101be60048036038101906101b99190610ea8565b610b1e565b005b6001602052815f5260405f2081815481106101d9575f80fd5b905f5260205f2090600402015f9150915050805f015f9054906101000a900461ffff1690805f0160029054906101000a900473ffffffffffffffffffffffffffffffffffffffff16908060010180546102319061132f565b80601f016020809104026020016040519081016040528092919081815260200182805461025d9061132f565b80156102a85780601f1061027f576101008083540402835291602001916102a8565b820191905f5260205f20905b81548152906001019060200180831161028b57829003601f168201915b505050505090806002015490806003015f9054906101000a900460ff16905085565b818160015f8373ffffffffffffffffffffffffffffffffffffffff1673ffffffffffffffffffffffffffffffffffffffff1681526020019081526020015f20805490508161ffff1610610352576040517f08c379a0000000000000000000000000000000000000000000000000000000008152600401610349906113a9565b60405180910390fd5b5f60015f8473ffffffffffffffffffffffffffffffffffffffff1673ffffffffffffffffffffffffffffffffffffffff1681526020019081526020015f208261ffff16815481106103a6576103a56113c7565b5b905f5260205f2090600402016003015f9054906101000a900460ff1660ff1611610405576040517f08c379a00000000000000000000000000000000000000000000000000000000081526004016103fc9061143e565b60405180910390fd5b6001805f8673ffffffffffffffffffffffffffffffffffffffff1673ffffffffffffffffffffffffffffffffffffffff1681526020019081526020015f208461ffff1681548110610459576104586113c7565b5b905f5260205f2090600402016003015f8282829054906101000a900460ff166104829190611489565b92506101000a81548160ff021916908360ff16021790555050505050565b6104a8610c3d565b5f60015f3373ffffffffffffffffffffffffffffffffffffffff1673ffffffffffffffffffffffffffffffffffffffff1681526020019081526020015f208054905090505f6040518060a001604052808361ffff1681526020013373ffffffffffffffffffffffffffffffffffffffff1681526020018581526020014281526020015f60ff16815250905060015f3373ffffffffffffffffffffffffffffffffffffffff1673ffffffffffffffffffffffffffffffffffffffff1681526020019081526020015f2081908060018154018082558091505060019003905f5260205f2090600402015f909190919091505f820151815f015f6101000a81548161ffff021916908361ffff1602179055506020820151815f0160026101000a81548173ffffffffffffffffffffffffffffffffffffffff021916908373ffffffffffffffffffffffffffffffffffffffff1602179055506040820151816001019081610612919061165a565b50606082015181600201556080820151816003015f6101000a81548160ff021916908360ff16021790555050508092505050919050565b5f8054906101000a900473ffffffffffffffffffffffffffffffffffffffff1681565b606060015f8373ffffffffffffffffffffffffffffffffffffffff1673ffffffffffffffffffffffffffffffffffffffff1681526020019081526020015f20805480602002602001604051908101604052809291908181526020015f905b82821015610823578382905f5260205f2090600402016040518060a00160405290815f82015f9054906101000a900461ffff1661ffff1661ffff1681526020015f820160029054906101000a900473ffffffffffffffffffffffffffffffffffffffff1673ffffffffffffffffffffffffffffffffffffffff1673ffffffffffffffffffffffffffffffffffffffff16815260200160018201805461076e9061132f565b80601f016020809104026020016040519081016040528092919081815260200182805461079a9061132f565b80156107e55780601f106107bc576101008083540402835291602001916107e5565b820191905f5260205f20905b8154815290600101906020018083116107c857829003601f168201915b5050505050815260200160028201548152602001600382015f9054906101000a900460ff1660ff1660ff1681525050815260200190600101906106ca565b505050509050919050565b3373ffffffffffffffffffffffffffffffffffffffff165f8054906101000a900473ffffffffffffffffffffffffffffffffffffffff1673ffffffffffffffffffffffffffffffffffffffff16146108bb576040517f08c379a00000000000000000000000000000000000000000000000000000000081526004016108b290611773565b60405180910390fd5b805f806101000a81548173ffffffffffffffffffffffffffffffffffffffff021916908373ffffffffffffffffffffffffffffffffffffffff16021790555050565b610905610c3d565b60015f8473ffffffffffffffffffffffffffffffffffffffff1673ffffffffffffffffffffffffffffffffffffffff1681526020019081526020015f20805490508210610987576040517f08c379a000000000000000000000000000000000000000000000000000000000815260040161097e906113a9565b60405180910390fd5b60015f8473ffffffffffffffffffffffffffffffffffffffff1673ffffffffffffffffffffffffffffffffffffffff1681526020019081526020015f2082815481106109d6576109d56113c7565b5b905f5260205f2090600402016040518060a00160405290815f82015f9054906101000a900461ffff1661ffff1661ffff1681526020015f820160029054906101000a900473ffffffffffffffffffffffffffffffffffffffff1673ffffffffffffffffffffffffffffffffffffffff1673ffffffffffffffffffffffffffffffffffffffff168152602001600182018054610a709061132f565b80601f0160208091040260200160405190810160405280929190818152602001828054610a9c9061132f565b8015610ae75780601f10610abe57610100808354040283529160200191610ae7565b820191905f5260205f20905b815481529060010190602001808311610aca57829003601f168201915b5050505050815260200160028201548152602001600382015f9054906101000a900460ff1660ff1660ff1681525050905092915050565b60015f8373ffffffffffffffffffffffffffffffffffffffff1673ffffffffffffffffffffffffffffffffffffffff1681526020019081526020015f20805490508161ffff1610610ba4576040517f08c379a0000000000000000000000000000000000000000000000000000000008152600401610b9b906113a9565b60405180910390fd5b6001805f8473ffffffffffffffffffffffffffffffffffffffff1673ffffffffffffffffffffffffffffffffffffffff1681526020019081526020015f208261ffff1681548110610bf857610bf76113c7565b5b905f5260205f2090600402016003015f8282829054906101000a900460ff16610c219190611791565b92506101000a81548160ff021916908360ff1602179055505050565b6040518060a001604052805f61ffff1681526020015f73ffffffffffffffffffffffffffffffffffffffff168152602001606081526020015f81526020015f60ff1681525090565b5f604051905090565b5f80fd5b5f80fd5b5f73ffffffffffffffffffffffffffffffffffffffff82169050919050565b5f610cbf82610c96565b9050919050565b610ccf81610cb5565b8114610cd9575f80fd5b50565b5f81359050610cea81610cc6565b92915050565b5f819050919050565b610d0281610cf0565b8114610d0c575f80fd5b50565b5f81359050610d1d81610cf9565b92915050565b5f8060408385031215610d3957610d38610c8e565b5b5f610d4685828601610cdc565b9250506020610d5785828601610d0f565b9150509250929050565b5f61ffff82169050919050565b610d7781610d61565b82525050565b610d8681610cb5565b82525050565b5f81519050919050565b5f82825260208201905092915050565b8281835e5f83830152505050565b5f601f19601f8301169050919050565b5f610dce82610d8c565b610dd88185610d96565b9350610de8818560208601610da6565b610df181610db4565b840191505092915050565b610e0581610cf0565b82525050565b5f60ff82169050919050565b610e2081610e0b565b82525050565b5f60a082019050610e395f830188610d6e565b610e466020830187610d7d565b8181036040830152610e588186610dc4565b9050610e676060830185610dfc565b610e746080830184610e17565b9695505050505050565b610e8781610d61565b8114610e91575f80fd5b50565b5f81359050610ea281610e7e565b92915050565b5f8060408385031215610ebe57610ebd610c8e565b5b5f610ecb85828601610cdc565b9250506020610edc85828601610e94565b9150509250929050565b5f80fd5b5f80fd5b7f4e487b71000000000000000000000000000000000000000000000000000000005f52604160045260245ffd5b610f2482610db4565b810181811067ffffffffffffffff82111715610f4357610f42610eee565b5b80604052505050565b5f610f55610c85565b9050610f618282610f1b565b919050565b5f67ffffffffffffffff821115610f8057610f7f610eee565b5b610f8982610db4565b9050602081019050919050565b828183375f83830152505050565b5f610fb6610fb184610f66565b610f4c565b905082815260208101848484011115610fd257610fd1610eea565b5b610fdd848285610f96565b509392505050565b5f82601f830112610ff957610ff8610ee6565b5b8135611009848260208601610fa4565b91505092915050565b5f6020828403121561102757611026610c8e565b5b5f82013567ffffffffffffffff81111561104457611043610c92565b5b61105084828501610fe5565b91505092915050565b61106281610d61565b82525050565b61107181610cb5565b82525050565b5f82825260208201905092915050565b5f61109182610d8c565b61109b8185611077565b93506110ab818560208601610da6565b6110b481610db4565b840191505092915050565b6110c881610cf0565b82525050565b6110d781610e0b565b82525050565b5f60a083015f8301516110f25f860182611059565b5060208301516111056020860182611068565b506040830151848203604086015261111d8282611087565b915050606083015161113260608601826110bf565b50608083015161114560808601826110ce565b508091505092915050565b5f6020820190508181035f83015261116881846110dd565b905092915050565b5f6020820190506111835f830184610d7d565b92915050565b5f6020828403121561119e5761119d610c8e565b5b5f6111ab84828501610cdc565b91505092915050565b5f81519050919050565b5f82825260208201905092915050565b5f819050602082019050919050565b5f60a083015f8301516111f25f860182611059565b5060208301516112056020860182611068565b506040830151848203604086015261121d8282611087565b915050606083015161123260608601826110bf565b50608083015161124560808601826110ce565b508091505092915050565b5f61125b83836111dd565b905092915050565b5f602082019050919050565b5f611279826111b4565b61128381856111be565b935083602082028501611295856111ce565b805f5b858110156112d057848403895281516112b18582611250565b94506112bc83611263565b925060208a01995050600181019050611298565b50829750879550505050505092915050565b5f6020820190508181035f8301526112fa818461126f565b905092915050565b7f4e487b71000000000000000000000000000000000000000000000000000000005f52602260045260245ffd5b5f600282049050600182168061134657607f821691505b60208210810361135957611358611302565b5b50919050565b7f547765657420646f6573206e6f742065786973740000000000000000000000005f82015250565b5f611393601483610d96565b915061139e8261135f565b602082019050919050565b5f6020820190508181035f8301526113c081611387565b9050919050565b7f4e487b71000000000000000000000000000000000000000000000000000000005f52603260045260245ffd5b7f4e6f206c696b657320746f2072656d6f766500000000000000000000000000005f82015250565b5f611428601283610d96565b9150611433826113f4565b602082019050919050565b5f6020820190508181035f8301526114558161141c565b9050919050565b7f4e487b71000000000000000000000000000000000000000000000000000000005f52601160045260245ffd5b5f61149382610e0b565b915061149e83610e0b565b9250828203905060ff8111156114b7576114b661145c565b5b92915050565b5f819050815f5260205f209050919050565b5f6020601f8301049050919050565b5f82821b905092915050565b5f600883026115197fffffffffffffffffffffffffffffffffffffffffffffffffffffffffffffffff826114de565b61152386836114de565b95508019841693508086168417925050509392505050565b5f819050919050565b5f61155e61155961155484610cf0565b61153b565b610cf0565b9050919050565b5f819050919050565b61157783611544565b61158b61158382611565565b8484546114ea565b825550505050565b5f90565b61159f611593565b6115aa81848461156e565b505050565b5b818110156115cd576115c25f82611597565b6001810190506115b0565b5050565b601f821115611612576115e3816114bd565b6115ec846114cf565b810160208510156115fb578190505b61160f611607856114cf565b8301826115af565b50505b505050565b5f82821c905092915050565b5f6116325f1984600802611617565b1980831691505092915050565b5f61164a8383611623565b9150826002028217905092915050565b61166382610d8c565b67ffffffffffffffff81111561167c5761167b610eee565b5b611686825461132f565b6116918282856115d1565b5f60209050601f8311600181146116c2575f84156116b0578287015190505b6116ba858261163f565b865550611721565b601f1984166116d0866114bd565b5f5b828110156116f7578489015182556001820191506020850194506020810190506116d2565b868310156117145784890151611710601f891682611623565b8355505b6001600288020188555050505b505050505050565b7f596f7520617265206e6f7420746865206f776e657221000000000000000000005f82015250565b5f61175d601683610d96565b915061176882611729565b602082019050919050565b5f6020820190508181035f83015261178a81611751565b9050919050565b5f61179b82610e0b565b91506117a683610e0b565b9250828201905060ff8111156117bf576117be61145c565b5b9291505056fea2646970667358221220442ccc9ccdca594febfce56a325300fa4f9d9ed0addb0918c0e8666ffd9eb21664736f6c634300081a0033",
					"opcodes": "PUSH1 0x80 PUSH1 0x40 MSTORE CALLVALUE DUP1 ISZERO PUSH1 0xE JUMPI PUSH0 DUP1 REVERT JUMPDEST POP CALLER PUSH0 DUP1 PUSH2 0x100 EXP DUP2 SLOAD DUP2 PUSH20 0xFFFFFFFFFFFFFFFFFFFFFFFFFFFFFFFFFFFFFFFF MUL NOT AND SWAP1 DUP4 PUSH20 0xFFFFFFFFFFFFFFFFFFFFFFFFFFFFFFFFFFFFFFFF AND MUL OR SWAP1 SSTORE POP PUSH2 0x17FB DUP1 PUSH2 0x5B PUSH0 CODECOPY PUSH0 RETURN INVALID PUSH1 0x80 PUSH1 0x40 MSTORE CALLVALUE DUP1 ISZERO PUSH2 0xF JUMPI PUSH0 DUP1 REVERT JUMPDEST POP PUSH1 0x4 CALLDATASIZE LT PUSH2 0x86 JUMPI PUSH0 CALLDATALOAD PUSH1 0xE0 SHR DUP1 PUSH4 0x9E92B093 GT PUSH2 0x59 JUMPI DUP1 PUSH4 0x9E92B093 EQ PUSH2 0x128 JUMPI DUP1 PUSH4 0xA6F9DAE1 EQ PUSH2 0x158 JUMPI DUP1 PUSH4 0xC824A702 EQ PUSH2 0x174 JUMPI DUP1 PUSH4 0xCA5F3173 EQ PUSH2 0x1A4 JUMPI PUSH2 0x86 JUMP JUMPDEST DUP1 PUSH4 0x5A1B4A9 EQ PUSH2 0x8A JUMPI DUP1 PUSH4 0x56A52CF9 EQ PUSH2 0xBE JUMPI DUP1 PUSH4 0x7C9CD2BC EQ PUSH2 0xDA JUMPI DUP1 PUSH4 0x8DA5CB5B EQ PUSH2 0x10A JUMPI JUMPDEST PUSH0 DUP1 REVERT JUMPDEST PUSH2 0xA4 PUSH1 0x4 DUP1 CALLDATASIZE SUB DUP2 ADD SWAP1 PUSH2 0x9F SWAP2 SWAP1 PUSH2 0xD23 JUMP JUMPDEST PUSH2 0x1C0 JUMP JUMPDEST PUSH1 0x40 MLOAD PUSH2 0xB5 SWAP6 SWAP5 SWAP4 SWAP3 SWAP2 SWAP1 PUSH2 0xE26 JUMP JUMPDEST PUSH1 0x40 MLOAD DUP1 SWAP2 SUB SWAP1 RETURN JUMPDEST PUSH2 0xD8 PUSH1 0x4 DUP1 CALLDATASIZE SUB DUP2 ADD SWAP1 PUSH2 0xD3 SWAP2 SWAP1 PUSH2 0xEA8 JUMP JUMPDEST PUSH2 0x2CA JUMP JUMPDEST STOP JUMPDEST PUSH2 0xF4 PUSH1 0x4 DUP1 CALLDATASIZE SUB DUP2 ADD SWAP1 PUSH2 0xEF SWAP2 SWAP1 PUSH2 0x1012 JUMP JUMPDEST PUSH2 0x4A0 JUMP JUMPDEST PUSH1 0x40 MLOAD PUSH2 0x101 SWAP2 SWAP1 PUSH2 0x1150 JUMP JUMPDEST PUSH1 0x40 MLOAD DUP1 SWAP2 SUB SWAP1 RETURN JUMPDEST PUSH2 0x112 PUSH2 0x649 JUMP JUMPDEST PUSH1 0x40 MLOAD PUSH2 0x11F SWAP2 SWAP1 PUSH2 0x1170 JUMP JUMPDEST PUSH1 0x40 MLOAD DUP1 SWAP2 SUB SWAP1 RETURN JUMPDEST PUSH2 0x142 PUSH1 0x4 DUP1 CALLDATASIZE SUB DUP2 ADD SWAP1 PUSH2 0x13D SWAP2 SWAP1 PUSH2 0x1189 JUMP JUMPDEST PUSH2 0x66C JUMP JUMPDEST PUSH1 0x40 MLOAD PUSH2 0x14F SWAP2 SWAP1 PUSH2 0x12E2 JUMP JUMPDEST PUSH1 0x40 MLOAD DUP1 SWAP2 SUB SWAP1 RETURN JUMPDEST PUSH2 0x172 PUSH1 0x4 DUP1 CALLDATASIZE SUB DUP2 ADD SWAP1 PUSH2 0x16D SWAP2 SWAP1 PUSH2 0x1189 JUMP JUMPDEST PUSH2 0x82E JUMP JUMPDEST STOP JUMPDEST PUSH2 0x18E PUSH1 0x4 DUP1 CALLDATASIZE SUB DUP2 ADD SWAP1 PUSH2 0x189 SWAP2 SWAP1 PUSH2 0xD23 JUMP JUMPDEST PUSH2 0x8FD JUMP JUMPDEST PUSH1 0x40 MLOAD PUSH2 0x19B SWAP2 SWAP1 PUSH2 0x1150 JUMP JUMPDEST PUSH1 0x40 MLOAD DUP1 SWAP2 SUB SWAP1 RETURN JUMPDEST PUSH2 0x1BE PUSH1 0x4 DUP1 CALLDATASIZE SUB DUP2 ADD SWAP1 PUSH2 0x1B9 SWAP2 SWAP1 PUSH2 0xEA8 JUMP JUMPDEST PUSH2 0xB1E JUMP JUMPDEST STOP JUMPDEST PUSH1 0x1 PUSH1 0x20 MSTORE DUP2 PUSH0 MSTORE PUSH1 0x40 PUSH0 KECCAK256 DUP2 DUP2 SLOAD DUP2 LT PUSH2 0x1D9 JUMPI PUSH0 DUP1 REVERT JUMPDEST SWAP1 PUSH0 MSTORE PUSH1 0x20 PUSH0 KECCAK256 SWAP1 PUSH1 0x4 MUL ADD PUSH0 SWAP2 POP SWAP2 POP POP DUP1 PUSH0 ADD PUSH0 SWAP1 SLOAD SWAP1 PUSH2 0x100 EXP SWAP1 DIV PUSH2 0xFFFF AND SWAP1 DUP1 PUSH0 ADD PUSH1 0x2 SWAP1 SLOAD SWAP1 PUSH2 0x100 EXP SWAP1 DIV PUSH20 0xFFFFFFFFFFFFFFFFFFFFFFFFFFFFFFFFFFFFFFFF AND SWAP1 DUP1 PUSH1 0x1 ADD DUP1 SLOAD PUSH2 0x231 SWAP1 PUSH2 0x132F JUMP JUMPDEST DUP1 PUSH1 0x1F ADD PUSH1 0x20 DUP1 SWAP2 DIV MUL PUSH1 0x20 ADD PUSH1 0x40 MLOAD SWAP1 DUP2 ADD PUSH1 0x40 MSTORE DUP1 SWAP3 SWAP2 SWAP1 DUP2 DUP2 MSTORE PUSH1 0x20 ADD DUP3 DUP1 SLOAD PUSH2 0x25D SWAP1 PUSH2 0x132F JUMP JUMPDEST DUP1 ISZERO PUSH2 0x2A8 JUMPI DUP1 PUSH1 0x1F LT PUSH2 0x27F JUMPI PUSH2 0x100 DUP1 DUP4 SLOAD DIV MUL DUP4 MSTORE SWAP2 PUSH1 0x20 ADD SWAP2 PUSH2 0x2A8 JUMP JUMPDEST DUP3 ADD SWAP2 SWAP1 PUSH0 MSTORE PUSH1 0x20 PUSH0 KECCAK256 SWAP1 JUMPDEST DUP2 SLOAD DUP2 MSTORE SWAP1 PUSH1 0x1 ADD SWAP1 PUSH1 0x20 ADD DUP1 DUP4 GT PUSH2 0x28B JUMPI DUP3 SWAP1 SUB PUSH1 0x1F AND DUP3 ADD SWAP2 JUMPDEST POP POP POP POP POP SWAP1 DUP1 PUSH1 0x2 ADD SLOAD SWAP1 DUP1 PUSH1 0x3 ADD PUSH0 SWAP1 SLOAD SWAP1 PUSH2 0x100 EXP SWAP1 DIV PUSH1 0xFF AND SWAP1 POP DUP6 JUMP JUMPDEST DUP2 DUP2 PUSH1 0x1 PUSH0 DUP4 PUSH20 0xFFFFFFFFFFFFFFFFFFFFFFFFFFFFFFFFFFFFFFFF AND PUSH20 0xFFFFFFFFFFFFFFFFFFFFFFFFFFFFFFFFFFFFFFFF AND DUP2 MSTORE PUSH1 0x20 ADD SWAP1 DUP2 MSTORE PUSH1 0x20 ADD PUSH0 KECCAK256 DUP1 SLOAD SWAP1 POP DUP2 PUSH2 0xFFFF AND LT PUSH2 0x352 JUMPI PUSH1 0x40 MLOAD PUSH32 0x8C379A000000000000000000000000000000000000000000000000000000000 DUP2 MSTORE PUSH1 0x4 ADD PUSH2 0x349 SWAP1 PUSH2 0x13A9 JUMP JUMPDEST PUSH1 0x40 MLOAD DUP1 SWAP2 SUB SWAP1 REVERT JUMPDEST PUSH0 PUSH1 0x1 PUSH0 DUP5 PUSH20 0xFFFFFFFFFFFFFFFFFFFFFFFFFFFFFFFFFFFFFFFF AND PUSH20 0xFFFFFFFFFFFFFFFFFFFFFFFFFFFFFFFFFFFFFFFF AND DUP2 MSTORE PUSH1 0x20 ADD SWAP1 DUP2 MSTORE PUSH1 0x20 ADD PUSH0 KECCAK256 DUP3 PUSH2 0xFFFF AND DUP2 SLOAD DUP2 LT PUSH2 0x3A6 JUMPI PUSH2 0x3A5 PUSH2 0x13C7 JUMP JUMPDEST JUMPDEST SWAP1 PUSH0 MSTORE PUSH1 0x20 PUSH0 KECCAK256 SWAP1 PUSH1 0x4 MUL ADD PUSH1 0x3 ADD PUSH0 SWAP1 SLOAD SWAP1 PUSH2 0x100 EXP SWAP1 DIV PUSH1 0xFF AND PUSH1 0xFF AND GT PUSH2 0x405 JUMPI PUSH1 0x40 MLOAD PUSH32 0x8C379A000000000000000000000000000000000000000000000000000000000 DUP2 MSTORE PUSH1 0x4 ADD PUSH2 0x3FC SWAP1 PUSH2 0x143E JUMP JUMPDEST PUSH1 0x40 MLOAD DUP1 SWAP2 SUB SWAP1 REVERT JUMPDEST PUSH1 0x1 DUP1 PUSH0 DUP7 PUSH20 0xFFFFFFFFFFFFFFFFFFFFFFFFFFFFFFFFFFFFFFFF AND PUSH20 0xFFFFFFFFFFFFFFFFFFFFFFFFFFFFFFFFFFFFFFFF AND DUP2 MSTORE PUSH1 0x20 ADD SWAP1 DUP2 MSTORE PUSH1 0x20 ADD PUSH0 KECCAK256 DUP5 PUSH2 0xFFFF AND DUP2 SLOAD DUP2 LT PUSH2 0x459 JUMPI PUSH2 0x458 PUSH2 0x13C7 JUMP JUMPDEST JUMPDEST SWAP1 PUSH0 MSTORE PUSH1 0x20 PUSH0 KECCAK256 SWAP1 PUSH1 0x4 MUL ADD PUSH1 0x3 ADD PUSH0 DUP3 DUP3 DUP3 SWAP1 SLOAD SWAP1 PUSH2 0x100 EXP SWAP1 DIV PUSH1 0xFF AND PUSH2 0x482 SWAP2 SWAP1 PUSH2 0x1489 JUMP JUMPDEST SWAP3 POP PUSH2 0x100 EXP DUP2 SLOAD DUP2 PUSH1 0xFF MUL NOT AND SWAP1 DUP4 PUSH1 0xFF AND MUL OR SWAP1 SSTORE POP POP POP POP POP JUMP JUMPDEST PUSH2 0x4A8 PUSH2 0xC3D JUMP JUMPDEST PUSH0 PUSH1 0x1 PUSH0 CALLER PUSH20 0xFFFFFFFFFFFFFFFFFFFFFFFFFFFFFFFFFFFFFFFF AND PUSH20 0xFFFFFFFFFFFFFFFFFFFFFFFFFFFFFFFFFFFFFFFF AND DUP2 MSTORE PUSH1 0x20 ADD SWAP1 DUP2 MSTORE PUSH1 0x20 ADD PUSH0 KECCAK256 DUP1 SLOAD SWAP1 POP SWAP1 POP PUSH0 PUSH1 0x40 MLOAD DUP1 PUSH1 0xA0 ADD PUSH1 0x40 MSTORE DUP1 DUP4 PUSH2 0xFFFF AND DUP2 MSTORE PUSH1 0x20 ADD CALLER PUSH20 0xFFFFFFFFFFFFFFFFFFFFFFFFFFFFFFFFFFFFFFFF AND DUP2 MSTORE PUSH1 0x20 ADD DUP6 DUP2 MSTORE PUSH1 0x20 ADD TIMESTAMP DUP2 MSTORE PUSH1 0x20 ADD PUSH0 PUSH1 0xFF AND DUP2 MSTORE POP SWAP1 POP PUSH1 0x1 PUSH0 CALLER PUSH20 0xFFFFFFFFFFFFFFFFFFFFFFFFFFFFFFFFFFFFFFFF AND PUSH20 0xFFFFFFFFFFFFFFFFFFFFFFFFFFFFFFFFFFFFFFFF AND DUP2 MSTORE PUSH1 0x20 ADD SWAP1 DUP2 MSTORE PUSH1 0x20 ADD PUSH0 KECCAK256 DUP2 SWAP1 DUP1 PUSH1 0x1 DUP2 SLOAD ADD DUP1 DUP3 SSTORE DUP1 SWAP2 POP POP PUSH1 0x1 SWAP1 SUB SWAP1 PUSH0 MSTORE PUSH1 0x20 PUSH0 KECCAK256 SWAP1 PUSH1 0x4 MUL ADD PUSH0 SWAP1 SWAP2 SWAP1 SWAP2 SWAP1 SWAP2 POP PUSH0 DUP3 ADD MLOAD DUP2 PUSH0 ADD PUSH0 PUSH2 0x100 EXP DUP2 SLOAD DUP2 PUSH2 0xFFFF MUL NOT AND SWAP1 DUP4 PUSH2 0xFFFF AND MUL OR SWAP1 SSTORE POP PUSH1 0x20 DUP3 ADD MLOAD DUP2 PUSH0 ADD PUSH1 0x2 PUSH2 0x100 EXP DUP2 SLOAD DUP2 PUSH20 0xFFFFFFFFFFFFFFFFFFFFFFFFFFFFFFFFFFFFFFFF MUL NOT AND SWAP1 DUP4 PUSH20 0xFFFFFFFFFFFFFFFFFFFFFFFFFFFFFFFFFFFFFFFF AND MUL OR SWAP1 SSTORE POP PUSH1 0x40 DUP3 ADD MLOAD DUP2 PUSH1 0x1 ADD SWAP1 DUP2 PUSH2 0x612 SWAP2 SWAP1 PUSH2 0x165A JUMP JUMPDEST POP PUSH1 0x60 DUP3 ADD MLOAD DUP2 PUSH1 0x2 ADD SSTORE PUSH1 0x80 DUP3 ADD MLOAD DUP2 PUSH1 0x3 ADD PUSH0 PUSH2 0x100 EXP DUP2 SLOAD DUP2 PUSH1 0xFF MUL NOT AND SWAP1 DUP4 PUSH1 0xFF AND MUL OR SWAP1 SSTORE POP POP POP DUP1 SWAP3 POP POP POP SWAP2 SWAP1 POP JUMP JUMPDEST PUSH0 DUP1 SLOAD SWAP1 PUSH2 0x100 EXP SWAP1 DIV PUSH20 0xFFFFFFFFFFFFFFFFFFFFFFFFFFFFFFFFFFFFFFFF AND DUP2 JUMP JUMPDEST PUSH1 0x60 PUSH1 0x1 PUSH0 DUP4 PUSH20 0xFFFFFFFFFFFFFFFFFFFFFFFFFFFFFFFFFFFFFFFF AND PUSH20 0xFFFFFFFFFFFFFFFFFFFFFFFFFFFFFFFFFFFFFFFF AND DUP2 MSTORE PUSH1 0x20 ADD SWAP1 DUP2 MSTORE PUSH1 0x20 ADD PUSH0 KECCAK256 DUP1 SLOAD DUP1 PUSH1 0x20 MUL PUSH1 0x20 ADD PUSH1 0x40 MLOAD SWAP1 DUP2 ADD PUSH1 0x40 MSTORE DUP1 SWAP3 SWAP2 SWAP1 DUP2 DUP2 MSTORE PUSH1 0x20 ADD PUSH0 SWAP1 JUMPDEST DUP3 DUP3 LT ISZERO PUSH2 0x823 JUMPI DUP4 DUP3 SWAP1 PUSH0 MSTORE PUSH1 0x20 PUSH0 KECCAK256 SWAP1 PUSH1 0x4 MUL ADD PUSH1 0x40 MLOAD DUP1 PUSH1 0xA0 ADD PUSH1 0x40 MSTORE SWAP1 DUP2 PUSH0 DUP3 ADD PUSH0 SWAP1 SLOAD SWAP1 PUSH2 0x100 EXP SWAP1 DIV PUSH2 0xFFFF AND PUSH2 0xFFFF AND PUSH2 0xFFFF AND DUP2 MSTORE PUSH1 0x20 ADD PUSH0 DUP3 ADD PUSH1 0x2 SWAP1 SLOAD SWAP1 PUSH2 0x100 EXP SWAP1 DIV PUSH20 0xFFFFFFFFFFFFFFFFFFFFFFFFFFFFFFFFFFFFFFFF AND PUSH20 0xFFFFFFFFFFFFFFFFFFFFFFFFFFFFFFFFFFFFFFFF AND PUSH20 0xFFFFFFFFFFFFFFFFFFFFFFFFFFFFFFFFFFFFFFFF AND DUP2 MSTORE PUSH1 0x20 ADD PUSH1 0x1 DUP3 ADD DUP1 SLOAD PUSH2 0x76E SWAP1 PUSH2 0x132F JUMP JUMPDEST DUP1 PUSH1 0x1F ADD PUSH1 0x20 DUP1 SWAP2 DIV MUL PUSH1 0x20 ADD PUSH1 0x40 MLOAD SWAP1 DUP2 ADD PUSH1 0x40 MSTORE DUP1 SWAP3 SWAP2 SWAP1 DUP2 DUP2 MSTORE PUSH1 0x20 ADD DUP3 DUP1 SLOAD PUSH2 0x79A SWAP1 PUSH2 0x132F JUMP JUMPDEST DUP1 ISZERO PUSH2 0x7E5 JUMPI DUP1 PUSH1 0x1F LT PUSH2 0x7BC JUMPI PUSH2 0x100 DUP1 DUP4 SLOAD DIV MUL DUP4 MSTORE SWAP2 PUSH1 0x20 ADD SWAP2 PUSH2 0x7E5 JUMP JUMPDEST DUP3 ADD SWAP2 SWAP1 PUSH0 MSTORE PUSH1 0x20 PUSH0 KECCAK256 SWAP1 JUMPDEST DUP2 SLOAD DUP2 MSTORE SWAP1 PUSH1 0x1 ADD SWAP1 PUSH1 0x20 ADD DUP1 DUP4 GT PUSH2 0x7C8 JUMPI DUP3 SWAP1 SUB PUSH1 0x1F AND DUP3 ADD SWAP2 JUMPDEST POP POP POP POP POP DUP2 MSTORE PUSH1 0x20 ADD PUSH1 0x2 DUP3 ADD SLOAD DUP2 MSTORE PUSH1 0x20 ADD PUSH1 0x3 DUP3 ADD PUSH0 SWAP1 SLOAD SWAP1 PUSH2 0x100 EXP SWAP1 DIV PUSH1 0xFF AND PUSH1 0xFF AND PUSH1 0xFF AND DUP2 MSTORE POP POP DUP2 MSTORE PUSH1 0x20 ADD SWAP1 PUSH1 0x1 ADD SWAP1 PUSH2 0x6CA JUMP JUMPDEST POP POP POP POP SWAP1 POP SWAP2 SWAP1 POP JUMP JUMPDEST CALLER PUSH20 0xFFFFFFFFFFFFFFFFFFFFFFFFFFFFFFFFFFFFFFFF AND PUSH0 DUP1 SLOAD SWAP1 PUSH2 0x100 EXP SWAP1 DIV PUSH20 0xFFFFFFFFFFFFFFFFFFFFFFFFFFFFFFFFFFFFFFFF AND PUSH20 0xFFFFFFFFFFFFFFFFFFFFFFFFFFFFFFFFFFFFFFFF AND EQ PUSH2 0x8BB JUMPI PUSH1 0x40 MLOAD PUSH32 0x8C379A000000000000000000000000000000000000000000000000000000000 DUP2 MSTORE PUSH1 0x4 ADD PUSH2 0x8B2 SWAP1 PUSH2 0x1773 JUMP JUMPDEST PUSH1 0x40 MLOAD DUP1 SWAP2 SUB SWAP1 REVERT JUMPDEST DUP1 PUSH0 DUP1 PUSH2 0x100 EXP DUP2 SLOAD DUP2 PUSH20 0xFFFFFFFFFFFFFFFFFFFFFFFFFFFFFFFFFFFFFFFF MUL NOT AND SWAP1 DUP4 PUSH20 0xFFFFFFFFFFFFFFFFFFFFFFFFFFFFFFFFFFFFFFFF AND MUL OR SWAP1 SSTORE POP POP JUMP JUMPDEST PUSH2 0x905 PUSH2 0xC3D JUMP JUMPDEST PUSH1 0x1 PUSH0 DUP5 PUSH20 0xFFFFFFFFFFFFFFFFFFFFFFFFFFFFFFFFFFFFFFFF AND PUSH20 0xFFFFFFFFFFFFFFFFFFFFFFFFFFFFFFFFFFFFFFFF AND DUP2 MSTORE PUSH1 0x20 ADD SWAP1 DUP2 MSTORE PUSH1 0x20 ADD PUSH0 KECCAK256 DUP1 SLOAD SWAP1 POP DUP3 LT PUSH2 0x987 JUMPI PUSH1 0x40 MLOAD PUSH32 0x8C379A000000000000000000000000000000000000000000000000000000000 DUP2 MSTORE PUSH1 0x4 ADD PUSH2 0x97E SWAP1 PUSH2 0x13A9 JUMP JUMPDEST PUSH1 0x40 MLOAD DUP1 SWAP2 SUB SWAP1 REVERT JUMPDEST PUSH1 0x1 PUSH0 DUP5 PUSH20 0xFFFFFFFFFFFFFFFFFFFFFFFFFFFFFFFFFFFFFFFF AND PUSH20 0xFFFFFFFFFFFFFFFFFFFFFFFFFFFFFFFFFFFFFFFF AND DUP2 MSTORE PUSH1 0x20 ADD SWAP1 DUP2 MSTORE PUSH1 0x20 ADD PUSH0 KECCAK256 DUP3 DUP2 SLOAD DUP2 LT PUSH2 0x9D6 JUMPI PUSH2 0x9D5 PUSH2 0x13C7 JUMP JUMPDEST JUMPDEST SWAP1 PUSH0 MSTORE PUSH1 0x20 PUSH0 KECCAK256 SWAP1 PUSH1 0x4 MUL ADD PUSH1 0x40 MLOAD DUP1 PUSH1 0xA0 ADD PUSH1 0x40 MSTORE SWAP1 DUP2 PUSH0 DUP3 ADD PUSH0 SWAP1 SLOAD SWAP1 PUSH2 0x100 EXP SWAP1 DIV PUSH2 0xFFFF AND PUSH2 0xFFFF AND PUSH2 0xFFFF AND DUP2 MSTORE PUSH1 0x20 ADD PUSH0 DUP3 ADD PUSH1 0x2 SWAP1 SLOAD SWAP1 PUSH2 0x100 EXP SWAP1 DIV PUSH20 0xFFFFFFFFFFFFFFFFFFFFFFFFFFFFFFFFFFFFFFFF AND PUSH20 0xFFFFFFFFFFFFFFFFFFFFFFFFFFFFFFFFFFFFFFFF AND PUSH20 0xFFFFFFFFFFFFFFFFFFFFFFFFFFFFFFFFFFFFFFFF AND DUP2 MSTORE PUSH1 0x20 ADD PUSH1 0x1 DUP3 ADD DUP1 SLOAD PUSH2 0xA70 SWAP1 PUSH2 0x132F JUMP JUMPDEST DUP1 PUSH1 0x1F ADD PUSH1 0x20 DUP1 SWAP2 DIV MUL PUSH1 0x20 ADD PUSH1 0x40 MLOAD SWAP1 DUP2 ADD PUSH1 0x40 MSTORE DUP1 SWAP3 SWAP2 SWAP1 DUP2 DUP2 MSTORE PUSH1 0x20 ADD DUP3 DUP1 SLOAD PUSH2 0xA9C SWAP1 PUSH2 0x132F JUMP JUMPDEST DUP1 ISZERO PUSH2 0xAE7 JUMPI DUP1 PUSH1 0x1F LT PUSH2 0xABE JUMPI PUSH2 0x100 DUP1 DUP4 SLOAD DIV MUL DUP4 MSTORE SWAP2 PUSH1 0x20 ADD SWAP2 PUSH2 0xAE7 JUMP JUMPDEST DUP3 ADD SWAP2 SWAP1 PUSH0 MSTORE PUSH1 0x20 PUSH0 KECCAK256 SWAP1 JUMPDEST DUP2 SLOAD DUP2 MSTORE SWAP1 PUSH1 0x1 ADD SWAP1 PUSH1 0x20 ADD DUP1 DUP4 GT PUSH2 0xACA JUMPI DUP3 SWAP1 SUB PUSH1 0x1F AND DUP3 ADD SWAP2 JUMPDEST POP POP POP POP POP DUP2 MSTORE PUSH1 0x20 ADD PUSH1 0x2 DUP3 ADD SLOAD DUP2 MSTORE PUSH1 0x20 ADD PUSH1 0x3 DUP3 ADD PUSH0 SWAP1 SLOAD SWAP1 PUSH2 0x100 EXP SWAP1 DIV PUSH1 0xFF AND PUSH1 0xFF AND PUSH1 0xFF AND DUP2 MSTORE POP POP SWAP1 POP SWAP3 SWAP2 POP POP JUMP JUMPDEST PUSH1 0x1 PUSH0 DUP4 PUSH20 0xFFFFFFFFFFFFFFFFFFFFFFFFFFFFFFFFFFFFFFFF AND PUSH20 0xFFFFFFFFFFFFFFFFFFFFFFFFFFFFFFFFFFFFFFFF AND DUP2 MSTORE PUSH1 0x20 ADD SWAP1 DUP2 MSTORE PUSH1 0x20 ADD PUSH0 KECCAK256 DUP1 SLOAD SWAP1 POP DUP2 PUSH2 0xFFFF AND LT PUSH2 0xBA4 JUMPI PUSH1 0x40 MLOAD PUSH32 0x8C379A000000000000000000000000000000000000000000000000000000000 DUP2 MSTORE PUSH1 0x4 ADD PUSH2 0xB9B SWAP1 PUSH2 0x13A9 JUMP JUMPDEST PUSH1 0x40 MLOAD DUP1 SWAP2 SUB SWAP1 REVERT JUMPDEST PUSH1 0x1 DUP1 PUSH0 DUP5 PUSH20 0xFFFFFFFFFFFFFFFFFFFFFFFFFFFFFFFFFFFFFFFF AND PUSH20 0xFFFFFFFFFFFFFFFFFFFFFFFFFFFFFFFFFFFFFFFF AND DUP2 MSTORE PUSH1 0x20 ADD SWAP1 DUP2 MSTORE PUSH1 0x20 ADD PUSH0 KECCAK256 DUP3 PUSH2 0xFFFF AND DUP2 SLOAD DUP2 LT PUSH2 0xBF8 JUMPI PUSH2 0xBF7 PUSH2 0x13C7 JUMP JUMPDEST JUMPDEST SWAP1 PUSH0 MSTORE PUSH1 0x20 PUSH0 KECCAK256 SWAP1 PUSH1 0x4 MUL ADD PUSH1 0x3 ADD PUSH0 DUP3 DUP3 DUP3 SWAP1 SLOAD SWAP1 PUSH2 0x100 EXP SWAP1 DIV PUSH1 0xFF AND PUSH2 0xC21 SWAP2 SWAP1 PUSH2 0x1791 JUMP JUMPDEST SWAP3 POP PUSH2 0x100 EXP DUP2 SLOAD DUP2 PUSH1 0xFF MUL NOT AND SWAP1 DUP4 PUSH1 0xFF AND MUL OR SWAP1 SSTORE POP POP POP JUMP JUMPDEST PUSH1 0x40 MLOAD DUP1 PUSH1 0xA0 ADD PUSH1 0x40 MSTORE DUP1 PUSH0 PUSH2 0xFFFF AND DUP2 MSTORE PUSH1 0x20 ADD PUSH0 PUSH20 0xFFFFFFFFFFFFFFFFFFFFFFFFFFFFFFFFFFFFFFFF AND DUP2 MSTORE PUSH1 0x20 ADD PUSH1 0x60 DUP2 MSTORE PUSH1 0x20 ADD PUSH0 DUP2 MSTORE PUSH1 0x20 ADD PUSH0 PUSH1 0xFF AND DUP2 MSTORE POP SWAP1 JUMP JUMPDEST PUSH0 PUSH1 0x40 MLOAD SWAP1 POP SWAP1 JUMP JUMPDEST PUSH0 DUP1 REVERT JUMPDEST PUSH0 DUP1 REVERT JUMPDEST PUSH0 PUSH20 0xFFFFFFFFFFFFFFFFFFFFFFFFFFFFFFFFFFFFFFFF DUP3 AND SWAP1 POP SWAP2 SWAP1 POP JUMP JUMPDEST PUSH0 PUSH2 0xCBF DUP3 PUSH2 0xC96 JUMP JUMPDEST SWAP1 POP SWAP2 SWAP1 POP JUMP JUMPDEST PUSH2 0xCCF DUP2 PUSH2 0xCB5 JUMP JUMPDEST DUP2 EQ PUSH2 0xCD9 JUMPI PUSH0 DUP1 REVERT JUMPDEST POP JUMP JUMPDEST PUSH0 DUP2 CALLDATALOAD SWAP1 POP PUSH2 0xCEA DUP2 PUSH2 0xCC6 JUMP JUMPDEST SWAP3 SWAP2 POP POP JUMP JUMPDEST PUSH0 DUP2 SWAP1 POP SWAP2 SWAP1 POP JUMP JUMPDEST PUSH2 0xD02 DUP2 PUSH2 0xCF0 JUMP JUMPDEST DUP2 EQ PUSH2 0xD0C JUMPI PUSH0 DUP1 REVERT JUMPDEST POP JUMP JUMPDEST PUSH0 DUP2 CALLDATALOAD SWAP1 POP PUSH2 0xD1D DUP2 PUSH2 0xCF9 JUMP JUMPDEST SWAP3 SWAP2 POP POP JUMP JUMPDEST PUSH0 DUP1 PUSH1 0x40 DUP4 DUP6 SUB SLT ISZERO PUSH2 0xD39 JUMPI PUSH2 0xD38 PUSH2 0xC8E JUMP JUMPDEST JUMPDEST PUSH0 PUSH2 0xD46 DUP6 DUP3 DUP7 ADD PUSH2 0xCDC JUMP JUMPDEST SWAP3 POP POP PUSH1 0x20 PUSH2 0xD57 DUP6 DUP3 DUP7 ADD PUSH2 0xD0F JUMP JUMPDEST SWAP2 POP POP SWAP3 POP SWAP3 SWAP1 POP JUMP JUMPDEST PUSH0 PUSH2 0xFFFF DUP3 AND SWAP1 POP SWAP2 SWAP1 POP JUMP JUMPDEST PUSH2 0xD77 DUP2 PUSH2 0xD61 JUMP JUMPDEST DUP3 MSTORE POP POP JUMP JUMPDEST PUSH2 0xD86 DUP2 PUSH2 0xCB5 JUMP JUMPDEST DUP3 MSTORE POP POP JUMP JUMPDEST PUSH0 DUP2 MLOAD SWAP1 POP SWAP2 SWAP1 POP JUMP JUMPDEST PUSH0 DUP3 DUP3 MSTORE PUSH1 0x20 DUP3 ADD SWAP1 POP SWAP3 SWAP2 POP POP JUMP JUMPDEST DUP3 DUP2 DUP4 MCOPY PUSH0 DUP4 DUP4 ADD MSTORE POP POP POP JUMP JUMPDEST PUSH0 PUSH1 0x1F NOT PUSH1 0x1F DUP4 ADD AND SWAP1 POP SWAP2 SWAP1 POP JUMP JUMPDEST PUSH0 PUSH2 0xDCE DUP3 PUSH2 0xD8C JUMP JUMPDEST PUSH2 0xDD8 DUP2 DUP6 PUSH2 0xD96 JUMP JUMPDEST SWAP4 POP PUSH2 0xDE8 DUP2 DUP6 PUSH1 0x20 DUP7 ADD PUSH2 0xDA6 JUMP JUMPDEST PUSH2 0xDF1 DUP2 PUSH2 0xDB4 JUMP JUMPDEST DUP5 ADD SWAP2 POP POP SWAP3 SWAP2 POP POP JUMP JUMPDEST PUSH2 0xE05 DUP2 PUSH2 0xCF0 JUMP JUMPDEST DUP3 MSTORE POP POP JUMP JUMPDEST PUSH0 PUSH1 0xFF DUP3 AND SWAP1 POP SWAP2 SWAP1 POP JUMP JUMPDEST PUSH2 0xE20 DUP2 PUSH2 0xE0B JUMP JUMPDEST DUP3 MSTORE POP POP JUMP JUMPDEST PUSH0 PUSH1 0xA0 DUP3 ADD SWAP1 POP PUSH2 0xE39 PUSH0 DUP4 ADD DUP9 PUSH2 0xD6E JUMP JUMPDEST PUSH2 0xE46 PUSH1 0x20 DUP4 ADD DUP8 PUSH2 0xD7D JUMP JUMPDEST DUP2 DUP2 SUB PUSH1 0x40 DUP4 ADD MSTORE PUSH2 0xE58 DUP2 DUP7 PUSH2 0xDC4 JUMP JUMPDEST SWAP1 POP PUSH2 0xE67 PUSH1 0x60 DUP4 ADD DUP6 PUSH2 0xDFC JUMP JUMPDEST PUSH2 0xE74 PUSH1 0x80 DUP4 ADD DUP5 PUSH2 0xE17 JUMP JUMPDEST SWAP7 SWAP6 POP POP POP POP POP POP JUMP JUMPDEST PUSH2 0xE87 DUP2 PUSH2 0xD61 JUMP JUMPDEST DUP2 EQ PUSH2 0xE91 JUMPI PUSH0 DUP1 REVERT JUMPDEST POP JUMP JUMPDEST PUSH0 DUP2 CALLDATALOAD SWAP1 POP PUSH2 0xEA2 DUP2 PUSH2 0xE7E JUMP JUMPDEST SWAP3 SWAP2 POP POP JUMP JUMPDEST PUSH0 DUP1 PUSH1 0x40 DUP4 DUP6 SUB SLT ISZERO PUSH2 0xEBE JUMPI PUSH2 0xEBD PUSH2 0xC8E JUMP JUMPDEST JUMPDEST PUSH0 PUSH2 0xECB DUP6 DUP3 DUP7 ADD PUSH2 0xCDC JUMP JUMPDEST SWAP3 POP POP PUSH1 0x20 PUSH2 0xEDC DUP6 DUP3 DUP7 ADD PUSH2 0xE94 JUMP JUMPDEST SWAP2 POP POP SWAP3 POP SWAP3 SWAP1 POP JUMP JUMPDEST PUSH0 DUP1 REVERT JUMPDEST PUSH0 DUP1 REVERT JUMPDEST PUSH32 0x4E487B7100000000000000000000000000000000000000000000000000000000 PUSH0 MSTORE PUSH1 0x41 PUSH1 0x4 MSTORE PUSH1 0x24 PUSH0 REVERT JUMPDEST PUSH2 0xF24 DUP3 PUSH2 0xDB4 JUMP JUMPDEST DUP2 ADD DUP2 DUP2 LT PUSH8 0xFFFFFFFFFFFFFFFF DUP3 GT OR ISZERO PUSH2 0xF43 JUMPI PUSH2 0xF42 PUSH2 0xEEE JUMP JUMPDEST JUMPDEST DUP1 PUSH1 0x40 MSTORE POP POP POP JUMP JUMPDEST PUSH0 PUSH2 0xF55 PUSH2 0xC85 JUMP JUMPDEST SWAP1 POP PUSH2 0xF61 DUP3 DUP3 PUSH2 0xF1B JUMP JUMPDEST SWAP2 SWAP1 POP JUMP JUMPDEST PUSH0 PUSH8 0xFFFFFFFFFFFFFFFF DUP3 GT ISZERO PUSH2 0xF80 JUMPI PUSH2 0xF7F PUSH2 0xEEE JUMP JUMPDEST JUMPDEST PUSH2 0xF89 DUP3 PUSH2 0xDB4 JUMP JUMPDEST SWAP1 POP PUSH1 0x20 DUP2 ADD SWAP1 POP SWAP2 SWAP1 POP JUMP JUMPDEST DUP3 DUP2 DUP4 CALLDATACOPY PUSH0 DUP4 DUP4 ADD MSTORE POP POP POP JUMP JUMPDEST PUSH0 PUSH2 0xFB6 PUSH2 0xFB1 DUP5 PUSH2 0xF66 JUMP JUMPDEST PUSH2 0xF4C JUMP JUMPDEST SWAP1 POP DUP3 DUP2 MSTORE PUSH1 0x20 DUP2 ADD DUP5 DUP5 DUP5 ADD GT ISZERO PUSH2 0xFD2 JUMPI PUSH2 0xFD1 PUSH2 0xEEA JUMP JUMPDEST JUMPDEST PUSH2 0xFDD DUP5 DUP3 DUP6 PUSH2 0xF96 JUMP JUMPDEST POP SWAP4 SWAP3 POP POP POP JUMP JUMPDEST PUSH0 DUP3 PUSH1 0x1F DUP4 ADD SLT PUSH2 0xFF9 JUMPI PUSH2 0xFF8 PUSH2 0xEE6 JUMP JUMPDEST JUMPDEST DUP2 CALLDATALOAD PUSH2 0x1009 DUP5 DUP3 PUSH1 0x20 DUP7 ADD PUSH2 0xFA4 JUMP JUMPDEST SWAP2 POP POP SWAP3 SWAP2 POP POP JUMP JUMPDEST PUSH0 PUSH1 0x20 DUP3 DUP5 SUB SLT ISZERO PUSH2 0x1027 JUMPI PUSH2 0x1026 PUSH2 0xC8E JUMP JUMPDEST JUMPDEST PUSH0 DUP3 ADD CALLDATALOAD PUSH8 0xFFFFFFFFFFFFFFFF DUP2 GT ISZERO PUSH2 0x1044 JUMPI PUSH2 0x1043 PUSH2 0xC92 JUMP JUMPDEST JUMPDEST PUSH2 0x1050 DUP5 DUP3 DUP6 ADD PUSH2 0xFE5 JUMP JUMPDEST SWAP2 POP POP SWAP3 SWAP2 POP POP JUMP JUMPDEST PUSH2 0x1062 DUP2 PUSH2 0xD61 JUMP JUMPDEST DUP3 MSTORE POP POP JUMP JUMPDEST PUSH2 0x1071 DUP2 PUSH2 0xCB5 JUMP JUMPDEST DUP3 MSTORE POP POP JUMP JUMPDEST PUSH0 DUP3 DUP3 MSTORE PUSH1 0x20 DUP3 ADD SWAP1 POP SWAP3 SWAP2 POP POP JUMP JUMPDEST PUSH0 PUSH2 0x1091 DUP3 PUSH2 0xD8C JUMP JUMPDEST PUSH2 0x109B DUP2 DUP6 PUSH2 0x1077 JUMP JUMPDEST SWAP4 POP PUSH2 0x10AB DUP2 DUP6 PUSH1 0x20 DUP7 ADD PUSH2 0xDA6 JUMP JUMPDEST PUSH2 0x10B4 DUP2 PUSH2 0xDB4 JUMP JUMPDEST DUP5 ADD SWAP2 POP POP SWAP3 SWAP2 POP POP JUMP JUMPDEST PUSH2 0x10C8 DUP2 PUSH2 0xCF0 JUMP JUMPDEST DUP3 MSTORE POP POP JUMP JUMPDEST PUSH2 0x10D7 DUP2 PUSH2 0xE0B JUMP JUMPDEST DUP3 MSTORE POP POP JUMP JUMPDEST PUSH0 PUSH1 0xA0 DUP4 ADD PUSH0 DUP4 ADD MLOAD PUSH2 0x10F2 PUSH0 DUP7 ADD DUP3 PUSH2 0x1059 JUMP JUMPDEST POP PUSH1 0x20 DUP4 ADD MLOAD PUSH2 0x1105 PUSH1 0x20 DUP7 ADD DUP3 PUSH2 0x1068 JUMP JUMPDEST POP PUSH1 0x40 DUP4 ADD MLOAD DUP5 DUP3 SUB PUSH1 0x40 DUP7 ADD MSTORE PUSH2 0x111D DUP3 DUP3 PUSH2 0x1087 JUMP JUMPDEST SWAP2 POP POP PUSH1 0x60 DUP4 ADD MLOAD PUSH2 0x1132 PUSH1 0x60 DUP7 ADD DUP3 PUSH2 0x10BF JUMP JUMPDEST POP PUSH1 0x80 DUP4 ADD MLOAD PUSH2 0x1145 PUSH1 0x80 DUP7 ADD DUP3 PUSH2 0x10CE JUMP JUMPDEST POP DUP1 SWAP2 POP POP SWAP3 SWAP2 POP POP JUMP JUMPDEST PUSH0 PUSH1 0x20 DUP3 ADD SWAP1 POP DUP2 DUP2 SUB PUSH0 DUP4 ADD MSTORE PUSH2 0x1168 DUP2 DUP5 PUSH2 0x10DD JUMP JUMPDEST SWAP1 POP SWAP3 SWAP2 POP POP JUMP JUMPDEST PUSH0 PUSH1 0x20 DUP3 ADD SWAP1 POP PUSH2 0x1183 PUSH0 DUP4 ADD DUP5 PUSH2 0xD7D JUMP JUMPDEST SWAP3 SWAP2 POP POP JUMP JUMPDEST PUSH0 PUSH1 0x20 DUP3 DUP5 SUB SLT ISZERO PUSH2 0x119E JUMPI PUSH2 0x119D PUSH2 0xC8E JUMP JUMPDEST JUMPDEST PUSH0 PUSH2 0x11AB DUP5 DUP3 DUP6 ADD PUSH2 0xCDC JUMP JUMPDEST SWAP2 POP POP SWAP3 SWAP2 POP POP JUMP JUMPDEST PUSH0 DUP2 MLOAD SWAP1 POP SWAP2 SWAP1 POP JUMP JUMPDEST PUSH0 DUP3 DUP3 MSTORE PUSH1 0x20 DUP3 ADD SWAP1 POP SWAP3 SWAP2 POP POP JUMP JUMPDEST PUSH0 DUP2 SWAP1 POP PUSH1 0x20 DUP3 ADD SWAP1 POP SWAP2 SWAP1 POP JUMP JUMPDEST PUSH0 PUSH1 0xA0 DUP4 ADD PUSH0 DUP4 ADD MLOAD PUSH2 0x11F2 PUSH0 DUP7 ADD DUP3 PUSH2 0x1059 JUMP JUMPDEST POP PUSH1 0x20 DUP4 ADD MLOAD PUSH2 0x1205 PUSH1 0x20 DUP7 ADD DUP3 PUSH2 0x1068 JUMP JUMPDEST POP PUSH1 0x40 DUP4 ADD MLOAD DUP5 DUP3 SUB PUSH1 0x40 DUP7 ADD MSTORE PUSH2 0x121D DUP3 DUP3 PUSH2 0x1087 JUMP JUMPDEST SWAP2 POP POP PUSH1 0x60 DUP4 ADD MLOAD PUSH2 0x1232 PUSH1 0x60 DUP7 ADD DUP3 PUSH2 0x10BF JUMP JUMPDEST POP PUSH1 0x80 DUP4 ADD MLOAD PUSH2 0x1245 PUSH1 0x80 DUP7 ADD DUP3 PUSH2 0x10CE JUMP JUMPDEST POP DUP1 SWAP2 POP POP SWAP3 SWAP2 POP POP JUMP JUMPDEST PUSH0 PUSH2 0x125B DUP4 DUP4 PUSH2 0x11DD JUMP JUMPDEST SWAP1 POP SWAP3 SWAP2 POP POP JUMP JUMPDEST PUSH0 PUSH1 0x20 DUP3 ADD SWAP1 POP SWAP2 SWAP1 POP JUMP JUMPDEST PUSH0 PUSH2 0x1279 DUP3 PUSH2 0x11B4 JUMP JUMPDEST PUSH2 0x1283 DUP2 DUP6 PUSH2 0x11BE JUMP JUMPDEST SWAP4 POP DUP4 PUSH1 0x20 DUP3 MUL DUP6 ADD PUSH2 0x1295 DUP6 PUSH2 0x11CE JUMP JUMPDEST DUP1 PUSH0 JUMPDEST DUP6 DUP2 LT ISZERO PUSH2 0x12D0 JUMPI DUP5 DUP5 SUB DUP10 MSTORE DUP2 MLOAD PUSH2 0x12B1 DUP6 DUP3 PUSH2 0x1250 JUMP JUMPDEST SWAP5 POP PUSH2 0x12BC DUP4 PUSH2 0x1263 JUMP JUMPDEST SWAP3 POP PUSH1 0x20 DUP11 ADD SWAP10 POP POP PUSH1 0x1 DUP2 ADD SWAP1 POP PUSH2 0x1298 JUMP JUMPDEST POP DUP3 SWAP8 POP DUP8 SWAP6 POP POP POP POP POP POP SWAP3 SWAP2 POP POP JUMP JUMPDEST PUSH0 PUSH1 0x20 DUP3 ADD SWAP1 POP DUP2 DUP2 SUB PUSH0 DUP4 ADD MSTORE PUSH2 0x12FA DUP2 DUP5 PUSH2 0x126F JUMP JUMPDEST SWAP1 POP SWAP3 SWAP2 POP POP JUMP JUMPDEST PUSH32 0x4E487B7100000000000000000000000000000000000000000000000000000000 PUSH0 MSTORE PUSH1 0x22 PUSH1 0x4 MSTORE PUSH1 0x24 PUSH0 REVERT JUMPDEST PUSH0 PUSH1 0x2 DUP3 DIV SWAP1 POP PUSH1 0x1 DUP3 AND DUP1 PUSH2 0x1346 JUMPI PUSH1 0x7F DUP3 AND SWAP2 POP JUMPDEST PUSH1 0x20 DUP3 LT DUP2 SUB PUSH2 0x1359 JUMPI PUSH2 0x1358 PUSH2 0x1302 JUMP JUMPDEST JUMPDEST POP SWAP2 SWAP1 POP JUMP JUMPDEST PUSH32 0x547765657420646F6573206E6F74206578697374000000000000000000000000 PUSH0 DUP3 ADD MSTORE POP JUMP JUMPDEST PUSH0 PUSH2 0x1393 PUSH1 0x14 DUP4 PUSH2 0xD96 JUMP JUMPDEST SWAP2 POP PUSH2 0x139E DUP3 PUSH2 0x135F JUMP JUMPDEST PUSH1 0x20 DUP3 ADD SWAP1 POP SWAP2 SWAP1 POP JUMP JUMPDEST PUSH0 PUSH1 0x20 DUP3 ADD SWAP1 POP DUP2 DUP2 SUB PUSH0 DUP4 ADD MSTORE PUSH2 0x13C0 DUP2 PUSH2 0x1387 JUMP JUMPDEST SWAP1 POP SWAP2 SWAP1 POP JUMP JUMPDEST PUSH32 0x4E487B7100000000000000000000000000000000000000000000000000000000 PUSH0 MSTORE PUSH1 0x32 PUSH1 0x4 MSTORE PUSH1 0x24 PUSH0 REVERT JUMPDEST PUSH32 0x4E6F206C696B657320746F2072656D6F76650000000000000000000000000000 PUSH0 DUP3 ADD MSTORE POP JUMP JUMPDEST PUSH0 PUSH2 0x1428 PUSH1 0x12 DUP4 PUSH2 0xD96 JUMP JUMPDEST SWAP2 POP PUSH2 0x1433 DUP3 PUSH2 0x13F4 JUMP JUMPDEST PUSH1 0x20 DUP3 ADD SWAP1 POP SWAP2 SWAP1 POP JUMP JUMPDEST PUSH0 PUSH1 0x20 DUP3 ADD SWAP1 POP DUP2 DUP2 SUB PUSH0 DUP4 ADD MSTORE PUSH2 0x1455 DUP2 PUSH2 0x141C JUMP JUMPDEST SWAP1 POP SWAP2 SWAP1 POP JUMP JUMPDEST PUSH32 0x4E487B7100000000000000000000000000000000000000000000000000000000 PUSH0 MSTORE PUSH1 0x11 PUSH1 0x4 MSTORE PUSH1 0x24 PUSH0 REVERT JUMPDEST PUSH0 PUSH2 0x1493 DUP3 PUSH2 0xE0B JUMP JUMPDEST SWAP2 POP PUSH2 0x149E DUP4 PUSH2 0xE0B JUMP JUMPDEST SWAP3 POP DUP3 DUP3 SUB SWAP1 POP PUSH1 0xFF DUP2 GT ISZERO PUSH2 0x14B7 JUMPI PUSH2 0x14B6 PUSH2 0x145C JUMP JUMPDEST JUMPDEST SWAP3 SWAP2 POP POP JUMP JUMPDEST PUSH0 DUP2 SWAP1 POP DUP2 PUSH0 MSTORE PUSH1 0x20 PUSH0 KECCAK256 SWAP1 POP SWAP2 SWAP1 POP JUMP JUMPDEST PUSH0 PUSH1 0x20 PUSH1 0x1F DUP4 ADD DIV SWAP1 POP SWAP2 SWAP1 POP JUMP JUMPDEST PUSH0 DUP3 DUP3 SHL SWAP1 POP SWAP3 SWAP2 POP POP JUMP JUMPDEST PUSH0 PUSH1 0x8 DUP4 MUL PUSH2 0x1519 PUSH32 0xFFFFFFFFFFFFFFFFFFFFFFFFFFFFFFFFFFFFFFFFFFFFFFFFFFFFFFFFFFFFFFFF DUP3 PUSH2 0x14DE JUMP JUMPDEST PUSH2 0x1523 DUP7 DUP4 PUSH2 0x14DE JUMP JUMPDEST SWAP6 POP DUP1 NOT DUP5 AND SWAP4 POP DUP1 DUP7 AND DUP5 OR SWAP3 POP POP POP SWAP4 SWAP3 POP POP POP JUMP JUMPDEST PUSH0 DUP2 SWAP1 POP SWAP2 SWAP1 POP JUMP JUMPDEST PUSH0 PUSH2 0x155E PUSH2 0x1559 PUSH2 0x1554 DUP5 PUSH2 0xCF0 JUMP JUMPDEST PUSH2 0x153B JUMP JUMPDEST PUSH2 0xCF0 JUMP JUMPDEST SWAP1 POP SWAP2 SWAP1 POP JUMP JUMPDEST PUSH0 DUP2 SWAP1 POP SWAP2 SWAP1 POP JUMP JUMPDEST PUSH2 0x1577 DUP4 PUSH2 0x1544 JUMP JUMPDEST PUSH2 0x158B PUSH2 0x1583 DUP3 PUSH2 0x1565 JUMP JUMPDEST DUP5 DUP5 SLOAD PUSH2 0x14EA JUMP JUMPDEST DUP3 SSTORE POP POP POP POP JUMP JUMPDEST PUSH0 SWAP1 JUMP JUMPDEST PUSH2 0x159F PUSH2 0x1593 JUMP JUMPDEST PUSH2 0x15AA DUP2 DUP5 DUP5 PUSH2 0x156E JUMP JUMPDEST POP POP POP JUMP JUMPDEST JUMPDEST DUP2 DUP2 LT ISZERO PUSH2 0x15CD JUMPI PUSH2 0x15C2 PUSH0 DUP3 PUSH2 0x1597 JUMP JUMPDEST PUSH1 0x1 DUP2 ADD SWAP1 POP PUSH2 0x15B0 JUMP JUMPDEST POP POP JUMP JUMPDEST PUSH1 0x1F DUP3 GT ISZERO PUSH2 0x1612 JUMPI PUSH2 0x15E3 DUP2 PUSH2 0x14BD JUMP JUMPDEST PUSH2 0x15EC DUP5 PUSH2 0x14CF JUMP JUMPDEST DUP2 ADD PUSH1 0x20 DUP6 LT ISZERO PUSH2 0x15FB JUMPI DUP2 SWAP1 POP JUMPDEST PUSH2 0x160F PUSH2 0x1607 DUP6 PUSH2 0x14CF JUMP JUMPDEST DUP4 ADD DUP3 PUSH2 0x15AF JUMP JUMPDEST POP POP JUMPDEST POP POP POP JUMP JUMPDEST PUSH0 DUP3 DUP3 SHR SWAP1 POP SWAP3 SWAP2 POP POP JUMP JUMPDEST PUSH0 PUSH2 0x1632 PUSH0 NOT DUP5 PUSH1 0x8 MUL PUSH2 0x1617 JUMP JUMPDEST NOT DUP1 DUP4 AND SWAP2 POP POP SWAP3 SWAP2 POP POP JUMP JUMPDEST PUSH0 PUSH2 0x164A DUP4 DUP4 PUSH2 0x1623 JUMP JUMPDEST SWAP2 POP DUP3 PUSH1 0x2 MUL DUP3 OR SWAP1 POP SWAP3 SWAP2 POP POP JUMP JUMPDEST PUSH2 0x1663 DUP3 PUSH2 0xD8C JUMP JUMPDEST PUSH8 0xFFFFFFFFFFFFFFFF DUP2 GT ISZERO PUSH2 0x167C JUMPI PUSH2 0x167B PUSH2 0xEEE JUMP JUMPDEST JUMPDEST PUSH2 0x1686 DUP3 SLOAD PUSH2 0x132F JUMP JUMPDEST PUSH2 0x1691 DUP3 DUP3 DUP6 PUSH2 0x15D1 JUMP JUMPDEST PUSH0 PUSH1 0x20 SWAP1 POP PUSH1 0x1F DUP4 GT PUSH1 0x1 DUP2 EQ PUSH2 0x16C2 JUMPI PUSH0 DUP5 ISZERO PUSH2 0x16B0 JUMPI DUP3 DUP8 ADD MLOAD SWAP1 POP JUMPDEST PUSH2 0x16BA DUP6 DUP3 PUSH2 0x163F JUMP JUMPDEST DUP7 SSTORE POP PUSH2 0x1721 JUMP JUMPDEST PUSH1 0x1F NOT DUP5 AND PUSH2 0x16D0 DUP7 PUSH2 0x14BD JUMP JUMPDEST PUSH0 JUMPDEST DUP3 DUP2 LT ISZERO PUSH2 0x16F7 JUMPI DUP5 DUP10 ADD MLOAD DUP3 SSTORE PUSH1 0x1 DUP3 ADD SWAP2 POP PUSH1 0x20 DUP6 ADD SWAP5 POP PUSH1 0x20 DUP2 ADD SWAP1 POP PUSH2 0x16D2 JUMP JUMPDEST DUP7 DUP4 LT ISZERO PUSH2 0x1714 JUMPI DUP5 DUP10 ADD MLOAD PUSH2 0x1710 PUSH1 0x1F DUP10 AND DUP3 PUSH2 0x1623 JUMP JUMPDEST DUP4 SSTORE POP JUMPDEST PUSH1 0x1 PUSH1 0x2 DUP9 MUL ADD DUP9 SSTORE POP POP POP JUMPDEST POP POP POP POP POP POP JUMP JUMPDEST PUSH32 0x596F7520617265206E6F7420746865206F776E65722100000000000000000000 PUSH0 DUP3 ADD MSTORE POP JUMP JUMPDEST PUSH0 PUSH2 0x175D PUSH1 0x16 DUP4 PUSH2 0xD96 JUMP JUMPDEST SWAP2 POP PUSH2 0x1768 DUP3 PUSH2 0x1729 JUMP JUMPDEST PUSH1 0x20 DUP3 ADD SWAP1 POP SWAP2 SWAP1 POP JUMP JUMPDEST PUSH0 PUSH1 0x20 DUP3 ADD SWAP1 POP DUP2 DUP2 SUB PUSH0 DUP4 ADD MSTORE PUSH2 0x178A DUP2 PUSH2 0x1751 JUMP JUMPDEST SWAP1 POP SWAP2 SWAP1 POP JUMP JUMPDEST PUSH0 PUSH2 0x179B DUP3 PUSH2 0xE0B JUMP JUMPDEST SWAP2 POP PUSH2 0x17A6 DUP4 PUSH2 0xE0B JUMP JUMPDEST SWAP3 POP DUP3 DUP3 ADD SWAP1 POP PUSH1 0xFF DUP2 GT ISZERO PUSH2 0x17BF JUMPI PUSH2 0x17BE PUSH2 0x145C JUMP JUMPDEST JUMPDEST SWAP3 SWAP2 POP POP JUMP INVALID LOG2 PUSH5 0x6970667358 0x22 SLT KECCAK256 PREVRANDAO 0x2C 0xCC SWAP13 0xCD 0xCA MSIZE 0x4F 0xEB 0xFC 0xE5 PUSH11 0x325300FA4F9D9ED0ADDB09 XOR 0xC0 0xE8 PUSH7 0x6FFD9EB2166473 PUSH16 0x6C634300081A00330000000000000000 "
				},
				"gasEstimates": {
					"creation": {
						"codeDepositCost": "1227800",
						"executionCost": "25538",
						"totalCost": "1253338"
					},
					"external": {
						"changeOwner(address)": "26903",
						"createTweet(string)": "infinite",
						"getTweetById(address,uint256)": "infinite",
						"getTweets(address)": "infinite",
						"likeTweet(address,uint16)": "infinite",
						"owner()": "2572",
						"tweets(address,uint256)": "infinite",
						"unlikeTweet(address,uint16)": "infinite"
					}
				},
				"methodIdentifiers": {
					"changeOwner(address)": "a6f9dae1",
					"createTweet(string)": "7c9cd2bc",
					"getTweetById(address,uint256)": "c824a702",
					"getTweets(address)": "9e92b093",
					"likeTweet(address,uint16)": "ca5f3173",
					"owner()": "8da5cb5b",
					"tweets(address,uint256)": "05a1b4a9",
					"unlikeTweet(address,uint16)": "56a52cf9"
				}
			},
			"storageLayout": {
				"storage": [
					{
						"astId": 14,
						"contract": ".states/Contracts/twitter.sol:Tweet",
						"label": "owner",
						"offset": 0,
						"slot": "0",
						"type": "t_address"
					},
					{
						"astId": 83,
						"contract": ".states/Contracts/twitter.sol:Tweet",
						"label": "tweets",
						"offset": 0,
						"slot": "1",
						"type": "t_mapping(t_address,t_array(t_struct(TweetInfo)12_storage)dyn_storage)"
					}
				],
				"types": {
					"t_address": {
						"encoding": "inplace",
						"label": "address",
						"numberOfBytes": "20"
					},
					"t_array(t_struct(TweetInfo)12_storage)dyn_storage": {
						"base": "t_struct(TweetInfo)12_storage",
						"encoding": "dynamic_array",
						"label": "struct Tweet.TweetInfo[]",
						"numberOfBytes": "32"
					},
					"t_mapping(t_address,t_array(t_struct(TweetInfo)12_storage)dyn_storage)": {
						"encoding": "mapping",
						"key": "t_address",
						"label": "mapping(address => struct Tweet.TweetInfo[])",
						"numberOfBytes": "32",
						"value": "t_array(t_struct(TweetInfo)12_storage)dyn_storage"
					},
					"t_string_storage": {
						"encoding": "bytes",
						"label": "string",
						"numberOfBytes": "32"
					},
					"t_struct(TweetInfo)12_storage": {
						"encoding": "inplace",
						"label": "struct Tweet.TweetInfo",
						"members": [
							{
								"astId": 3,
								"contract": ".states/Contracts/twitter.sol:Tweet",
								"label": "id",
								"offset": 0,
								"slot": "0",
								"type": "t_uint16"
							},
							{
								"astId": 5,
								"contract": ".states/Contracts/twitter.sol:Tweet",
								"label": "author",
								"offset": 2,
								"slot": "0",
								"type": "t_address"
							},
							{
								"astId": 7,
								"contract": ".states/Contracts/twitter.sol:Tweet",
								"label": "content",
								"offset": 0,
								"slot": "1",
								"type": "t_string_storage"
							},
							{
								"astId": 9,
								"contract": ".states/Contracts/twitter.sol:Tweet",
								"label": "timestamp",
								"offset": 0,
								"slot": "2",
								"type": "t_uint256"
							},
							{
								"astId": 11,
								"contract": ".states/Contracts/twitter.sol:Tweet",
								"label": "likes",
								"offset": 0,
								"slot": "3",
								"type": "t_uint8"
							}
						],
						"numberOfBytes": "128"
					},
					"t_uint16": {
						"encoding": "inplace",
						"label": "uint16",
						"numberOfBytes": "2"
					},
					"t_uint256": {
						"encoding": "inplace",
						"label": "uint256",
						"numberOfBytes": "32"
					},
					"t_uint8": {
						"encoding": "inplace",
						"label": "uint8",
						"numberOfBytes": "1"
					}
				}
			},
			"userdoc": {
				"kind": "user",
				"methods": {},
				"version": 1
			}
		}
	}
}